:020000040000FA
:060000003CEF03F01200CA
:020006000000F8
:08000800D9CFE6FFE1CFD9FFDB
:10001000E552E7CFD9FF1200C580C5B0FED79E0ECE
:10002000E66EA4EC02F0E55257EC03F0AC0EE66E7F
:10003000A4EC02F0E55257EC03F0E66AA4EC02F0FF
:10004000E55257EC03F0C584C5B4FED7280EE66E22
:1000500025EC03F0E552C580C5B0FED79E0EE66ED6
:10006000A4EC02F0E55257EC03F0EE0EE66EA4ECC1
:1000700002F0E55257EC03F0C584C5B4FED7280E54
:10008000E66E25EC03F0E5521200C580C5B0FED740
:1000900057EC03F09E0EE66EA4EC02F0E55257EC2E
:1000A00003F0220EE66EA4EC02F0E55257EC03F0EA
:1000B000C584C5B4FED7280EE66E25EC03F0E552E4
:1000C0001200D9CFE6FFE1CFD9FFC580C5B0FED77A
:1000D00057EC03F09E0EE66EA4EC02F0E55257ECEE
:1000E00003F0AA0EE66EA4EC02F0E55257EC03F022
:1000F000C582C5B2FED757EC03F09F0EE66EA4ECA6
:1001000002F0E55257EC03F04AEC03F0E66EFD0E08
:10011000DBCFE9FFFE0EDBCFEAFFE552E750EF6EE3
:1001200057EC03F0C59AC588C5B8FED757EC03F065
:100130004AEC03F0E66EFB0EDBCFE9FFFC0EDBCFF3
:10014000EAFFE552E750EF6E57EC03F0C58AC58829
:10015000C5B8FED757EC03F0C584C5B4FED7010E71
:10016000E66E25EC03F0E552C580C5B0FED757EC2E
:1001700003F09E0EE66EA4EC02F0E55257EC03F09D
:10018000A80EE66EA4EC02F0E55257EC03F0C5822F
:10019000C5B2FED757EC03F09F0EE66EA4EC02F05A
:1001A000E55257EC03F04AEC03F0E66EF70EDBCFB6
:1001B000E9FFF80EDBCFEAFFE552E750EF6E57ECB0
:1001C00003F0C58AC588C5B8FED757EC03F0C584CF
:1001D000C5B4FED7010EE66E25EC03F0E552C580EE
:1001E000C5B0FED757EC03F09E0EE66EA4EC02F00D
:1001F000E55257EC03F0A90EE66EA4EC02F0E552CE
:1002000057EC03F0C582C5B2FED757EC03F09F0E42
:10021000E66EA4EC02F0E55257EC03F04AEC03F072
:10022000E66EF90EDBCFE9FFFA0EDBCFEAFFE5520F
:10023000E750EF6E57EC03F0C58AC588C5B8FED706
:1002400057EC03F0C584C5B4FED7010EE66E25EC6D
:1002500003F0E552E552E7CFD9FF1200D9CFE6FF10
:10026000E1CFD9FF0D0EE126070EDB6A080EDB6A2F
:100270000B0EDB6A0C0EDB6A6C0ED36E180E946EDE
:100280008B6E936A3F0E8A6E070EDF6EDFCFE6FF3E
:10029000BBDEE5520A0EC86E800EE66E080EE66EF4
:1002A0000AEC03F0E552E552B7DE8A50200B01E07C
:1002B000010E010BE81CE8B08A8AE8A08A9AD9509E
:1002C000040FE66E000EDA20E66ED950030FE66EDC
:1002D000000EDA20E66ED950020FE66E000EDA202C
:1002E000E66ED950010FE66E000EDA20E66EE9DE0A
:1002F000146E080EE15E1450010EDB50FF0801E1A0
:10030000C2D0010EDB50E66ED950050FE96EDACF90
:10031000EAFFE552E750EE6EED6A050EDBCF14F012
:10032000060EDBCF15F0D89014361536050E14C026
:10033000DBFF060E15C0DBFF020EDB44010BE76E90
:10034000020EE7CFDBFFDB50E76E050EDBCF14F0CC
:10035000060EDBCF15F0E7501426000E1522050E11
:1003600014C0DBFF060E15C0DBFF050EDBCF16F059
:10037000060EDBCF17F0070EDB50165C146E080E6E
:10038000DB501758156E090E14C0DBFF0A0E15C09E
:10039000DBFF090EDBCF14F00A0EDBCF15F00001F6
:1003A000800E151410E008680968090EDBCF0DF007
:1003B0000A0EDBCF0EF0DDEC02F0090E06C0DBFF0B
:1003C0000A0E07C0DBFF0B0EDBCF16F00C0EDBCFE7
:1003D00017F0090EDB501624146E0A0EDB5017209E
:1003E000156ED890155004E6030E145C000E1558D7
:1003F00003E33F0E8A6E2ED00B0EDBCF16F00C0EF1
:10040000DBCF17F0090EDB501624146E0A0EDB50FA
:100410001720156E020E141801E1155003E11F0E8E
:100420008A6E18D00B0EDBCF16F00C0EDBCF17F058
:10043000090EDB501624146E0A0EDB501720156EC1
:10044000010E141801E1155003E10F0E8A6E02D05F
:10045000070E8A6E050EDBCF08F0060EDBCF09F023
:10046000070E08C0DBFF080E09C0DBFF090EDBCF5B
:1004700008F00A0EDBCF09F00B0E08C0DBFF0C0EF4
:1004800009C0DBFF02D03F0E8A6E640EE66E25ECDB
:1004900003F0E5520AD70D0EE15C02E2E16AE55293
:0A04A000E16EE552E7CFD9FF12002C
:0604AA00060EF66E000EC6
:1004B000F76E000EF86E00010900F550656F090037
:1004C000F550666F03E1656701D03DD00900F55036
:1004D000606F0900F550616F0900F550626F090007
:1004E0000900F550E96E0900F550EA6E09000900AF
:1004F0000900F550636F0900F550646F09000900A9
:10050000F6CF67F0F7CF68F0F8CF69F060C0F6FF7C
:1005100061C0F7FF62C0F8FF0001635302E164535A
:1005200007E00900F550EE6E6307F8E26407F9D7BB
:1005300067C0F6FF68C0F7FF69C0F8FF00016507F4
:08054000000E665BBFD712003C
:08054800D9CFE6FFDACFE6FF90
:10055000E1CFD9FFE2CFDAFFFD0EDB50C96EC6AEA8
:1005600002D0FF0E24D00F0EC61408080FE00F0EA5
:10057000C6140B080BE0C6889EA6FED7C750040B16
:1005800003E1C750010B10E0000E11D00F0EC6148E
:10059000080804E00F0EC6140B0809E1C7B0FED727
:1005A00057EC03F0C5AC02D0FE0E01D0000EE552B0
:0A05B000E5CFDAFFE7CFD9FF120014
:0605BA0009C013F008C0A7
:1005C00012F008500D02F4CF07F0F3CF06F00950F7
:1005D0000E02F4CF09F0F3CF08F00D02F350072616
:1005E000F4500822E86A092212500E02F35007263E
:1005F000F4500822E86A09220EAE03EF03F012500D
:10060000085E1350095A13AE000C0D50085E0E50D0
:04061000095A000C77
:0C061400D9CFE6FFDACFE6FFE1CFD9FF37
:10062000E2CFDAFF3F0EC716C66AC56AFD0EDB5081
:10063000C612FC0EDB50C71294869488C68AE55217
:0A064000E5CFDAFFE7CFD9FF120083
:06064A00FF0EE350196EE3
:10065000EF0E01D0F30EE76EE72E2CEF03F00C0E39
:10066000186EE76AE72E32EF03F0182E31EF03F031
:08067000192E2AEF03F012001D
:080678001CEE00F02CEE00F076
:10068000F86A019C55EC02F065EC03F02EEC01F0E9
:04069000FBD7120082
:0C0694000F0EC614080804E00F0EC61478
:0E06A0000B0801E1C586C7A0FED7C9501200A5
:0206AE001F0E1D
:0C06B000C514FDE1C750040BFAE1120074
:0406BC0000EE00F05C
:0A06C0000D0EEE6AEA62FDD712008B
:0206CA0012001C
:00000001FF
