:020000040000FA
:0600000084EF01F0120084
:020006000000F8
:080008000B0EE66E040EE66E1D
:10001000910EE66E0FEC01F0E552E552E552870EC7
:10002000E66E5DEC01F0E552320EE66E92EC01F008
:10003000E5521200D9CFE6FFE1CFD9FFB5EC01F0D0
:10004000ADEC01F0000901E0FBD79DEC01F0F3CF2E
:1000500000F0F4CF01F0FD0EDBCFE9FFFE0EDBCFA9
:10006000EAFF00C0EEFF01C0EDFF010EE66E74EC8A
:1000700001F0E552E552E7CFD9FF1200B2EF01F0EF
:10008000D9CFE6FFE1CFD9FF020EE1266C0ED36E89
:100090008A6A936AB9DF3F0E8A6E320EE66E46ECCC
:1000A00001F0E5528A6AD9CFE6FFDACFE6FFC2DF78
:1000B000E552E552DECF00F0DDCF01F0D8900150DF
:1000C00004E68F0E005C000E015802E28A6A4DD0F1
:1000D000DECF00F0DDCF01F0D890015004E6000E35
:1000E000005C010E015803E2010E8A6E3ED0DECFA5
:1000F00000F0DDCF01F0D890015004E6800E005CE6
:10010000010E015803E2030E8A6E2FD0DECF00F0FD
:10011000DDCF01F0D890015004E6000E005C020E25
:10012000015803E2070E8A6E20D0DECF00F0DDCF4B
:1001300001F0D890015004E6800E005C020E0158D8
:1001400003E20F0E8A6E11D0DECF00F0DDCF01F09A
:10015000D890015004E6000E005C030E015803E243
:100160001F0E8A6E02D03F0E8A6E9DD7020EE15C92
:1001700002E2E16AE552E16EE552E7CFD9FF1200F3
:10018000060EF66E000EF76E000EF86E0001090006
:10019000F550656F0900F550666F03E1656701D0A2
:1001A0003DD00900F550606F0900F550616F0900FE
:1001B000F550626F09000900F550E96E0900F5502D
:1001C000EA6E090009000900F550636F0900F55057
:1001D000646F09000900F6CF67F0F7CF68F0F8CF39
:1001E00069F060C0F6FF61C0F7FF62C0F8FF000170
:1001F000635302E1645307E00900F550EE6E6307B4
:10020000F8E26407F9D767C0F6FF68C0F7FF69C076
:0E021000F8FF00016507000E665BBFD7120005
:02021E00D9CF36
:10022000E6FFDACFE6FFE1CFD9FFE2CFDAFFC26A1D
:10023000C06AFC0EDB407F0B3C0BC26EFB0EDBCFBB
:10024000E6FFFC0EDB38F00B300BE552E710C16E19
:10025000FD0EDB50040DF350380B016EFD0EDB3844
:100260000F0B070B006EFD0EDB50800B0010011012
:10027000C06EFC0EDBAE03D09E9C9D8CF28CC280C7
:0C028000E552E5CFDAFFE7CFD9FF12000E
:04028C00FF0EE3502E
:10029000076EEF0E01D0F30EE76EE72E4DEF01F083
:1002A0000C0E066EE76AE72E53EF01F0062E52EFB2
:0A02B00001F0072E4BEF01F01200E1
:0602BA00D9CFE6FFDACF08
:1002C000E6FFE1CFD9FFE2CFDAFFC30EC214006E22
:1002D000FD0EDB407F0B3C0B0010C26EE552E5CFFC
:0802E000DAFFE7CFD9FF12009D
:0802E800FF0EE350076E480E03
:1002F00001D04C0EE76EE72EFED7E76AE72EFED759
:08030000072EF7D700001200E0
:080308001CEE00F02CEE00F0E9
:10031000F86A059CC0EC00F0B7EC01F040EC00F08E
:04032000FBD71200F5
:0C032400FF0EE350E84E1200000000D075
:0A03300000D000D0E82EFAD712002A
:06033A00C450036E026ACC
:0C034000C3500210F36E03C0F4FF120063
:04034C0000EE00F0CF
:0A0350000D0EEE6AEA62FDD71200FE
:06035A00C250020B01E09D
:04036000010E120078
:06036400C2909D9C1200F6
:04036A00C282120039
:02036E0012007B
:00000001FF
