:020000040000FA
:060000006BEF01F012009D
:020006000000F8
:080008000B0EE66E040EE66E1D
:10001000910EE66EE6EC00F0E552E552E552870EF1
:10002000E66E34EC01F0E552320EE66E79EC01F04A
:10003000E5521200D9CFE6FFE1CFD9FF95EC01F0F0
:100040008DEC01F00009FCE184EC01F0F3CF00F04D
:10005000F4CF01F0FD0EDBCFE9FFFE0EDBCFEAFFB0
:10006000F3CFEEFF01C0EDFF010EE66E4BEC01F0A9
:10007000E552E552E7CFD9FF120092EF01F0D9CF58
:10008000E6FFE1CFD9FF020EE1266C0ED36E8A6A3D
:10009000936ABADF3F0E8A6E320EE66E1DEC01F0F7
:1000A000E5528A6AD9CFE6FFDACFE6FFC3DFE55231
:1000B000E55236D804E68F0E005C000E0158F1E3DD
:1000C0002FD804E6000E005C010E015802E2010E7A
:1000D00025D026D804E6800E005C010E015802E20D
:1000E000030E1CD01DD804E6000E005C020E015861
:1000F00002E2070E13D014D804E6800E005C020E54
:10010000015802E20F0E0AD00BD804E6000E005C84
:10011000030E015802E21F0E01D03F0E8A6EC2D7B5
:0E012000DECF00F0DDCF01F0D89001501200CC
:02012E00060EBB
:10013000F66E000EF76E000EF86E00010900F55025
:10014000656F0900F550666F03E1656701D03DD02A
:100150000900F550606F0900F550616F0900F55016
:10016000626F09000900F550E96E0900F550EA6E6A
:10017000090009000900F550636F0900F550646F2C
:1001800009000900F6CF67F0F7CF68F0F8CF69F003
:1001900060C0F6FF61C0F7FF62C0F8FF0001635363
:1001A00002E1645307E00900F550EE6E6307F8E2E0
:1001B0006407F9D767C0F6FF68C0F7FF69C0F8FFAA
:0C01C00000016507000E665BBFD712004F
:0401CC00D9CFE6FFA2
:1001D000DACFE6FFE1CFD9FFE2CFDAFFC26AC06A29
:1001E000FC0EDB407F0B3C0BC26EFC0EDB38F00BD1
:1001F000300B006EFB0EDB500F0B0010C16EFD0EBE
:10020000DB50040DF350380B016EFD0EDB380F0B85
:10021000070B006EFD0EDB50800B00100110C06E4E
:10022000FC0EDBAE03D09E9C9D8CF28CC280E5520E
:0A023000E5CFDAFFE7CFD9FF120097
:06023A00FF0EE350076E09
:10024000EF0E01D0F30EE76EE72E24EF01F00C0E57
:10025000066EE76AE72E2AEF01F0062E29EF01F07D
:08026000072E22EF01F012004D
:08026800D9CFE6FFDACFE6FF73
:10027000E1CFD9FFE2CFDAFFC30EC214006EFD0E4C
:10028000DB407F0B3C0B0010C26EE552E5CFDAFF7E
:06029000E7CFD9FF1200C8
:0A029600FF0EE350076E480E01D082
:1002A0004C0EE76EE72EFED7E76AE72EFED7072E45
:0602B000F7D70000120068
:0A02B600000EF36E00EE00F00D0ED6
:1002C00001D81200EA6002D0EE6AFCD7F350E96070
:0602D0001200EE6AFCD7EB
:0A02D6001CEE00F02CEE00F0F86AB8
:1002E000059C97EC00F097EC01F03FEC00F0FBD799
:0202F0001200FA
:0E02F200FF0EE350E84E1200000000D000D0D6
:0803000000D0E82EFAD712002C
:08030800C450036E026AC350E9
:0A0310000210F36E03C0F4FF1200A8
:06031A00C250020B01E0DD
:04032000010E1200B8
:06032400C2909D9C120036
:04032A00C282120079
:02032E001200BB
:00000001FF
