:0400000069EF00F0B4
:10000800FACFC0F0FBCFC1F0E9CFC2F001ED0BF0A1
:10001800D8CF1FF0E8CF20F0E0CF21F0FACF22F0C0
:10002800FBCF23F0E9CF24F0EACF25F0E1CF26F08B
:10003800E2CF27F0D9CF28F0DACF29F0F3CF2AF092
:10004800F4CF2BF0F6CF2CF0F7CF2DF0F8CF2EF021
:10005800F5CF2FF09EA001D001D004D09E9016ECD1
:100068000DF000D09EAC01D001D004D09E9C07ECCE
:100078000FF000D09EAA01D001D004D09E9AA6EC21
:1000880009F000D02FC0F5FF2EC0F8FF2DC0F7FFF4
:100098002CC0F6FF2BC0F4FF2AC0F3FF29C0DAFFFB
:1000A80028C0D9FF27C0E2FF26C0E1FF25C0EAFF2C
:1000B80024C0E9FF23C0FBFF22C0FAFF21C0E0FFF4
:1000C80020C0E8FF1FC0D8FF1000D1EF0EF00001DC
:1000D800B56F000E00010001BF6F0001B5510001AE
:1000E800B56F000E00010001BA6F0001B5510001A3
:1000F800B56F000E00010001BE6F0001B55100018F
:10010800B56F000E00010001BD6F0001B55100017F
:10011800B56F000E00010001BB6F0001B551C6AC00
:1001280001D001D02AD0C69C000120EE0CF00001BD
:100138006051D92600016151DA22050EDF6E0001F7
:10014800B56F010E00010001BB6F0001B551000140
:1001580020EE0EF000016051D92600016151DA222B
:10016800DF2A000120EE0DF000016051D9260001C0
:100178006151DA22040EDF6E00D0C7A001D001D091
:100188000BD0C9CFBCF00001B56F010E0001000112
:10019800BF6F0001B55100D000010001BB6701D05D
:1001A80001D051D239D238D2C7A601D001D04BD212
:1001B800BFC09BF00001D5EC08F0000120EE0CF068
:1001C80000016051D92600016151DA22080EDF6270
:1001D80001D001D038D20001B56F000E0001000136
:1001E800BF6F0001B5510001B56F010E000100019C
:1001F800BD6F0001B55127D226D225D2C7A801D09C
:1002080001D040D0000120EE0BF000016051D9264A
:1002180000016151DA22DF2A00010001BF51D8B480
:1002280001D001D023D0C7BA01D001D009D0000134
:10023800B56F010E00010001BE6F0001B55116D067
:10024800000120EE0EF000016051D9260001615135
:10025800DA22DF2A000120EE0DF000016051D926D4
:1002680000016151DA22060EDF6E00D0000120EE97
:100278000CF000016051D92600016151DA22050E07
:10028800DF6EE1D100010001BF51D8B401D001D027
:10029800DAD1000120EE0BF000016051D9260001EF
:1002A8006151DA22DF2AC7BA01D001D02DD0C7B4F4
:1002B80001D001D00CD0000120EE0CF000016051FB
:1002C800D92600016151DA22070EDF6EBCD1000188
:1002D80020EE0CF000016051D92600016151DA22AC
:1002E800080EDF6E0001B56F010E00010001BD6F41
:1002F8000001B5510001B56F000E00010001BF6F8C
:100308000001B551A0D19FD1000120EE0EF00001EF
:100318006051D92600016151DA22DF2A000120EE5E
:100328000CF000016051D92600016151DA22050E56
:10033800DF6E000120EE0DF000016051D9260001AA
:100348006151DA22060EDF6E7ED17DD17CD17BD160
:10035800000120EE1AF000016051D9260001615118
:10036800DA22DF500001B56F000120EE19F000011C
:100378006051D92600016151DA22DF500001B55DD4
:10038800D8B001D001D032D0000120EE1AF000011F
:100398006051D92600016151DA22DF500001B56FA2
:1003A8000001B551010D0F0EF326000EF422F35093
:1003B800000100016025D96EF4500001000161219F
:1003C800DA6EDF50C96E000120EE1AF000016051AC
:1003D800D92600016151DA22DF2A0001B56F010E2A
:1003E80000010001BA6F0001B5512DD1000120EEC6
:1003F8000CF000016051D92600016151DA22050E86
:10040800DF6E21D120D1C7A801D001D07BD0000157
:1004180020EE0BF000016051D92600016151DA226B
:10042800DF2A00010001BF51D8B401D001D055D056
:10043800C7AA01D001D02FD0000120EE0AF0000198
:100448006051D92600016151DA22DF500001B56FF1
:100458000001B551010DF350000100016025D96E6E
:10046800F450000100016121DA6E0001BCC0DFFF19
:10047800000120EE0AF000016051D9260001615107
:10048800DA22DF2A0001B56F010E00010001BE6FFC
:100498000001B5512BD0000120EE0EF00001605193
:1004A800D92600016151DA22DF2A000120EE0DF081
:1004B80000016051D92600016151DA22060EDF6E73
:1004C800000120EE0CF000016051D92600016151B5
:1004D800DA22050EDF6E0AD009D00001B56F010ED1
:1004E80000010001BE6F0001B55100D0000120EEEF
:1004F8000CF000016051D92600016151DA22050E85
:10050800DF6EA1D000010001BF51D8B401D001D0E5
:100518009AD0000120EE0BF000016051D9260001AD
:100528006151DA22DF2AC7AA01D001D027D0000101
:1005380020EE0AF000016051D92600016151DA224B
:10054800DF500001B56F0001B551010DF3500001F6
:1005580000016025D96EF450000100016121DA6EB6
:100568000001BCC0DFFF000120EE0AF0000160516D
:10057800D92600016151DA22DF2A65D0C7A401D04B
:1005880001D024D0000120EE0CF000016051D926E2
:1005980000016151DA22080EDF6E0001B56F010E0D
:1005A80000010001BE6F0001B5510001B56F010ED9
:1005B80000010001BD6F0001B5510001B56F000ECB
:1005C80000010001BF6F0001B5513DD0000120EED0
:1005D8000EF000016051D92600016151DA22DF2AAC
:1005E800000120EE0DF000016051D9260001615193
:1005F800DA22060EDF6E000120EE0CF000016051D9
:10060800D92600016151DA22050EDF6E1CD01BD0FD
:100618001AD019D018D017D0000120EE0CF0000124
:100628006051D92600016151DA22DF50050AD8B499
:10063800BBD5030AD8B4E2D5010AD8B4E4D60F0A68
:10064800D8B486D600D000010001BF6701D001D020
:1006580007D000010001BA51D8B401D001D007D0A9
:10066800C6B801D001D003D0C68801D000D000019F
:1006780020EE0AF000016051D92600016151DA220A
:10068800080EDF6401D001D027D000010001BE6749
:1006980001D001D021D0000120EE0CF00001605102
:1006A800D92600016151DA22050EDF6E000120EE25
:1006B8000EF000016051D92600016151DA22DF2ACB
:1006C800000120EE0DF000016051D92600016151B2
:1006D800DA22070EDF6E00D000010001BE51D8B447
:1006E80001D001D050D0000120EE0BF00001605184
:1006F800D92600016151DA22000110EE0AF000014A
:100708006051E12600016151E222E7500001B56F16
:100718000001B551010DF350000100016025E16EA3
:10072800F450000100016121E26EDFCFE7FF000114
:1007380020EE0AF000016051D92600016151DA2249
:10074800DF500001B56F0001B52900010001B16F4C
:100758000001B66F280E00010001B26F0001B6510A
:1007680060C0B3F061C0B4F00001A6EC0EF0000167
:1007780020EE0AF000016051D92600016151DA2209
:10078800000EDF6E5ED0000120EE0EF00001605119
:10079800D92600016151DA22DF50D8B401D001D046
:1007A80050D0000120EE0EF000016051D926000162
:1007B8006151DA22DF5000010001B76F000120EE1D
:1007C8000DF000016051D92600016151DA22DF5095
:1007D80000010001B86F000120EE0BF0000160512C
:1007E800D92600016151DA22DF5000010001B96FFA
:1007F8000001B56F030E00010001B16F0001B55192
:100808000001B66F290E00010001B26F0001B65158
:100818000001000E00010001B46F0001B70E0001D5
:10082800B36F0001A6EC0EF0000120EE0EF00001FF
:100838006051D92600016151DA22000EDF6E01D025
:1008480000D000010001BD51D8B401D001D020D0A2
:100858000001B56F000E00010001B16F0001B55134
:100868000001B66F2A0E00010001B26F0001B651F7
:1008780060C0B3F061C0B4F00001A6EC0EF0000156
:10088800B56F000E00010001BD6F0001B55100D029
:100898001200FC0ED36E9B8C3EEC0DF00101010E94
:1008A80001010101A36F0101D40E0101A26F010131
:1008B80024EC0FF00101010E01010101A36F0101F8
:1008C800DB0E0101A26F010105EC0CF00101010E24
:1008D80001010101A36F0101D00E0101A26F010105
:1008E80085EC0FF0CCEC0BF0000E936E000E8A6EC8
:1008F8000101BF6F8F0E01010101A26F0101BF51FC
:100908000101BCEC0EF00101BF6FB50E0101010140
:10091800A26F0101BF510101D1EC0DF09F909F9A88
:100928009F869F9C0101BF6F9E0E01010101A26F6E
:100938000101BF510101E3EC0EF09D869D809D8C65
:100948000101BF6F6C0E01010101A26F0101BF51CE
:10095800000E01010101A46F190E0101A36F01012D
:1009680001EC0AF078EC0FF03F0E8A6E000E8A6EEA
:1009780000D0000E8A6E65EC08F00101BF6F0A0E08
:1009880001010101BA6F0101BF510101010E01010D
:100998000101BC6F0101D90E0101BB6F0101010EFC
:1009A80001010101BE6F0101C50E0101BD6F010109
:1009B8005EEC0EF001010101DA6F01010101DAAF0D
:1009C80001D001D08AD09AD099D098D086D0010190
:1009D800010E01010101A36F0101C20E0101A26F05
:1009E80001010101D9C1A4F101010101A56B0101B6
:1009F8000101DA5101010101A66F0101A76B010193
:100A0800A6BFA7070101010E01010101A96F01019C
:100A1800C50E0101A86F010173EC0FF06FD0C5C1BD
:100A2800C4F16CD03CD00101BF6F030E010101017C
:100A3800DA6F0101BF51D2C1C5F1D3C1C6F10101BD
:100A4800BF6FAA0E01010101C76F0101BF5134D068
:100A58000101BF6F030E01010101DA6F0101BF51EE
:100A6800D3C1C5F1D2C1C6F10101BF6FA80E010102
:100A78000101C76F0101BF511FD00101BF6F010EF6
:100A880001010101DA6F0101BF510101BF6FA30E1E
:100A980001010101C56F0101BF510ED00DD0010147
:100AA8000101C451A80AD8B4D3D7010AD8B4E5D7EC
:100AB800030AD8B4B8D700D0DAC1A2F10101010EF7
:100AC80001010101A46F0101C50E0101A36F01011C
:100AD80059EC07F013D012D011D001010101D951FE
:100AE8000A0AD8B474D7220AD8B499D7010AD8B454
:100AF80096D7030AD8B4D3D701D000D00101BF6F6D
:100B08000A0E01010101BA6F0101BF510101010E75
:100B180001010101BC6F0101D90E0101BB6F010187
:100B2800010E01010101BE6F0101C50E0101BD6F7A
:100B3800010176EC0EF001010101DA6F01010101FA
:100B4800DAAF01D001D05CD014D713D712D758D060
:100B58000101010E01010101A76F0101D00E010180
:100B6800A66F01010101D9C1A8F101010101A96B19
:100B780001010101DA5101010101AA6F0101AB6B09
:100B88000101AABFAB070101010E01010101AD6F0F
:100B98000101C50E0101AC6F0101B0EC0DF0E9D601
:100BA80000D00101010E01010101A36F0101C00E76
:100BB8000101A26F01010101D9C1A4F101010101E3
:100BC800A56B01010101DA5101010101A66F0101C3
:100BD800A76B0101A6BFA7070101010E01010101D1
:100BE800A96F0101C50E0101A86F010165EC0DF0A7
:100BF800C0D6C5C1D2F1C6C1D3F1BBD6BAD6B9D613
:100C080001010101D9510B0AD8B4A2D7150AD8B4E9
:100C1800C8D7010AD8B4C5D72D0AD8B4EAD7A9D6F7
:100C2800A8D6A7D6A6D669EF00F0010120EE35F0C8
:100C38000101AC51D9260101AD51DA22DF50010181
:100C48000101B56F01010101B5510D0DF35001010D
:100C58000101AC2501010101B86FF4500101010146
:100C6800AD210101B96F010EB8C1D9FFB9C1DAFFD1
:100C7800DF6201D001D075D0010120EE01F0010141
:100C8800B851D9260101B951DA22DF500101010119
:100C9800AE6101D001D003D0FD0E66D065D0010150
:100CA80020EE01F00101B851D9260101B951DA222B
:100CB800DF500101B36F0101B35101010101B66FAA
:100CC8000101B76BB1C1A2F1B2C1A3F1030E0101D9
:100CD8000101B8250101B36F000E01010101B9211D
:100CE8000101B46FB3C1A4F1B4C1A5F1B6C1A6F1B5
:100CF800B7C1A7F10101C0EC0CF0010120EE35F0FD
:100D08000101AC51D9260101AD51DA22010110EEE1
:100D180035F00101AC51E1260101AD51E222E75065
:100D28000101B36F0101B329030BDF6E010120EE4E
:100D380002F00101B851D9260101B951DA22AFC137
:100D4800E1FFB0C1E2FFDFCFE7FFB8C1D9FFB9C10A
:100D5800DAFF000EDF6E01010101B65105D004D0A3
:100D680003D0FC0E01D000D01200000120EE35F0B7
:100D78000001A551D9260001A651DA22DF50000151
:100D88000001AE6F00010001AE510D0DF3500001DE
:100D98000001A52500010001B16FF4500001000118
:100DA800A6210001B26F010EB1C0D9FFB2C0DAFFAF
:100DB800DF6201D001D075D0000120EE01F0000102
:100DC800B151D9260001B251DA22DF5000010001E9
:100DD800A76101D001D003D0FD0E66D065D0000117
:100DE80020EE01F00001B151D9260001B251DA22FA
:100DF800DF500001AC6F0001AC5100010001AF6F82
:100E08000001B06BAAC09BF0ABC09CF0030E0001C0
:100E18000001B1250001AC6F000E00010001B221F4
:100E28000001AD6FACC09DF0ADC09EF0AFC09FF0AB
:100E3800B0C0A0F00001EBEC0CF0000120EE35F0A2
:100E48000001A551D9260001A651DA22000110EEB1
:100E580035F00001A551E1260001A651E222E75034
:100E68000001AC6F0001AC29030BDF6E000120EE1E
:100E780002F00001B151D9260001B251DA22A8C00E
:100E8800E1FFA9C0E2FFDFCFE7FFB1C0D9FFB2C0E1
:100E9800DAFF000EDF6E00010001AF5105D004D06B
:100EA80003D0FC0E01D000D01200000120EE19F092
:100EB80000016051D92600016151DA22000EDF6E6F
:100EC80043D0000120EE19F000016051D92600013D
:100ED8006151DA22DF500101A56F0101A551010D11
:100EE800F35001010101A325D96EF450010101015C
:100EF800A421DA6E000110EE19F000016051E1261C
:100F080000016151E222E7500101A66F0101A651DB
:100F1800010D0F0EF326000EF422F350000100011C
:100F28006025E16EF450000100016121E26EDFCF1F
:100F3800E7FF000120EE19F000016051D9260001F9
:100F48006151DA22DF2A00D0000120EE19F00001F9
:100F58006051D92600016151DA22DF500101A56FE5
:100F680001010101A2510101A55DD8A001D001D064
:100F7800A8D700D0000120EE19F000016051D92651
:100F880000016151DA220101A2C1DFFF000120EE58
:100F98001AF000016051D92600016151DA22010ED0
:100FA800DF6E000120EE0FF000016051D92600012C
:100FB8006151DA22DF50C96EC688120000010001B3
:100FC800A7C0ACF000010001AD6B000120EE34F0C9
:100FD8000001A551D9260001A651DA22DF500001EF
:100FE8000001AE6F00010001AE510D0DF35000017C
:100FF8000001A52500010001AF6FF45000010001B8
:10100800A6210001B06FAFC0D9FFB0C0DAFFDF5032
:10101800D8B401D001D003D0FF0E52D051D0000176
:1010280020EE01F00001AF51D9260001B051DA22BB
:101038000001A7C0DFFF000120EE02F00001AF5160
:10104800D9260001B051DA220001A8C0DFFF030E43
:1010580000010001AF25000100019B6F000E000197
:101068000001B02100019C6FA9C09DF0AAC09EF0AC
:10107800ACC09FF0ADC0A0F00001EBEC0CF000019B
:1010880020EE34F00001A551D9260001A651DA223C
:10109800000110EE34F00001A551E1260001A6512F
:1010A800E222E7500001AB6F0001AB29030BDF6EB2
:1010B800AFC0D9FFB0C0DAFF010EDF6E010E00D05D
:1010C8001200010194EC0CF001010101A75101018A
:1010D800A611D8A401D001D002D062D061D08A86EE
:1010E8000101A86F010E00010001626F0101A85102
:1010F80000D00101010E01010101A36F01016C0E75
:101108000101A26F0101F0EC0DF00009D8B401D083
:1011180001D00BD00101A86F000E00010001626F21
:101128000101A8518A963CD03BD00001000E010174
:101138000101A36F0001630E0101A26F0101F0EC30
:101148000DF00009D8B401D001D00BD00101A86F6F
:10115800000E00010001626F0101A8518A9620D09B
:101168001FD00101A86F0A0E01010101A26F010140
:10117800A85101013BEC0FF08AA601D002D0010E64
:1011880001D0000E0101A86F0101A847A847A84790
:101198008A500101A819F70BA8198A6EAAD7A9D7EE
:1011A8001200000120EE0BF000016051D926000169
:1011B8006151DA22010EDF6E000120EE0AF0000113
:1011C8006051D92600016151DA22000EDF6E00015C
:1011D80000019B51D8B401D001D043D0C7AA01D097
:1011E80001D021D0000120EE0CF000016051D92679
:1011F80000016151DA22050EDF6E000120EE0EF0CB
:1012080000016051D92600016151DA22DF2A00016C
:1012180020EE0DF000016051D92600016151DA225B
:10122800050EDF6E2AD0C7A401D001D00CD0000172
:1012380020EE0CF000016051D92600016151DA223C
:10124800080EDF6E1AD0000120EE0CF0000160518C
:10125800D92600016151DA22070EDF6E0ED00DD0BB
:101268000CD0000120EE0CF000016051D9260001DD
:101278006151DA22060EDF6E00D012008AA001D07A
:1012880002D0010E01D0000E0001B86F8A50000193
:10129800B819FE0BB8198A6E000E000100019C6F88
:1012A800000E00019B6F00016AEC0FF00001B86F9F
:1012B800020E00010001B36F0001B8510001000ED9
:1012C80000010001B56F0001BC0E0001B46F000100
:1012D800000E00010001B76F0001BE0E0001B66FDD
:1012E80000018EEC0EF000010001BA6F0001BB6B2B
:1012F8000001BABFBB0700010001BA51020ABB11C5
:10130800D8A401D001D01DD00001B86F020E000191
:101318000001B16F0001B8510001B96F0A0E000158
:101328000001B26F0001B9510001000E0001000177
:10133800B46F0001BE0E0001B36F0001A6EC0EF001
:1013480000D012009EAA01D001D041D020EE04F0B6
:101358003050D9263150DA22DF501B6E1B50010D58
:10136800F3503024D96EF4503120DA6E0CEC0EF0C4
:10137800DF6E20EE04F03050D9263150DA22DF2A11
:1013880020EE04F03050D9263150DA22040EDF6204
:1013980001D001D01CD020EE04F03050D9263150B5
:1013A800DA22DF50176E1B6E1F0E186E1B5030C0EE
:1013B80019F031C01AF0F5EC0EF020EE04F03050C0
:1013C800D9263150DA22000EDF6E01D000D032A6C5
:1013D80001D001D011D0AB98AB881B6E000E176EF0
:1013E8001B501C6E1E0E186E1C50000E1A6E000E3E
:1013F800196EF5EC0EF000D01200000EAC6E000E67
:10140800AB6E01010101A2A101D001D001D0AC88CD
:1014180001010101A2A301D001D002D0AC8CAB8C98
:1014280001010101A2A501D001D001D0AC8E0101BA
:101438000101A2A701D001D002D0AB8801D0AB8AAC
:1014480001010101A2A901D001D001D0AC849E986C
:1014580001010101A2AB01D001D001D0AB8601018D
:101468000101A2AD01D001D002D09D8A01D09D9A80
:101478009E9A01010101A2AF01D001D002D09D883E
:1014880001D09D98A3C1AFFF01010101A451B06E25
:10149800AC8AAB8E949C948EACA801D001D006D0B7
:1014A800ACBE01D001D002D0948C00D012000DC087
:1014B80012F0136A20EE34F00B50D9260C50DA22C1
:1014C800DF50146E14500D0DF3500B24156EF450AC
:1014D8000C20166E15C0D9FF16C0DAFFDF50D8B43D
:1014E80001D001D003D0FF0E3AD039D020EE01F060
:1014F8001550D9261650DA220DC0DFFF20EE02F073
:101508001550D9261650DA220EC0DFFF030E152417
:10151800016E000E1620026E0FC003F010C004F01A
:1015280012C005F013C006F08CEC0DF020EE34F07C
:101538000B50D9260C50DA2210EE34F00B50E1266D
:101548000C50E222E750116E1128030BDF6E15C014
:10155800D9FF16C0DAFF010EDF6E010E00D01200AF
:1015680000010001626701D001D002D045D044D00B
:10157800000165EC0CF0000100019E5100019D1175
:10158800D8B401D001D002D037D036D0000145EC14
:101598000FF0000100019C5100019B11D8A401D05B
:1015A80001D002D029D028D00101010E000100018C
:1015B8009C6F01016C0E00019B6F000128EC0EF07E
:1015C8000009D8B401D001D002D016D015D000013E
:1015D800000E000100019C6F0001630E00019B6F6B
:1015E800000128EC0EF00009D8B401D001D002D0D7
:1015F80003D002D080EC0FF012000600EACFC3F04F
:10160800E1CFC4F0E2CFC5F0D9CFC6F0DACFC7F04A
:10161800F3CFC8F0F4CFC9F0F6CFCAF0F7CFCBF0CC
:10162800F8CFCCF0F5CFCDF09EA601D001D004D0F4
:101638009E966BEC00F000D0F2A401D001D004D04B
:10164800F29442EC09F000D0B4EC0AF0CDC0F5FFFA
:10165800CCC0F8FFCBC0F7FFCAC0F6FFC9C0F4FF83
:10166800C8C0F3FFC7C0DAFFC6C0D9FFC5C0E2FFD4
:10167800C4C0E1FFC3C0EAFFC2C0E9FFC1C0FBFFAD
:10168800C0C0FAFF1100010120EE34F00101A2519F
:10169800D9260101A351DA22000EDF6E010120EEE6
:1016A80035F00101A251D9260101A351DA22000E19
:1016B800DF6E0101A46F000E01010101A56F010198
:1016C800A451030E01010101A56501D001D002D08A
:1016D8001CD01BD001010101A5510D0DF3500101D2
:1016E8000101A225D96EF45001010101A321DA6E8E
:1016F800000EDF6E01010101A52B030E010101019E
:10170800A56501D001D0E6D700D01200000EC26E48
:10171800000EC06E01010101D890A3313C0BC26ECE
:10172800A3C1A5F10101A53BF00EA517300E0101DB
:10173800A51701010101A4510F0B0101A511C16EEB
:10174800A2C1A5F10101D890A5370101D890A5370C
:10175800380E0101A517A2C1A6F10101A63B0F0E83
:10176800A617070E0101A61701010101A251800B5E
:101778000101A6110101A511C06E01010101A3AF6C
:1017880001D001D003D09E9C9D8CF28CC2801200A7
:101798000101A66F000E00010001626F0101A65150
:1017A8000001000E01010101A36F0001630E010198
:1017B800A26F010147EC0BF00101010E01010101CB
:1017C800A36F01016C0E0101A26F010147EC0BF040
:1017D8000101010E01010101A36F0101360E010192
:1017E800A26F010147EC0BF00101010E010101019B
:1017F800A36F0101000E0101A26F010147EC0BF07C
:101808001200A2C160F0A3C161F0000120EE0AF04D
:1018180000016051D92600016151DA22000EDF6E05
:10182800000120EE0BF000016051D9260001615142
:10183800DA22000EDF6E000120EE0CF0000160518C
:10184800D92600016151DA22050EDF6E000120EE73
:101858000EF000016051D92600016151DA22000E14
:10186800DF6E1200F2AC01D001D00AD0000E0101E7
:101878000101A56F000E0101A46F22D021D020D054
:10188800010131EC0FF001010101A3510101A21185
:10189800D8B401D001D00AD0000E01010101A56F12
:1018A800000E0101A46F0CD00BD00AD0000E01016C
:1018B8000101A56F010E0101A46F02D001D000D073
:1018C8001200F2AC01D001D00AD0000E00010001D4
:1018D8009E6F000E00019D6F22D021D020D0000104
:1018E80045EC0FF0000100019C5100019B11D8B498
:1018F80001D001D00AD0000E000100019E6F000E39
:1019080000019D6F0CD00BD00AD0000E0001000121
:101918009E6F010E00019D6F02D001D000D0120011
:10192800010136EC0CF001010101A5510101A411DE
:10193800D8A401D001D016D0010131EC0FF001017B
:101948000101A3510101A211D8A401D001D00AD0EC
:10195800000E01010101A76F010E0101A66F0BD056
:101968000AD009D0000E01010101A76F000E010184
:10197800A66F01D000D01200A4C1AAF1A5C1ABF195
:10198800A2C1A8F1A3C1A9F113D0AAC1D9FFABC1C3
:10199800DAFFA8C1E1FFA9C1E2FFDFCFE7FF01013C
:1019A8000101AA4BAB2B01010101A84BA92B00D0C7
:1019B80001010101A607D8A0A7070101A629D8B4EB
:1019C800A729D8A401D001D0E0D700D012009DC02B
:1019D800A3F09EC0A4F09BC0A1F09CC0A2F013D0BD
:1019E800A3C0D9FFA4C0DAFFA1C0E1FFA2C0E2FFF3
:1019F800DFCFE7FF00010001A34BA42B000100018A
:101A0800A14BA22B00D0000100019F07D8A0A0077E
:101A180000019F29D8B4A029D8A401D001D0E0D7CB
:101A280000D012008AA201D002D0010E01D0000E0F
:101A38001B6E1B468A501B18FD0B1B188A6E58EC30
:101A48000FF001C01DF002C01EF01B6E000E176ED5
:101A58001B501C6E0B0E186E1C50000E1A6E000EDA
:101A6800196EF5EC0EF0000E026E000E016E61ECC0
:101A78000FF012000101A76FD30E01010101A26F3F
:101A88000101A7510101A86F840E01010101A36F93
:101A98000101A8510101A96F0B0E01010101A46FF9
:101AA8000101A95101018AEC0BF00101A76F870E12
:101AB80001010101A26F0101A751010116EC0FF00C
:101AC800120001010101A4511E0AA511D8A401D0D8
:101AD80001D002D01CD01BD001010101A4511F0A62
:101AE800A511D8A401D001D012D001010101A6513D
:101AF80001010101A825D96E01010101A7510101C8
:101B08000101A921DA6E000EDF6E01D000D01200AB
:101B180003C009F004C00AF001C007F002C008F0D1
:101B28000FD009C0D9FF0AC0DAFF07C0E1FF08C01B
:101B3800E2FFDFCFE7FF094A0A2A074A082A00D04E
:101B48000506D8A006060528D8B40628D8A401D0CA
:101B580001D0E7D700D012000001000E01010101F9
:101B6800A56F0001990E0101A46F010144EC0EF06C
:101B7800010120EE01F00101AC51D9260101AD515E
:101B8800DA22000100019A51DF6EACC1D9FFADC164
:101B9800DAFF000199C0DFFF120001010101A25123
:101BA8007E0BCD6E01010101A2AD01D001D002D0A2
:101BB800CD8E02D0CD9E00D0000ECF6E000ECE6E20
:101BC8009E9001010101A2AF01D001D002D09D80F9
:101BD80001D09D90CD801200010120EE35F0010169
:101BE800A251D9260101A351DA22DF500101A46FC5
:101BF8000101A4510D0DF35001010101A225D96E77
:101C0800F45001010101A321DA6EDF5000D0120067
:101C1800F20E3216ABAC01D001D007D03290ABA097
:101C280001D001D002D0328000D0ABA401D001D0C5
:101C380001D03284ABA201D001D001D03286AECF20
:101C480001F0015000D01200000120EE35F0000133
:101C58009B51D92600019C51DA22DF5000019D6F6B
:101C680000019D510D0DF350000100019B25D96E17
:101C7800F450000100019C21DA6EDF5000D0120000
:101C880083EC0FF001D000D07CEC0FF00009D8A451
:101C980001D001D0F9D700D001014FEC0FF0A4C159
:101CA800D9FFA5C1DAFF0101A2C1DEFF0101A3C16D
:101CB800DDFF12000101010E01010101AD6F0101FB
:101CC8006C0E0101AC6FBAC1AEF1BBC1AFF1BCC1C2
:101CD800B0F1BDC1B1F1BEC1B2F1010119EC06F01C
:101CE80000D012000001000E01010101AD6F0001DA
:101CF800630E0101AC6FBAC1AEF1BBC1AFF1BCC19B
:101D0800B0F1BDC1B1F1BEC1B2F1010119EC06F0EB
:101D180000D012000101010E00010001A66F0101AF
:101D2800000E0001A56FB3C0A7F0B4C0A8F0B5C0FD
:101D3800A9F0B6C0AAF0B7C0ABF00001B9EC06F044
:101D480000D012000101010E00010001A66F01017F
:101D58006C0E0001A56FB1C0A7F0B2C0A8F0B3C067
:101D6800A9F0B4C0AAF00001E2EC07F000D012001C
:101D780001010101A2517F0BD56E000ED76E000E36
:101D8800D66EF29401010101A2AF01D001D002D0B8
:101D9800F28A01D0F29AD58E120001EE00F0A20E5E
:101DA800EE6AE806FDE100EE60F03B0EEE6AE8063A
:101DB800FDE1326A316A306A00014DEF04F0948621
:101DC8009488A2C1C8FF000EC76E000EC66E000E32
:101DD800C56E0E0EC612C78E94869488C580C68AB4
:101DE80012000001000E0C6E0001630E0B6E17C08E
:101DF8000DF018C00EF019C00FF01AC010F05BEC0F
:101E08000AF000D012001B6E000E176E1B501C6EDD
:101E1800320E186E1C50000E1A6E000E196EF5EC7C
:101E28000EF01200C2CFA3F1C30E0101A3170101E6
:101E38000101D890A2313C0B0101A311C26E12001E
:101E4800A2C130F0A3C131F020EE04F03050D92601
:101E58003150DA22000EDF6E1200000EF2AE010ED3
:101E680001010101A26F0101A36B00D01200FA0E5B
:101E780000F0E82EFDD701010101A22FF8D700D00C
:101E88001200000EF2AE010E000100019B6F00016E
:101E98009C6B00D01200C45001010101A36FC35014
:101EA8000101A26F00D01200CECF03F0CFCF04F013
:101EB80003C001F004C002F0120001C003F002C028
:101EC80004F004C0CFFF03C0CEFF12009BC09DF0FA
:101ED8009CC09EF09EC0D7FF9DC0D6FF1200A8C12F
:101EE800AAF1A9C1ABF11200D08EF28EF28C1200C9
:101EF800C230010B00D01200D38E03001200C28240
:041F080012001200B1
:020000040020DA
:08000000FFFFFFFFFFFFFFFF00
:020000040030CA
:0E000000FF08191EFF8080FF0FC00FE00F40A9
:00000001FF
