:1000000088EF0EF0120000007EEF09F01200C250DF
:10001000020B01E0010E1200DBEF09F01200D9CF54
:10002000E6FFE1CFD9FF82E994869488C76AC66A61
:10003000C56AC686C78E0A0EC86E94869488C68A1C
:1000400041E9E7CFD9FF1200D9CFE6FFE1CFD9FFD1
:1000500084E945C0E9FF46C0EAFF1A0EE926000E12
:10006000EA22EF6A45C0E9FF46C0EAFF1A0EEB50EC
:10007000D880025432E245C0E9FF46C0EAFF1A0EBA
:10008000EB500024E96E000E0120EA6EEF50E66EA0
:1000900045C0E9FF46C0EAFF100EE926000EEA223D
:1000A000E9CF49F0EACF4AF045C0E9FF46C0EAFF90
:1000B0001A0EEB500001EA6A4925E96E4A51EA221C
:1000C000E552E750EF6E45C0E9FF46C0EAFF1A0E61
:1000D000E926000EEA22EF2AC5D745C0E9FF46C04F
:1000E000EAFF1A0EE926000EEA2202EBEFFF45C0F6
:1000F000E9FF46C0EAFF1B0EE926000EEA22010EC8
:10010000EF6E45C0E9FF46C0EAFF0D0EE926000E7E
:10011000EA220B0EEF6E45C0E9FF46C0EAFF100E63
:10012000EB50E66E45C0E9FF46C0EAFF1C0EE9262B
:10013000000EEA22E552E750EF6EC580C5B0FED74B
:10014000000E00D041E9E7CFD9FF1200D9CFE6FF7A
:10015000E1CFD9FF83E944E801EB47F00001486BA8
:10016000036A046A0A0ED89004BE03D0035C000E32
:10017000045814E245C0E9FF46C0EAFFE9CF49F060
:10018000EACF4AF0000103504925E96E04504A21A4
:10019000EA6EEF6A032A000E0422E4D745C0E9FFA5
:1001A00046C0EAFF1C0EE926000EEA2200EBEFFF34
:1001B00045C0E9FF46C0EAFF0D0EE926000EEA221F
:1001C0000C0EEF6EA1EC0EF0C580000E00D045E9DC
:1001D000E7CFD9FF1200D9CFE6FFE1CFD9FF84E9FD
:1001E00045C0E9FF46C0EAFF1A0EE926000EEA22E2
:1001F000EF6A45C0E9FF46C0EAFF1A0EEB50D8800F
:10020000025432E245C0E9FF46C0EAFF1A0EEB5045
:100210000024E96E000E0120EA6EEF50E66E45C044
:10022000E9FF46C0EAFF100EE926000EEA22E9CFF8
:1002300049F0EACF4AF045C0E9FF46C0EAFF1A0E8E
:10024000EB500001EA6A4925E96E4A51EA22E5527B
:10025000E750EF6E45C0E9FF46C0EAFF1A0EE926F7
:10026000000EEA22EF2AC5D745C0E9FF46C0EAFFE3
:100270001A0EE926000EEA2202EBEFFF45C0E9FF65
:1002800046C0EAFF1B0EE926000EEA22010EEF6EC1
:1002900045C0E9FF46C0EAFF100EEB50C96EC688A4
:1002A00041E9E7CFD9FF1200D9CFE6FFE1CFD9FF6F
:1002B00082E945C0E9FF46C0EAFF0C0EE926000EC0
:1002C000EA22010EEF6E45C0E9FF46C0EAFF0B0EC1
:1002D000E926000EEA22EF6A005038E0C7AA1ED0D5
:1002E00045C0E9FF46C0EAFF0D0EE926000EEA22EE
:1002F000050EEF6E45C0E9FF46C0EAFF0F0EE92686
:10030000000EEA22EF2A45C0E9FF46C0EAFF0E0EC2
:10031000E926000EEA22050EEF6E17D0C7A40BD017
:1003200045C0E9FF46C0EAFF0D0EE926000EEA22AD
:10033000080EEF6E0AD045C0E9FF46C0EAFF0D0E79
:10034000E926000EEA22070EEF6E0AD045C0E9FF4B
:1003500046C0EAFF0D0EE926000EEA22060EEF6EF9
:1003600041E9E7CFD9FF12000F0EC6140E0802E1D3
:100370004BD901D001D81200D9CFE6FFE1CFD9FF88
:1003800081E948E8036A046A056A066A076A086A36
:10039000C7A004D0C950016E010E036E085001E0E1
:1003A0002FD145C0E9FF46C0EAFF0D0EEB50040A0D
:1003B00001E11AD10E0A01E102D1070A01E1B9D027
:1003C0000B0A01E1A8D0160A01E190D01F0A01E151
:1003D00080D0030A6AE0050A18E0020A04E00E0A67
:1003E00001E00ED10DD145C0E9FF46C0EAFF0D0E78
:1003F000E926000EEA22090EEF6E45C0E9FF46C06D
:10040000EAFF1C0EEB50C96EFBD045C0E9FF46C0A9
:10041000EAFF0C0EE926000EEA22EF2A45C0E9FFAA
:1004200046C0EAFF1B0EEB500001496F45C0E9FFD3
:1004300046C0EAFF1A0EEB50495D25E245C0E9FFD0
:1004400046C0EAFF100EE926000EEA22E9CF49F085
:10045000EACF4AF045C0E9FF46C0EAFF1B0EEB5069
:10046000EA6A4925E96E4A51EA22EF50C96EC5BCD5
:1004700009D045C0E9FF46C0EAFF1B0EE926000E81
:10048000EA22EF2A11D0010E046E45C0E9FF46C0F2
:10049000EAFF0D0EE926000EEA22050EEF6E010EB0
:1004A000076EC584C5B4FED7ABD045C0E9FF46C0D2
:1004B000EAFF0D0EE926000EEA220F0EEF6EC9507C
:1004C000026E45C0E9FF46C0EAFF1C0EEB50C96E44
:1004D00097D045C0E9FF46C0EAFF0D0EE926000EA1
:1004E000EA22060EEF6EAA0EC96E8AD045C0E9FF59
:1004F00046C0EAFF0D0EE926000EEA220A0EEF6E54
:10050000C950026E45C0E9FF46C0EAFF1C0EEB5021
:100510000109C96E75D045C0E9FF46C0EAFF0D0E5E
:10052000E926000EEA22100EEF6EA1EC0EF0C58255
:1005300067D0035043E045C0E9FF46C0EAFFE9CF7A
:1005400049F0EACF4AF0000148510001EA6A492522
:10055000E96E4A51EA2201EBEFFF00014705485DD1
:100560000EE245C0E9FF46C0EAFF0D0EE926000E87
:10057000EA220A0EEF6E482BC59AC5881FD045C0E7
:10058000E9FF46C0EAFFE9CF49F0EACF4AF049C0A7
:10059000E6FF4AC0E6FF280EE66E47C0E6FFB9EC6C
:1005A00004F044E945C0E9FF46C0EAFF0D0EE92624
:1005B000000EEA22040EEF6EC58AC58821D0C586DA
:1005C00045C0E9FF46C0EAFF0D0EE926000EEA220B
:1005D0000D0EEF6E45C0E9FF46C0EAFF0C0EE9269E
:1005E000000EEA22EF2A0CD045C0E9FF46C0EAFF20
:1005F0000D0EE926000EEA22050EEF6EC58400D02E
:1006000049E9E7CFD9FF12001200D9CFE6FFE1CFC9
:10061000D9FF83E900EB45F001EB46F045C0E9FF67
:1006200046C0EAFF0B0EE926000EEA22EF6A45C03B
:10063000E9FF46C0EAFF0C0EE926000EEA22EF6A47
:1006400045C0E9FF46C0EAFF0D0EE926000EEA228A
:10065000050EEF6E45C0E9FF46C0EAFF0F0EE92622
:10066000000EEA22EF6A0001486B476B41E9E7CFD1
:10067000D9FF1200D9CFE6FFE1CFD9FF82E99486F6
:10068000948800EBC8FFC76AC66AC56A0E0EC61218
:10069000C78E94869488C580C68A41E9E7CFD9FF82
:1006A0001200D9CFE6FFE1CFD9FF83E941E800EBA3
:1006B000E9FF01EBEAFF340EE926000EEA22EF6AB9
:1006C00000EBE9FF01EBEAFF350EE926000EEA2216
:1006D000EF6A036A040E035C14E200EBE9FF01EB2E
:1006E000EAFFE9CF49F0EACF4AF003500D0D0001CF
:1006F0004951F324E96E4A51F420EA6EEF6A032A65
:10070000E9D742E9E7CFD9FF1200D9CFE6FFE1CF21
:10071000D9FF87E945E803500A6E0B6A04EBE9FF4D
:1007200005EBEAFF340EE926000EEA22EF50076ED1
:1007300004EBE9FF05EBEAFFE9CF49F0EACF4AF025
:1007400007500D0D0001F3504925086EF4504A2161
:10075000096E08EBE9FF09EBEAFFEF5002E0FF0E3C
:1007600049D008EBE9FF09EBEAFFEE5203EBEFFF9C
:1007700008EBE9FF09EBEAFF020EE926000EEA2288
:1007800002EBEFFF0AEBE6FF0BEBE6FF00EBE6FF09
:1007900001EBE6FF08EBE9FF09EBEAFF030EE926B0
:1007A000000EEA22E9CF49F0EACF4AF049C0E6FF5D
:1007B0004AC0E6FF2EEC0DF046E904EBE9FF05EB3D
:1007C000EAFF340EE926000EEA22EF28030BE66E5C
:1007D00004EBE9FF05EBEAFF340EE926000EEA22FE
:1007E000E552E750EF6E08EBE9FF09EBEAFF010E77
:1007F000EF6E00D046E9E7CFD9FF1200D9CFE6FF70
:10080000E1CFD9FF88E945E805EBE9FF06EBEAFF10
:10081000350EE926000EEA22EF50086E05EBE9FFDF
:1008200006EBEAFFE9CF49F0EACF4AF008500D0D98
:100830000001F3504925096EF4504A210A6E09EB74
:10084000E9FF0AEBEAFFEF045CE109EBE9FF0AEBE1
:10085000EAFFEE52EF50045C02E2FD0E54D009EBC9
:10086000E9FF0AEBEAFFEE52EF500B6E0C6A0BEB5E
:10087000E6FF0CEBE6FF09EBE9FF0AEBEAFF030EEC
:10088000E926000EEA22E9CF49F0EACF4AF049C052
:10089000E6FF4AC0E6FF00EBE6FF01EBE6FF2EECC9
:1008A0000DF046E905EBE9FF06EBEAFF350EE92618
:1008B000000EEA22EF28030BE66E05EBE9FF06EBDC
:1008C000EAFF350EE926000EEA22E552E750EF6E08
:1008D00009EBE9FF0AEBEAFF020EE926000EEA2225
:1008E000EF50E66E02EBE9FF03EBEAFFE552E7505B
:1008F000EF6E09EBE9FF0AEBEAFFEF6A0B5003D05A
:1009000002D0FC0E00D046E9E7CFD9FF1200D9CFC4
:10091000E6FFE1CFD9FF85E900EBE6FF01EBE6FF5B
:1009200002EBE6FF03EBE6FF000EE66E010EE66E5D
:10093000ECDE46E900D041E9E7CFD9FF1200D9CF7C
:10094000E6FFE1CFD9FF86E900EBE6FF01EBE6FF2A
:1009500002EBE6FF03EBE6FF04EBE6FF000EE66EBC
:10096000010EE66E4BDF47E900D041E9E7CFD9FF42
:100970001200D9CFE6FFE1CFD9FF85E900EBE6FF12
:1009800001EBE6FF02EBE6FF03EBE6FF960EE66EF9
:10099000000EE66EBADE46E900D041E9E7CFD9FFA6
:1009A0001200D9CFE6FFE1CFD9FF86E900EBE6FFE1
:1009B00001EBE6FF02EBE6FF03EBE6FF04EBE6FFED
:1009C000960EE66E000EE66E19DF47E900D041E9AB
:1009D000E7CFD9FF1200D9CFE6FFE1CFD9FF85E9F4
:1009E00000EBE6FF01EBE6FF02EBE6FF03EBE6FFC1
:1009F000600EE66E000EE66E88DE46E900D041E944
:100A0000E7CFD9FF1200D9CFE6FFE1CFD9FF86E9C2
:100A100000EBE6FF01EBE6FF02EBE6FF03EBE6FF90
:100A200004EBE6FF600EE66E000EE66EE7DE47E9D9
:100A300000D041E9E7CFD9FF1200D9CFE6FFE1CFDF
:100A4000D9FF85E900EBE6FF01EBE6FF02EBE6FFED
:100A500003EBE6FF000EE66E000EE66E56DE46E99C
:100A600000D041E9E7CFD9FF1200D9CFE6FFE1CFAF
:100A7000D9FF86E900EBE6FF01EBE6FF02EBE6FFBC
:100A800003EBE6FF04EBE6FF000EE66E000EE66EFB
:100A9000B5DE47E900D041E9E7CFD9FF12000001F8
:100AA000366B000EE66E010EE66EFBDD42E9960E39
:100AB000E66E000EE66EF5DD42E9600EE66E000EB3
:100AC000E66EEFDD42E9000EE66E000EE66EE9DD51
:100AD00042E91200D38E03001200D9CFE6FFE1CF26
:100AE000D9FF83E900EBE9FF01EBEAFFE9CF49F029
:100AF000EACF4AF000EBE9FF01EBEAFF350EE92609
:100B0000000EEA22EF500D0D00014951F324E96E69
:100B10004A51F420EA6EEF5000D041E9E7CFD9FF07
:100B200012000001365101E129D048EC09F0F3CF61
:100B300049F0F4CF4AF0000149514A1101E01ED0BA
:100B400026EC09F0F3CF49F0F4CF4AF00001495107
:100B50004A1101E113D0960EE66E000EE66EBDDF7F
:100B600042E9000901E00AD0000EE66E010EE66ED1
:100B7000B4DF42E9000901E001D0ACDF120062EC11
:100B800009F0F3CF49F0F4CF4AF0000149514A117E
:100B900001E123D08A860001010E366F960EE66EC3
:100BA000000EE66E9ADF42E9000904E00001366BB0
:100BB0008A9613D0000EE66E010EE66E8EDF42E9D5
:100BC000000904E00001366B8A9607D00A0EE66E33
:100BD0005AEC0EF041E98A76E1D71200D9CFE6FF50
:100BE000E1CFD9FF81E97FE844E8066A076AFC0E95
:100BF000D36E9B8C96EC0CF0D9500A0FE66EDACFD0
:100C0000E6FF9DEC0BF042E9D9500F0FE66EDACF0C
:100C1000E6FF05EC03F042E9D9503C0FE66EDACF6F
:100C2000E6FFC5EC0CF042E94FEC05F0936A8A6AE6
:100C30008F0EE66E98EC0DF041E9850EE66E59ECEC
:100C40000DF041E99F909F9A9F869F9C9E0EE66EB5
:100C50000FEC00F041E99D869D80A082190EE66EA2
:100C6000E66A6C0EE66E4BEC0CF043E922EC09F000
:100C70003F0E8A6E8A6A050EE66EE66A01EBE6FFB3
:100C800002EBE6FFD6EC08F044E9050EE66EE66AF4
:100C900003EBE6FF04EBE6FFD6EC08F044E940EB9B
:100CA000E9FF41EBEAFF9E0EEF6E4028E96E000E71
:100CB0004120EA6E480EEF6E020E4024E96E000EEF
:100CC0004120EA6E690EEF6E8A6ABFEC05F0D950DA
:100CD0002C0FE66EDACFE6FFD950080FE66EDACFBA
:100CE000E6FF0A0EE66ED1EC04F045E9056E053428
:100CF00004E3FC0E055C00E0DBD008502A0A01E1A9
:100D0000B7D0030A01E1B1D0060A65E0070A1EE088
:100D1000220A01E0CDD0D9502C0FE66EDACFE6FFE3
:100D200005EB49F000014A6B49BF4A6949C0E6FF3B
:100D30004AC0E6FF0850E66EE66AD9503E0FE66EFE
:100D4000DACFE6FF7AEC0EF048E9B2D0376A055008
:100D5000375C17E20001D9502C0F496FDACF4AF007
:100D60003750EA6A4925E96E4A51EA22EFCFE6FF99
:100D700003EBE6FF04EBE6FFE3EC07F043E9372A79
:100D8000E6D7376A37500001496F4A6B03EBE9FF3A
:100D900004EBEAFF040EE926000EEA22EECF4BF048
:100DA000EFCF4CF04B2B4C234C354C514A1904E6F9
:100DB0004B51495D4C514A590DE203EBE6FF04EB00
:100DC000E6FF5FEC08F042E9E66E43EC0EF041E925
:100DD000372AD8D76DD09E0E2C6E010E376E375045
:100DE0000001496F4A6B01EBE9FF02EBEAFFEECF2E
:100DF0004BF0EFCF4CF04C354C514A1904E64B51B7
:100E0000495D4C514A5919E201EBE6FF02EBE6FF5E
:100E10005FEC08F042E9E66E0001D9502C0F496FF3
:100E2000DACF4AF03750EA6A4925E96E4A51EA2298
:100E3000E552E750EF6E372AD2D7D9502C0FE66E25
:100E4000DACFE6FF01EBE9FF02EBEAFF040EE92649
:100E5000000EEA22EECF49F0EFCF4AF0020E49250C
:100E6000E66E24EC00F043E923D0ACEB09F020D08F
:100E70000950A90A17E0010A0CE0020A01E017D0A4
:100E8000030E056EC2EB2CF0C3EB2DF0AA0E2E6EF6
:100E90000ED0030E056EC3EB2CF0C2EB2DF0A80EA6
:100EA0002E6E05D0010E056EA30E2C6E00D000D064
:100EB000D9502C0FE66EDACFE6FFD950080FE66E58
:100EC000DACFE6FF0A0EE66E9FEC04F045E9056E08
:100ED000053404E3FC0E055C00E06FD00850320AD4
:100EE00067E0120A47E03E0A20E0010A1EE0140A09
:100EF00001E062D0D9502C0FE66EDACFE6FF05EBA9
:100F000049F000014A6B49BF4A6949C0E6FF4AC03F
:100F1000E6FF0850E66EE66AD9503C0FE66EDACF7F
:100F2000E6FFD4EC0CF048E948D0062A000E072270
:100F3000020EE66EE66A06EBE6FF07EBE6FF54EC10
:100F40000AF0E552E5CF4AF0E7CF49F000014951F8
:100F50004A1108E09E0EE66E020EE66EA6EC00F068
:100F600042E907D09A0EE66E020EE66EA6EC00F09D
:100F700042E923D001EBE6FF02EBE6FFD9502C0F4C
:100F8000E66EDACFE6FF05EB49F000014A6B49BF98
:100F90004A6949C0E6FF4AC0E6FF0850E66EE66AC5
:100FA000D950380FE66EDACFE6FF02EC0CF04AE9D2
:100FB000ACEB42F0ADEB43F000D087D67FE945E9DA
:100FC000E7CFD9FF1200D9CFE6FFE1CFD9FF84E9FF
:100FD00001EBE9FF02EBEAFF040EE926000EEA222C
:100FE000EECF49F0EFCF4AF001EBE9FF02EBEAFF69
:100FF000EECF4BF0EFCF4CF000014B51491902E11D
:101000004C514A1905E1000EF36EF46A54D053D0E6
:1010100001EBE9FF02EBEAFF040EE926000EEA22EB
:10102000FF0EEE1802E1FF0EED1819E101EBE9FFEA
:1010300002EBEAFF060EE926000EEA22EE50EFCFA1
:10104000EAFFE96E00EBEFFF01EBE9FF02EBEAFFDD
:10105000040EE926000EEA22EE2AEF2228D001EB48
:10106000E9FF02EBEAFF040EE926000EEA22EE2A6F
:10107000EF2201EBE9FF02EBEAFF060EE926000E84
:10108000EA22EECF49F0EFCF4AF001EBE9FF02EBA5
:10109000EAFF040EE926000EEA224951EE24E76E2B
:1010A0004A51EE20EA6EE7CFE9FF00EBEFFF010EB9
:1010B000F36EF46A00D041E9E7CFD9FF1200D9CF2F
:1010C000E6FFE1CFD9FF83E943E800EBE9FF01EB5D
:1010D000EAFF040EE926000EEA22FF0EEE1802E1F6
:1010E000FF0EED1803E1240E5DD05CD000EBE9FFAC
:1010F00001EBEAFF060EE926000EEA22EE50EFCFE2
:10110000EAFFE96EEF50036E046A056A00EBE9FF3F
:1011100001EBEAFF040EE926000EEA22EC3405504A
:10112000ED1804E6EE50045CED5005582FE2000186
:101130000428496F000E05204A6F00EBE9FF01EB20
:10114000EAFF060EE926000EEA224951EE24E76E78
:101150004A51EE20EA6EE7CFE9FFEF50E66E00EB72
:10116000E9FF01EBEAFF060EE926000EEA22EE5047
:101170000424E76EED500520EA6EE7CFE9FFE55263
:10118000E750EF6E042A000E0522C0D700EBE9FFFE
:1011900001EBEAFF040EE926000EEA22EE06EF5A02
:1011A000035000D044E9E7CFD9FF1200D9CFE6FFC2
:1011B000E1CFD9FF85E9013404E200500008000EB8
:1011C000015438E202EBE9FF03EBEAFF00EBEEFF2C
:1011D00001EBEDFF02EBE9FF03EBEAFF020EEB6A26
:1011E000030EEB6A02EBE9FF03EBEAFF040EE926CC
:1011F000000EEA22EE68ED6802EBE9FF03EBEAFF7E
:10120000060EE926000EEA22EECF49F0EFCF4AF0B3
:1012100002EBE9FF03EBEAFF00014951EE24E76E20
:101220004A51EE20EA6EE7CFE9FF010EF36EF46A51
:1012300005D004D0000EF36EF46A00D041E9E7CF88
:10124000D9FF1200D08EF28EF28C1200F250800B79
:10125000800A01E0010E0001496F4A6B800B01E03A
:101260004A6949C0F3FF4AC0F4FF00D01200F250AF
:10127000400B400A01E0010E0001496F4A6B800BF0
:1012800001E04A6949C0F3FF4AC0F4FF00D01200F0
:10129000F2AC05D0000EF36EF46A13D012D0D6DF94
:1012A000F3CF49F0F4CF4AF0000149514A1105E06B
:1012B000000EF36EF46A05D004D0010EF36EF46AEA
:1012C00000D01200E5DFF3CF49F0F4CF4AF000017F
:1012D00049514A110EE1BADFF3CF4BF0F4CF4CF095
:1012E00000014B514C1105E1010EF36EF46A05D07B
:1012F00004D0000EF36EF46A00D01200DACFE4FFDF
:10130000E2CFDAFFE9CFE4FFEACFE4FFD9CFE4FF91
:10131000DACFE4FF41C0E4FF42C0E4FF43C0E4FF92
:1013200044C0E4FFF6CFE4FFF7CFE4FFF5CFE4FFDE
:10133000F3CFE4FFF4CFE4FFFACFE4FF00EE49F08F
:10134000040EE80403E3EECFE4FFFBD7E6529EA6CB
:1013500003D09E96B4EC01F0F2A403D0F294C9EC51
:101360000AF091EC05F0E55200EE4CF0040EE804B2
:1013700003E3E5CFEDFFFBD7E5CFFAFFE5CFF4FFC1
:10138000E5CFF3FFE5CFF5FFE5CFF7FFE5CFF6FFBC
:10139000E5CF44F0E5CF43F0E5CF42F0E5CF41F0B3
:1013A000E5CFDAFFE5CFD9FFE5CFEAFFE5CFE9FFEB
:1013B000E5CFDAFF1100D8CFE4FFE0CFE4FFE46E21
:1013C000DACFE4FFE2CFDAFFE9CFE4FFEACFE4FFD0
:1013D000D9CFE4FFDACFE4FF41C0E4FF42C0E4FF2D
:1013E00043C0E4FF44C0E4FFF6CFE4FFF7CFE4FFDF
:1013F000F5CFE4FFF3CFE4FFF4CFE4FFFACFE4FF4F
:1014000000EE49F0040EE80403E3EECFE4FFFBD75F
:10141000E6529EA003D09E90FEEC0AF09EAC03D054
:101420009E9C8CEC0CF09EAA03D09E9A40EC0BF094
:10143000E55200EE4CF0040EE80403E3E5CFEDFFC7
:10144000FBD7E5CFFAFFE5CFF4FFE5CFF3FFE5CF1C
:10145000F5FFE5CFF7FFE5CFF6FFE5CF44F0E5CFA9
:1014600043F0E5CF42F0E5CF41F0E5CFDAFFE5CF3D
:10147000D9FFE5CFEAFFE5CFE9FFE5CFDAFFE55099
:10148000E5CFE0FFE5CFD8FF100043E8D9CFE6FF76
:10149000DACFE6FFE1CFD9FFE2CFDAFF89E9066ACA
:1014A0001200F3DF068001D0F0DF01AE5EEF0AF03C
:1014B000006C011EE86A012206B0067E03AE66EFEC
:1014C0000AF0026C031EE86A0322067E9EEC0AF014
:1014D00003BE88EF0AF006AE08D0026C031EE86A6D
:1014E0000322046C051EE86A052206B006D084EBD0
:1014F00000F085EB01F006A004D082EB00F083EB56
:1015000001F0E552E5CFDAFFE7CFD9FF45E9000C5E
:1015100006BE6DEF0AF0E9DFFF0C43E8D9CFE6FF26
:10152000DACFE6FFE1CFD9FFE2CFDAFF89E9066A39
:101530001200F3DF068003D0F0DF01D00682056AD7
:10154000046A100EE76ED89002360336043605366C
:101550000050045C0150055805E30050045E015042
:10156000055A022AE72EF0D706B2120006B006D0BE
:1015700084EB00F085EB01F006A004D082EB00F0D4
:1015800083EB01F0E552E5CFDAFFE7CFD9FF45E97C
:101590001200D9CFE6FFE1CFD9FF81E946E88A7092
:1015A000000EE66EE66A13EC0EF042E9D950010F28
:1015B000E66EDACFE6FFD950050FE66EDACFE6FF2A
:1015C000020EE66E35EC05F045E9036E046AE8BEEE
:1015D0000468020E031801E104500CE1D950010F18
:1015E000E66EDACFE6FF0A0EE66E020EE66EB9ECA4
:1015F00004F044E947E9E7CFD9FF1200D9CFE6FF6D
:10160000E1CFD9FF81E942E88A72320ECE6EFBEC5F
:101610000DF0F350016EF450026E000EE66EE66AB5
:101620000B0EE66EE66A87EC04F044E9000EE66E07
:10163000E66AE3EC0DF042E943E9E7CFD9FF120097
:10164000D9CFE6FFE1CFD9FF81E942E88A76CBEC3A
:101650000DF0F350016EF450026E000EE66EE66A75
:101660000C0EE66EE66A87EC04F044E9000EE66EC6
:10167000E66AB3EC0DF042E943E9E7CFD9FF120087
:101680009EAA4CD079EC0DF0E66E4FC0E9FF50C039
:10169000EAFFE9CF49F0EACF4AF04FC0E9FF50C076
:1016A000EAFF040EEB500001EA6A4925E96E4A514F
:1016B000EA22E552E750EF6E4FC0E9FF50C0EAFF63
:1016C000040EE926000EEA22EF2A4FC0E9FF50C0BF
:1016D000EAFF040EEB50040821E14FC0E9FF50C0BF
:1016E000EAFFE9CF49F0EACF4AF049C0E6FF4AC035
:1016F000E6FF200EE66E4FC0E9FF50C0EAFF040E81
:10170000EB50E66E87EC04F044E94FC0E9FF50C0AF
:10171000EAFF040EE926000EEA22EF6A000152A752
:101720000BD0AB98AB88000EE66EE66A1E0EE66E36
:10173000E66A87EC04F044E91200D9CFE6FFE1CF76
:10174000D9FF83E900EB4FF001EB50F04FC0E9FF08
:1017500050C0EAFF040EE926000EEA22EF6A41E9D2
:10176000E7CFD9FF1200060EF66E000EF76E000EE0
:10177000F86E00010900F5503C6F0900F5503D6F0F
:1017800003E13C6701D03DD00900F550376F0900F7
:10179000F550386F0900F550396F09000900F55010
:1017A000E96E0900F550EA6E090009000900F550DC
:1017B0003A6F0900F5503B6F09000900F6CF3EF083
:1017C000F7CF3FF0F8CF40F037C0F6FF38C0F7FF53
:1017D00039C0F8FF00013A5302E13B5307E009002A
:1017E000F550EE6E3A07F8E23B07F9D73EC0F6FF38
:1017F0003FC0F7FF40C0F8FF00013C07000E3D5B13
:10180000BFD71200D9CFE6FFE1CFD9FF8BE942E87D
:101810001E0E061801E1075001E139D01F0E06180F
:1018200001E1075008E102500424E96E035005204D
:10183000EA6EEF6A2CD0200E061801E1075027E16E
:101840000B6A0C6A05340C50051804E604500B5C56
:1018500005500C5813E202500B24E96E03500C2083
:10186000EA6EEFCFE6FF00EBE6FF01EBE6FFE3EC0D
:1018700007F043E90B2A000E0C22E4D7000EE66EB7
:10188000E66A2F0EE66EE66AB9EC04F044E943E935
:10189000E7CFD9FF1200D9CFE6FFDACFE6FFE1CFDD
:1018A000D9FFE2CFDAFF85E9AC6AAB6A02B0AC8857
:1018B00002A202D0AC8CAB8C02B4AC8E02A602D0D9
:1018C000AB8801D0AB8A02B8AC849E9802BAAB86D2
:1018D00002AC02D09D8A01D09D9A9E9A02AE02D09F
:1018E0009D8801D09D9800EBAFFF000101EB49F00E
:1018F0004A6B49C0B0FFAC8AAB8E949C948EAC50BE
:10190000100B04E0AC50800B01E1948C41E9E5CF71
:10191000DAFFE7CFD9FF1200000EE66EE66A320E5C
:10192000E66EE66A87EC04F044E912000B0EE66E00
:10193000840EE66ED30EE66EFCEC0CF043E9870EE7
:10194000E66E2BEC0EF041E91200D9CFE6FFE1CFB5
:10195000D9FF83E9ABEC0EF007EC00F0000901E0E1
:10196000FBD795EC0EF0F3CF49F0F4CF4AF000EB43
:10197000E9FF01EBEAFF49C0EEFF4AC0EDFF41E994
:10198000E7CFD9FF1200A8EF0EF0D9CFE6FFE1CFE5
:10199000D9FF83E900EBE9FF01EBEAFFEE6AED6AAC
:1019A00041E9E7CFD9FF1200D9CFE6FFE1CFD9FF58
:1019B00089E906EBE9FF07EBEAFFEE2A000EEF22CA
:1019C00006EBE9FF07EBEAFF010EEE1801E1ED502F
:1019D0000FE106EBE9FF07EBEAFFEE6AED6A000EA6
:1019E000E66EE66A1F0EE66EE66A87EC04F044E9EE
:1019F00041E9E7CFD9FF1200D9CFE6FFDACFE6FF02
:101A0000E1CFD9FFE2CFDAFF85E9C26AC06A0140BF
:101A10007F0B3C0BC26E0138F00B300B0001496F9D
:101A20000F0E00144911C16E0250040DF350380B13
:101A30004A6F02380F0B070B496F800E02144911D1
:101A40004A11C06E01AE03D09E9C9D8CF28CC28068
:101A500041E9E5CFDAFFE7CFD9FF1200D9CFE6FFA2
:101A6000DACFE6FFFA0EE3CFD9FFFB0EE3CFDAFFC2
:101A7000FC0EE3CFE9FFFD0EE3CFEAFFE9CFF3FF72
:101A8000EACFF4FFF80EE35003E1F90EE35008E06B
:101A9000F80EE30602E2F90EE306DECFEEFFF2D720
:101AA000FF0EE3CFDAFFE552FF0EE3CFD9FFE55299
:101AB0001200D9CFE6FFDACFE6FFE1CFD9FFE2CFC0
:101AC000DAFF83E97E0E0014CD6E00AC02D0CD8E1D
:101AD00001D0CD9ECF6ACE6A9E9000AE02D09D808E
:101AE00001D09D90CD8041E9E5CFDAFFE7CFD9FF66
:101AF0001200D9CFE6FFDACFE6FFE1CFD9FFE2CF80
:101B0000DAFF82E941E8F20E00015217ABAC03D0D4
:101B10005291ABB05281ABB45285ABB25287AE504A
:101B2000026E025042E9E5CFDAFFE7CFD9FF12009B
:101B3000D9CFE6FFDACFE6FFE1CFD9FFE2CFDAFF78
:101B400083E97F0E0014D56ED76AD66AF29400AE90
:101B500002D0F28A01D0F29AD58E41E9E5CFDAFFC0
:101B6000E7CFD9FF1200D9CFE6FFDACFE6FFE1CF0A
:101B7000D9FFE2CFDAFF84E942E880EB04F081EBA1
:101B800005F005EBB3FF04EBB2FF43E9E5CFDAFF65
:101B9000E7CFD9FF1200D9CFE6FFDACFE6FFE1CFDA
:101BA000D9FFE2CFDAFF82E942E8B250026EB350C9
:101BB000036E02EBF3FF03EBF4FF43E9E5CFDAFF3B
:101BC000E7CFD9FF1200D9CFE6FFDACFE6FFE1CFAA
:101BD000D9FFE2CFDAFF84E942E880EB04F081EB41
:101BE00005F005EBCFFF04EBCEFF43E9E5CFDAFFCD
:101BF000E7CFD9FF1200D9CFE6FFDACFE6FFE1CF7A
:101C0000D9FFE2CFDAFF82E942E8CE50026ECF5030
:101C1000036E02EBF3FF03EBF4FF43E9E5CFDAFFDA
:101C2000E7CFD9FF1200D9CFE6FFDACFE6FFE1CF49
:101C3000D9FFE2CFDAFF84E942E880EB04F081EBE0
:101C400005F005EBD7FF04EBD6FF43E9E5CFDAFF5C
:101C5000E7CFD9FF1200D9CFE6FFDACFE6FFE1CF19
:101C6000D9FFE2CFDAFF83E9C30EC2140001496F46
:101C700000407F0B3C0B4911C26E41E9E5CFDAFF12
:101C8000E7CFD9FF1200D9CFE6FFDACFE6FFE1CFE9
:101C9000D9FFE2CFDAFF83E9ACAC04D0AC9000010D
:101CA00052B3AC8000EBADFF41E9E5CFDAFFE7CFFF
:101CB000D9FF1200FF0EE3500001516F480E01D012
:101CC0004C0EE76EE72EFED7E76AE72EFED7512FC0
:101CD000F7D71200000EF36E00EE00F00D0E01D8E3
:101CE0001200EA6002D0EE6AFCD7F350E9601200FD
:101CF000EE6AFCD7D9CFE6FFE1CFD9FF89E942E808
:101D000080EB09F081EB0AF043E9E7CFD9FF12003D
:101D10001CEE00F02CEE00F0F86AB3EC0BF0ADEC2A
:101D20000EF0EEEC05F0FBD71200C4CF4BF04BC029
:101D30004CF000014B6BC3504B11F36E4CC0F4FFE1
:101D400012001F0EC514FDE1C750040BFAE112008A
:0C1D5000C2909D9C1200C2821200120082
:020000040030CA
:0300010008191EBD
:0200050080C0B9
:00000001FF
