:1000000045EF0DF012000000F0EF07F01200C250B3
:10001000020B01E0010E12004DEF08F01200D9CFE3
:10002000E6FFE1CFD9FF82E941E9E7CFD9FF12002E
:10003000D9CFE6FFE1CFD9FF84E9000E00D041E936
:10004000E7CFD9FF1200D9CFE6FFE1CFD9FF82E990
:10005000000E00D041E9E7CFD9FF1200D9CFE6FF6B
:10006000E1CFD9FF84E94DC0E9FF4EC0EAFF190E88
:10007000E926000EEA22EF6A4DC0E9FF4EC0EAFF12
:10008000190EEB50D880025432E24DC0E9FF4EC049
:10009000EAFF190EEB500024E96E000E0120EA6E13
:1000A000EF50E66E4DC0E9FF4EC0EAFF0F0EE926A5
:1000B000000EEA22E9CF45F0EACF46F04DC0E9FF55
:1000C0004EC0EAFF190EEB500001EA6A4525E96EC1
:1000D0004651EA22E552E750EF6E4DC0E9FF4EC0AF
:1000E000EAFF190EE926000EEA22EF2AC5D74DC015
:1000F000E9FF4EC0EAFF190EE926000EEA2202EBE4
:10010000EFFF4DC0E9FF4EC0EAFF1A0EE926000ED0
:10011000EA22010EEF6E4DC0E9FF4EC0EAFF0F0E5E
:10012000EB50C96EC68841E9E7CFD9FF1200D9CF9D
:10013000E6FFE1CFD9FF82E94DC0E9FF4EC0EAFFFB
:100140000B0EE926000EEA22010EEF6E4DC0E9FF0C
:100150004EC0EAFF0A0EE926000EEA22EF6A0050BE
:1001600038E0C7AA1ED04DC0E9FF4EC0EAFF0C0E12
:10017000E926000EEA22050EEF6E4DC0E9FF4EC0E3
:10018000EAFF0E0EE926000EEA22EF2A4DC0E9FF33
:100190004EC0EAFF0D0EE926000EEA22050EEF6EB4
:1001A00017D0C7A40BD04DC0E9FF4EC0EAFF0C0E1C
:1001B000E926000EEA22080EEF6E0AD04DC0E9FFD4
:1001C0004EC0EAFF0C0EE926000EEA22070EEF6E83
:1001D0000AD04DC0E9FF4EC0EAFF0C0EE926000E22
:1001E000EA22060EEF6E41E9E7CFD9FF1200D9CF20
:1001F000E6FFE1CFD9FF81E949E8026A036A046AB0
:10020000056A066AC6AC20D0C69C4DC0E9FF4EC048
:10021000EAFF0C0EE926000EEA22050EEF6E010E33
:10022000066E4DC0E9FF4EC0EAFF0E0EE926000E35
:10023000EA22EF2A4DC0E9FF4EC0EAFF0D0EE92683
:10024000000EEA22040EEF6EC7A004D0C950016E62
:10025000010E026E065001E091D14DC0E9FF4EC083
:10026000EAFF0C0EEB50070A01E1D0D00F0A01E1C2
:100270008DD00E0A15E0030A01E080D1C7A60FD089
:1002800002EBE6FF54DF41E94DC0E9FF4EC0EAFF53
:100290000C0EEB50080803E1026A010E056E6ED1E8
:1002A000C7A82ED04DC0E9FF4EC0EAFF0B0EE926CD
:1002B000000EEA22EF2A025018E0C7BA03D0010E5E
:1002C000046E13D04DC0E9FF4EC0EAFF0E0EE926C2
:1002D000000EEA22EF2A4DC0E9FF4EC0EAFF0D0EE4
:1002E000E926000EEA22060EEF6E4DC0E9FF4EC071
:1002F000EAFF0C0EE926000EEA22050EEF6E45D04D
:10030000025043E04DC0E9FF4EC0EAFF0B0EE92664
:10031000000EEA22EF2AC7BA1BD0C7B40BD04DC0DB
:10032000E9FF4EC0EAFF0C0EE926000EEA22070E96
:10033000EF6E0DD04DC0E9FF4EC0EAFF0C0EE9266E
:10034000000EEA22080EEF6E010E056E026A1DD045
:100350004DC0E9FF4EC0EAFF0E0EE926000EEA226C
:10036000EF2A4DC0E9FF4EC0EAFF0C0EE926000E51
:10037000EA22050EEF6E4DC0E9FF4EC0EAFF0D0EFA
:10038000E926000EEA22060EEF6EF8D04DC0E9FF16
:100390004EC0EAFF1A0EEB500001456F4DC0E9FF59
:1003A0004EC0EAFF190EEB50455D25E24DC0E9FF56
:1003B0004EC0EAFF0F0EE926000EEA22E9CF45F013
:1003C000EACF46F04DC0E9FF4EC0EAFF1A0EEB50EF
:1003D000EA6A4525E96E4651EA22EF50C96E4DC0E2
:1003E000E9FF4EC0EAFF1A0EE926000EEA22EF2AC4
:1003F000010E036E0AD04DC0E9FF4EC0EAFF0C0E9D
:10040000E926000EEA22050EEF6EB8D0C7A85AD032
:100410004DC0E9FF4EC0EAFF0B0EE926000EEA22AE
:10042000EF2A025042E0C7AA22D04DC0E9FF4EC0D9
:10043000EAFFE9CF45F0EACF46F04DC0E9FF4EC0F4
:10044000EAFF0A0EEB500001EA6A4525E96E4651C3
:10045000EA2201EBEFFF4DC0E9FF4EC0EAFF0A0EB2
:10046000E926000EEA22EF2A010E046E1DD04DC0CF
:10047000E9FF4EC0EAFF0E0EE926000EEA22EF2A3F
:100480004DC0E9FF4EC0EAFF0D0EE926000EEA223C
:10049000060EEF6E4DC0E9FF4EC0EAFF0C0EE926D6
:1004A000000EEA22050EEF6E02D0010E046E4DC062
:1004B000E9FF4EC0EAFF0C0EE926000EEA22050E07
:1004C000EF6E5BD0025059E04DC0E9FF4EC0EAFF2D
:1004D0000B0EE926000EEA22EF2AC7AA20D04DC053
:1004E000E9FF4EC0EAFFE9CF45F0EACF46F04DC044
:1004F000E9FF4EC0EAFF0A0EEB500001EA6A45250B
:10050000E96E4651EA2201EBEFFF4DC0E9FF4EC014
:10051000EAFF0A0EE926000EEA22EF2A2ED0C7A42F
:100520000FD04DC0E9FF4EC0EAFF0C0EE926000EC9
:10053000EA22080EEF6E010E046E056E026A1DD0EF
:100540004DC0E9FF4EC0EAFF0E0EE926000EEA227A
:10055000EF2A4DC0E9FF4EC0EAFF0D0EE926000E5E
:10056000EA22060EEF6E4DC0E9FF4EC0EAFF0C0E08
:10057000E926000EEA22050EEF6E00D0025002E1DD
:10058000035002E0C6A8C6884DC0E9FF4EC0EAFF8E
:100590000A0EEB5008081FE204501DE14DC0E9FFB0
:1005A0004EC0EAFF0C0EE926000EEA22050EEF6EA1
:1005B0004DC0E9FF4EC0EAFF0E0EE926000EEA220A
:1005C000EF2A4DC0E9FF4EC0EAFF0D0EE926000EEE
:1005D000EA22070EEF6E045041E04DC0E9FF4EC025
:1005E000EAFF0B0EEB50E66E4DC0E9FF4EC0EAFF8E
:1005F000E9CF45F0EACF46F04DC0E9FF4EC0EAFF33
:100600000A0EEB500001EA6A4525E96E4651EA22DE
:10061000E552E750EF6E4DC0E9FF4EC0EAFFE9CF6B
:1006200045F0EACF46F045C0E6FF46C0E6FF280E9B
:10063000E66E4DC0E9FF4EC0EAFF0A0EEB50010F17
:10064000E66E2DEC05F044E94DC0E9FF4EC0EAFF2F
:100650000A0EE926000EEA22EF6A35D04DC0E9FF06
:100660004EC0EAFF0E0EEB500001456F010E455DD6
:100670002AE34DC0E9FF4EC0EAFF0E0EEB50076EB5
:100680004DC0E9FF4EC0EAFF0D0EEB50086E4DC0A5
:10069000E9FF4EC0EAFF0B0EEB50096ED950070F71
:1006A000E66EDACFE6FF290EE66E030EE66E2DEC5F
:1006B00005F044E94DC0E9FF4EC0EAFF0E0EE92601
:1006C000000EEA22EF6A055013E04DC0E9FF4EC06C
:1006D000EAFFE9CF45F0EACF46F045C0E6FF46C065
:1006E000E6FF2A0EE66EE66A2DEC05F044E9056A9F
:1006F0004AE9E7CFD9FF1200D9CFE6FFE1CFD9FF12
:1007000083E900EB4DF001EB4EF04DC0E9FF4EC028
:10071000EAFF0A0EE926000EEA22EF6A4DC0E9FF61
:100720004EC0EAFF0B0EE926000EEA22EF6A4DC02A
:10073000E9FF4EC0EAFF0C0EE926000EEA22050E84
:10074000EF6E4DC0E9FF4EC0EAFF0E0EE926000E27
:10075000EA22EF6A41E9E7CFD9FF1200D9CFE6FFDD
:10076000E1CFD9FF82E99486948800EBC8FFC76A7D
:10077000C66AC56A0E0EC612C78E94869488C58056
:10078000C68A41E9E7CFD9FF1200D9CFE6FFE1CF12
:10079000D9FF83E941E800EBE9FF01EBEAFF340E02
:1007A000E926000EEA22EF6A00EBE9FF01EBEAFF1F
:1007B000350EE926000EEA22EF6A036A040E035C96
:1007C00014E200EBE9FF01EBEAFFE9CF45F0EACFE5
:1007D00046F003500D0D00014551F324E96E4651DA
:1007E000F420EA6EEF6A032AE9D742E9E7CFD9FF9E
:1007F0001200D9CFE6FFE1CFD9FF87E945E80350E2
:100800000A6E0B6A04EBE9FF05EBEAFF340EE926FA
:10081000000EEA22EF50076E04EBE9FF05EBEAFF5A
:10082000E9CF45F0EACF46F007500D0D0001F35037
:100830004525086EF4504621096E08EBE9FF09EBE7
:10084000EAFFEF5002E0FF0E49D008EBE9FF09EBA9
:10085000EAFFEE5203EBEFFF08EBE9FF09EBEAFFDB
:10086000020EE926000EEA2202EBEFFF0AEBE6FF9A
:100870000BEBE6FF00EBE6FF01EBE6FF08EBE9FF21
:1008800009EBEAFF030EE926000EEA22E9CF45F064
:10089000EACF46F045C0E6FF46C0E6FFE7EC0BF0C6
:1008A00046E904EBE9FF05EBEAFF340EE926000E0A
:1008B000EA22EF28030BE66E04EBE9FF05EBEAFF03
:1008C000340EE926000EEA22E552E750EF6E08EBFF
:1008D000E9FF09EBEAFF010EEF6E00D046E9E7CF32
:1008E000D9FF1200D9CFE6FFE1CFD9FF88E945E86B
:1008F00005EBE9FF06EBEAFF350EE926000EEA22DA
:10090000EF50086E05EBE9FF06EBEAFFE9CF45F093
:10091000EACF46F008500D0D0001F3504525096E51
:10092000F45046210A6E09EBE9FF0AEBEAFFEF04F7
:100930005CE109EBE9FF0AEBEAFFEE52EF50045CE1
:1009400002E2FD0E54D009EBE9FF0AEBEAFFEE529A
:10095000EF500B6E0C6A0BEBE6FF0CEBE6FF09EBBE
:10096000E9FF0AEBEAFF030EE926000EEA22E9CFCF
:1009700045F0EACF46F045C0E6FF46C0E6FF00EB93
:10098000E6FF01EBE6FFE7EC0BF046E905EBE9FFDC
:1009900006EBEAFF350EE926000EEA22EF28030BEC
:1009A000E66E05EBE9FF06EBEAFF350EE926000EE1
:1009B000EA22E552E750EF6E09EBE9FF0AEBEAFFA6
:1009C000020EE926000EEA22EF50E66E02EBE9FF86
:1009D00003EBEAFFE552E750EF6E09EBE9FF0AEBA4
:1009E000EAFFEF6A0B5003D002D0FC0E00D046E9BC
:1009F000E7CFD9FF1200D9CFE6FFE1CFD9FF85E9D4
:100A000000EBE6FF01EBE6FF02EBE6FF03EBE6FFA0
:100A1000000EE66E010EE66EECDE46E900D041E91E
:100A2000E7CFD9FF1200D9CFE6FFE1CFD9FF86E9A2
:100A300000EBE6FF01EBE6FF02EBE6FF03EBE6FF70
:100A400004EBE6FF000EE66E010EE66E4BDF47E9B3
:100A500000D041E9E7CFD9FF1200D9CFE6FFE1CFBF
:100A6000D9FF85E900EBE6FF01EBE6FF02EBE6FFCD
:100A700003EBE6FF960EE66E000EE66EBADE46E982
:100A800000D041E9E7CFD9FF1200D9CFE6FFE1CF8F
:100A9000D9FF86E900EBE6FF01EBE6FF02EBE6FF9C
:100AA00003EBE6FF04EBE6FF960EE66E000EE66E45
:100AB00019DF47E900D041E9E7CFD9FF1200D9CFCC
:100AC000E6FFE1CFD9FF85E900EBE6FF01EBE6FFAA
:100AD00002EBE6FF03EBE6FF600EE66E000EE66E4D
:100AE00088DE46E900D041E9E7CFD9FF1200D9CF2F
:100AF000E6FFE1CFD9FF86E900EBE6FF01EBE6FF79
:100B000002EBE6FF03EBE6FF04EBE6FF600EE66EAA
:100B1000000EE66EE7DE47E900D041E9E7CFD9FFF6
:100B20001200D9CFE6FFE1CFD9FF85E900EBE6FF60
:100B300001EBE6FF02EBE6FF03EBE6FF000EE66EDD
:100B4000000EE66E56DE46E900D041E9E7CFD9FF58
:100B50001200D9CFE6FFE1CFD9FF86E900EBE6FF2F
:100B600001EBE6FF02EBE6FF03EBE6FF04EBE6FF3B
:100B7000000EE66E000EE66EB5DE47E900D041E9F4
:100B8000E7CFD9FF12000001366B000EE66E010EB2
:100B9000E66EFBDD42E9960EE66E000EE66EF5DDD2
:100BA00042E9600EE66E000EE66EEFDD42E9000EF1
:100BB000E66E000EE66EE9DD42E91200D38E030018
:100BC0001200D9CFE6FFE1CFD9FF83E900EBE9FFBF
:100BD00001EBEAFFE9CF45F0EACF46F000EBE9FF91
:100BE00001EBEAFF350EE926000EEA22EF500D0D6B
:100BF00000014551F324E96E4651F420EA6EEF50AE
:100C000000D041E9E7CFD9FF12000001365101E1E0
:100C100029D0BAEC07F0F3CF45F0F4CF46F000014D
:100C20004551461101E01ED098EC07F0F3CF45F096
:100C3000F4CF46F000014551461101E113D0960E64
:100C4000E66E000EE66EBDDF42E9000901E00AD063
:100C5000000EE66E010EE66EB4DF42E9000901E027
:100C600001D0ACDF1200D4EC07F0F3CF45F0F4CFA5
:100C700046F000014551461101E123D08A8600016A
:100C8000010E366F960EE66E000EE66E9ADF42E9B2
:100C9000000904E00001366B8A9613D0000EE66E60
:100CA000010EE66E8EDF42E9000904E00001366BBA
:100CB0008A9607D00A0EE66E17EC0DF041E98A76A7
:100CC000E1D71200D9CFE6FFE1CFD9FF84E901EBEC
:100CD000E9FF02EBEAFF040EE926000EEA22EECF5E
:100CE00045F0EFCF46F001EBE9FF02EBEAFFEECF74
:100CF00047F0EFCF48F000014751451902E1485154
:100D0000461905E1000EF36EF46A47D046D001EBB8
:100D1000E9FF02EBEAFF040EE926000EEA22EE509C
:100D2000ED100FE101EBE9FF02EBEAFF060EE92609
:100D3000000EEA22EE50EFCFEAFFE96E00EBEFFF84
:100D400028D001EBE9FF02EBEAFF040EE926000ED2
:100D5000EA22EE2AEF2201EBE9FF02EBEAFF060EA0
:100D6000E926000EEA22EECF45F0EFCF46F001EB88
:100D7000E9FF02EBEAFF040EE926000EEA224551E4
:100D8000EE24E76E4651EE20EA6EE7CFE9FF00EB76
:100D9000EFFF010EF36EF46A00D041E9E7CFD9FF0F
:100DA0001200D9CFE6FFE1CFD9FF83E943E800EB9A
:100DB000E9FF01EBEAFF040EE926000EEA22FF0E2E
:100DC000EE1802E1FF0EED1803E1240E5DD05CD0B9
:100DD00000EBE9FF01EBEAFF060EE926000EEA222E
:100DE000EE50EFCFEAFFE96EEF50036E046A056A3A
:100DF00000EBE9FF01EBEAFF040EE926000EEA2210
:100E0000EC340550ED1804E6EE50045CED50055846
:100E10002FE200010428456F000E0520466F00EB0D
:100E2000E9FF01EBEAFF060EE926000EEA22455132
:100E3000EE24E76E4651EE20EA6EE7CFE9FFEF5071
:100E4000E66E00EBE9FF01EBEAFF060EE926000E75
:100E5000EA22EE500424E76EED500520EA6EE7CF5B
:100E6000E9FFE552E750EF6E042A000E0522C0D7D5
:100E700000EBE9FF01EBEAFF040EE926000EEA228F
:100E8000EE06EF5A035000D044E9E7CFD9FF120035
:100E9000D9CFE6FFE1CFD9FF85E9013404E2005064
:100EA0000008000E015438E202EBE9FF03EBEAFF11
:100EB00000EBEEFF01EBEDFF02EBE9FF03EBEAFFD6
:100EC000020EEB6A030EEB6A02EBE9FF03EBEAFFAB
:100ED000040EE926000EEA22EE68ED6802EBE9FF57
:100EE00003EBEAFF060EE926000EEA22EECF45F0FC
:100EF000EFCF46F002EBE9FF03EBEAFF00014551BB
:100F0000EE24E76E4651EE20EA6EE7CFE9FF010ED0
:100F1000F36EF46A05D004D0000EF36EF46A00D0CC
:100F200041E9E7CFD9FF1200D08EF28EF28C120089
:100F3000F250800B800A01E0010E0001456F466B04
:100F4000800B01E0466945C0F3FF46C0F4FF00D0C6
:100F50001200F250400B400A01E0010E0001456F03
:100F6000466B800B01E0466945C0F3FF46C0F4FFC5
:100F700000D01200F2AC05D0000EF36EF46A13D06C
:100F800012D0D6DFF3CF45F0F4CF46F00001455143
:100F9000461105E0000EF36EF46A05D004D0010E90
:100FA000F36EF46A00D01200E5DFF3CF45F0F4CF22
:100FB00046F00001455146110EE1BADFF3CF47F08C
:100FC000F4CF48F000014751481105E1010EF36EDE
:100FD000F46A05D004D0000EF36EF46A00D012005B
:100FE000DACFE4FFE2CFDAFFE9CFE4FFEACFE4FFB4
:100FF000D9CFE4FFDACFE4FF41C0E4FF42C0E4FF11
:1010000043C0E4FF44C0E4FFF6CFE4FFF7CFE4FFC2
:10101000F5CFE4FFF3CFE4FFF4CFE4FFFACFE4FF32
:1010200000EE45F0040EE80403E3EECFE4FFFBD747
:10103000E6529EA603D09E96F7EC00F0F2A403D0F1
:10104000F294D6EC09F005EC06F0E55200EE48F01B
:10105000040EE80403E3E5CFEDFFFBD7E5CFFAFF8D
:10106000E5CFF4FFE5CFF3FFE5CFF5FFE5CFF7FFE1
:10107000E5CFF6FFE5CF44F0E5CF43F0E5CF42F012
:10108000E5CF41F0E5CFDAFFE5CFD9FFE5CFEAFFC5
:10109000E5CFE9FFE5CFDAFF1100D8CFE4FFE0CFDD
:1010A000E4FFE46EDACFE4FFE2CFDAFFE9CFE4FF5A
:1010B000EACFE4FFD9CFE4FFDACFE4FF41C0E4FF99
:1010C00042C0E4FF43C0E4FF44C0E4FFF6CFE4FFC6
:1010D000F7CFE4FFF5CFE4FFF3CFE4FFF4CFE4FF75
:1010E000FACFE4FF00EE45F0040EE80403E3EECF90
:1010F000E4FFFBD7E6529EA003D09E900BEC0AF0D3
:101100009EAC03D09E9C4EEC0BF09EAA03D09E9A00
:101110004BEC0AF0E55200EE48F0040EE80403E35D
:10112000E5CFEDFFFBD7E5CFFAFFE5CFF4FFE5CF45
:10113000F3FFE5CFF5FFE5CFF7FFE5CFF6FFE5CF0E
:1011400044F0E5CF43F0E5CF42F0E5CF41F0E5CF05
:10115000DAFFE5CFD9FFE5CFEAFFE5CFE9FFE5CF3D
:10116000DAFFE550E5CFE0FFE5CFD8FF1000D9CF9B
:10117000E6FFE1CFD9FF81E97DE8FC0ED36E9B8CC1
:1011800058EC0BF0D950070FE66EDACFE6FFA8EC6B
:101190000AF042E9D9500C0FE66EDACFE6FF7CEC9C
:1011A00003F042E9D950380FE66EDACFE6FFB9EC2A
:1011B0000BF042E9C3EC05F0936A8A6A8F0EE66E83
:1011C0006CEC0CF041E9B50EE66E12EC0CF041E966
:1011D0009F909F9A9F869F9C9E0EE66EAEEC03F0BA
:1011E00041E99D869D809D8C190EE66EE66A6C0E27
:1011F000E66E0DEC0BF043E994EC07F03F0E8A6EBF
:101200008A6A050EE66EE66A01EBE6FF02EBE6FF90
:1012100048EC07F044E98A6A33EC06F0D950280F0D
:10122000E66EDACFE6FFD950050FE66EDACFE6FFBD
:101230000A0EE66E45EC05F045E9046E043404E35D
:10124000FC0E045C00E052D005502A0A25E0020A98
:1012500020E0010A1EE0230A01E048D0D950280FFF
:10126000E66EDACFE6FF04EB45F00001466B45BFC2
:10127000466945C0E6FF46C0E6FF0550E66EE66AF1
:10128000D9503A0FE66EDACFE6FF37EC0DF048E9B9
:101290002DD0A8EB06F02AD00650A90A17E0010AC3
:1012A0000CE0020A01E017D0030E046EBCEB28F03C
:1012B000BDEB29F0AA0E2A6E0ED0030E046EBDEB14
:1012C00028F0BCEB29F0A80E2A6E05D0010E046EA2
:1012D000A30E286E00D0D950280FE66EDACFE6FFB5
:1012E00004EBE6FF2EEC00F043E900D0D950280FC4
:1012F000E66EDACFE6FFD950050FE66EDACFE6FFED
:101300000A0EE66E13EC05F045E9046E043404E3BE
:10131000FC0E045C00E045D00550320A3DE02C0A8A
:1013200020E0010A1EE0140A01E03AD0D950280F4B
:10133000E66EDACFE6FF04EB45F00001466B45BFF1
:10134000466945C0E6FF46C0E6FF0550E66EE66A20
:10135000D950380FE66EDACFE6FFC2EC0BF048E961
:1013600020D0D950280FE66EDACFE6FF04EB45F027
:101370000001466B45BF466945C0E6FF46C0E6FF33
:101380000550E66EE66AD950340FE66EDACFE6FF16
:1013900051EC0CF048E905D0A8EB3CF0A9EB3DF08E
:1013A00000D039D77EE9E7CFD9FF1200D9CFE6FFC9
:1013B000E1CFD9FF81E946E88A70000EE66EE66A61
:1013C000E7EC0CF042E9D950010FE66EDACFE6FF08
:1013D000D950050FE66EDACFE6FF020EE66EA9ECF5
:1013E00005F045E9036E046AE8BE0468020E0318BE
:1013F00001E104500CE1D950010FE66EDACFE6FFAF
:101400000A0EE66E020EE66E2DEC05F044E947E9A1
:10141000E7CFD9FF1200D9CFE6FFE1CFD9FF81E9AD
:1014200042E88A72CFEC0CF0F350016EF450026E79
:10143000000EE66EE66A0B0EE66EE66AFBEC04F062
:1014400044E9000EE66EE66AB7EC0CF042E943E9C7
:10145000E7CFD9FF1200D9CFE6FFE1CFD9FF81E96D
:1014600042E88A769FEC0CF0F350016EF450026E65
:10147000000EE66EE66A0C0EE66EE66AFBEC04F021
:1014800044E9000EE66EE66A87EC0CF042E943E9B7
:10149000E7CFD9FF12009EAA4CD032EC0CF0E66EDA
:1014A0004BC0E9FF4CC0EAFFE9CF45F0EACF46F078
:1014B0004BC0E9FF4CC0EAFF040EEB500001EA6AA2
:1014C0004525E96E4651EA22E552E750EF6E4BC0E2
:1014D000E9FF4CC0EAFF040EE926000EEA22EF2ADB
:1014E0004BC0E9FF4CC0EAFF040EEB50040821E1B9
:1014F0004BC0E9FF4CC0EAFFE9CF45F0EACF46F028
:1015000045C0E6FF46C0E6FF1F0EE66E4BC0E9FF92
:101510004CC0EAFF040EEB50E66EFBEC04F044E92D
:101520004BC0E9FF4CC0EAFF040EE926000EEA2298
:10153000EF6A000150A70BD0AB98AB88000EE66EA7
:10154000E66A1E0EE66EE66AFBEC04F044E9120061
:10155000D9CFE6FFE1CFD9FF83E900EB4BF001EBF8
:101560004CF04BC0E9FF4CC0EAFF040EE926000E28
:10157000EA22EF6A41E9E7CFD9FF1200060EF66EC4
:10158000000EF76E000EF86E00010900F5503C6F7A
:101590000900F5503D6F03E13C6701D03DD00900E3
:1015A000F550376F0900F550386F0900F550396F65
:1015B00009000900F550E96E0900F550EA6E0900CE
:1015C00009000900F5503A6F0900F5503B6F09001A
:1015D0000900F6CF3EF0F7CF3FF0F8CF40F037C02C
:1015E000F6FF38C0F7FF39C0F8FF00013A5302E1B7
:1015F0003B5307E00900F550EE6E3A07F8E23B076F
:10160000F9D73EC0F6FF3FC0F7FF40C0F8FF00012A
:101610003C07000E3D5BBFD71200D9CFE6FFDACF03
:10162000E6FFE1CFD9FFE2CFDAFF85E9AC6AAB6A2A
:1016300002B0AC8802A202D0AC8CAB8C02B4AC8EEF
:1016400002A602D0AB8801D0AB8A02B8AC849E98C7
:1016500002BAAB8602AC02D09D8A01D09D9A9E9AB6
:1016600002AE02D09D8801D09D9800EBAFFF000133
:1016700001EB45F0466B45C0B0FFAC8AAB8E949C45
:10168000948EAC50100B04E0AC50800B01E1948CB4
:1016900041E9E5CFDAFFE7CFD9FF1200000EE66E91
:1016A000E66A320EE66EE66AFBEC04F044E91200EC
:1016B0000B0EE66E840EE66ED30EE66E87EC0BF034
:1016C00043E9870EE66EFFEC0CF041E91200D9CF3A
:1016D000E6FFE1CFD9FF83E961EC0DF007EC00F004
:1016E000000901E0FBD752EC0DF0F3CF45F0F4CF49
:1016F00046F000EBE9FF01EBEAFF45C0EEFF46C014
:10170000EDFF41E9E7CFD9FF12005EEF0DF0D9CF31
:10171000E6FFDACFE6FFE1CFD9FFE2CFDAFF85E9D6
:10172000C26AC06A01407F0B3C0BC26E0138F00BED
:10173000300B0001456F0F0E00144511C16E0250B1
:10174000040DF350380B466F02380F0B070B456F33
:10175000800E021445114611C06E01AE03D09E9C4E
:101760009D8CF28CC28041E9E5CFDAFFE7CFD9FF4B
:101770001200D9CFE6FFE1CFD9FF83E941E9E7CFF6
:10178000D9FF1200D9CFE6FFE1CFD9FF89E9490E91
:10179000E66E000EE66E67EC0BF042E900014AC00F
:1017A00045F0466B0028E96E000E0120EA6E45C048
:1017B000EFFF00014951E66E00EBE9FF01EBEAFFA4
:1017C000E552E750EF6E41E9E7CFD9FF1200D9CFDC
:1017D000E6FFDACFE6FFFA0EE3CFD9FFFB0EE3CF49
:1017E000DAFFFC0EE3CFE9FFFD0EE3CFEAFFE9CF1E
:1017F000F3FFEACFF4FFF80EE35003E1F90EE350F4
:1018000008E0F80EE30602E2F90EE306DECFEEFF93
:10181000F2D7FF0EE3CFDAFFE552FF0EE3CFD9FF99
:10182000E5521200D9CFE6FFDACFE6FFE1CFD9FFCC
:10183000E2CFDAFF83E97E0E0014CD6E00AC02D059
:10184000CD8E01D0CD9ECF6ACE6A9E9000AE02D0E2
:101850009D8001D09D90CD8041E9E5CFDAFFE7CFB3
:10186000D9FF1200D9CFE6FFDACFE6FFE1CFD9FFEB
:10187000E2CFDAFF82E941E8F20E00015017ABAC8B
:1018800003D05091ABB05081ABB45085ABB2508710
:10189000AE50026E025042E9E5CFDAFFE7CFD9FF42
:1018A0001200D9CFE6FFE1CFD9FF89E91E0E041857
:1018B00001E1055001E10CD01F0E041801E10550B3
:1018C00007E100500224E96E01500320EA6EEF6A3E
:1018D00041E9E7CFD9FF1200D9CFE6FFDACFE6FF23
:1018E000E1CFD9FFE2CFDAFF83E97F0E0014D56E96
:1018F000D76AD66AF29400AE02D0F28A01D0F29A88
:10190000D58E41E9E5CFDAFFE7CFD9FF1200D9CF75
:10191000E6FFDACFE6FFE1CFD9FFE2CFDAFF84E9D5
:1019200042E880EB04F081EB05F005EBB3FF04EB3C
:10193000B2FF43E9E5CFDAFFE7CFD9FF1200D9CFF5
:10194000E6FFDACFE6FFE1CFD9FFE2CFDAFF82E9A7
:1019500042E8B250026EB350036E02EBF3FF03EBAA
:10196000F4FF43E9E5CFDAFFE7CFD9FF1200D9CF83
:10197000E6FFDACFE6FFE1CFD9FFE2CFDAFF84E975
:1019800042E880EB04F081EB05F005EBCFFF04EBC0
:10199000CEFF43E9E5CFDAFFE7CFD9FF1200D9CF79
:1019A000E6FFDACFE6FFE1CFD9FFE2CFDAFF82E947
:1019B00042E8CE50026ECF50036E02EBF3FF03EB12
:1019C000F4FF43E9E5CFDAFFE7CFD9FF1200D9CF23
:1019D000E6FFDACFE6FFE1CFD9FFE2CFDAFF84E915
:1019E00042E880EB04F081EB05F005EBD7FF04EB58
:1019F000D6FF43E9E5CFDAFFE7CFD9FF1200D9CF11
:101A0000E6FFDACFE6FFE1CFD9FFE2CFDAFF83E9E5
:101A1000C30EC2140001456F00407F0B3C0B451103
:101A2000C26E41E9E5CFDAFFE7CFD9FF1200FF0E22
:101A3000E35000014F6F480E01D04C0EE76EE72EC9
:101A4000FED7E76AE72EFED74F2FF7D71200000E1A
:101A5000F36E00EE00F00D0E01D81200EA6002D025
:101A6000EE6AFCD7F350E9601200EE6AFCD7D9CFDA
:101A7000E6FFE1CFD9FF89E942E880EB09F081EB8D
:101A80000AF043E9E7CFD9FF12001CEE00F02CEE7C
:101A900000F0F86ABEEC0AF063EC0DF0B7EC08F069
:101AA000FBD71200C4CF47F047C048F00001476B96
:101AB000C3504711F36E48C0F4FF1200C2909D9CC2
:081AC0001200C28212001200A4
:020000040030CA
:0300010008191EBD
:0200050080C0B9
:00000001FF
