:0400000069EF00F0B4
:10000800FACF87F0FBCF88F0E9CF89F0FDED0EF04D
:10001800D8CF1FF0E8CF20F0E0CF21F0FACF22F0C0
:10002800FBCF23F0E9CF24F0EACF25F0E1CF26F08B
:10003800E2CF27F0D9CF28F0DACF29F0F3CF2AF092
:10004800F4CF2BF0F6CF2CF0F7CF2DF0F8CF2EF021
:10005800F5CF2FF09EA001D001D004D09E9098EC4F
:1000680011F000D09EAC01D001D004D09E9CA1EC30
:1000780013F000D09EAA01D001D004D09E9AA2EC21
:100088000DF000D02FC0F5FF2EC0F8FF2DC0F7FFF0
:100098002CC0F6FF2BC0F4FF2AC0F3FF29C0DAFFFB
:1000A80028C0D9FF27C0E2FF26C0E1FF25C0EAFF2C
:1000B80024C0E9FF23C0FBFF22C0FAFF21C0E0FFF4
:1000C80020C0E8FF1FC0D8FF100049EF12F0000E53
:1000D80002010201756F000E0201746FFC0ED36EEF
:1000E8009B8CC2EC11F00201020E00010001966F18
:1000F8000201880E0001956F0001F6EC13F0020171
:10010800020E00010001966F0201920E0001956F28
:100118000001C8EC0FF00201020E00010001966F09
:100128000201860E0001956F00012EEC14F049ECD7
:1001380010F0000E936E000E8A6E0101C26F8F0ED2
:1001480000010001956F0101C25100015AEC13F042
:100158000101C26F850E00010001956F0101C251B6
:1001680000010DEC12F09F909F9A9F869F9C0101C1
:10017800C26F9E0E00010001956F0101C25100017E
:1001880081EC13F09D869D80A0820101C26F6C0EE8
:1001980000010001956F0101C251000E000100012C
:1001A800976F190E0001966F0001FDEC0DF05CECE5
:1001B80014F03F0E8A6E000E8A6E8DC26CF18EC2EC
:1001C8006DF1000E010101016F6F050E01016E6FE7
:1001D800010152EC14F084C26CF185C26DF1000E7D
:1001E800010101016F6F050E01016E6F010152ECF3
:1001F80014F0000E8A6E00D095EC0BF00101C26F6E
:100208000A0E01010101826F0101C2510201020EB1
:1002180001010101846F0201900E0101836F020147
:10022800020E01010101866F0201760E0101856F40
:100238000101B9EC12F002010201916F0201020101
:1002480091AF01D001D077D18AD189D188D173D12A
:100258000201020E010101016D6F0201710E01011F
:100268006C6F0201010190C26EF1010101016F6B17
:1002780002010201915101010101706F0101716BCD
:10028800010170BF71070201020E01010101736FC4
:100298000201760E0101726F010157EC14F05FD173
:1002A8000101C26F000E020102018F6F0101C251EC
:1002B8001BD084C26CF185C26DF1020102018F511D
:1002C800010D0201760EF324D96E0201020EF4200C
:1002D800DA6EDF50010101016E6F010191EC13F03C
:1002E800020102018F2B00D0020102018F5102018D
:1002F800020191BF07D0FF0A02019125D8B001D0B1
:1003080001D0D7D700D00101C26F000E020102014F
:100318008F6F0101C25119D084C26CF185C26DF191
:100328000201020E010101016F6F0201830E01013A
:100338006E6F010174EC0CF083C295F00001B0EC13
:1003480013F0020102018F2B00D0040E02010201FA
:1003580084250101C26F000E0201020185210101FD
:10036800C36FC2C1F6FFC3C1F7FF0900F5CFC4F1DF
:100378000900F5CFC5F1010E0101C427000EC52300
:10038800020102018F510101C66FC76B0101C751FC
:10039800800A0101C86FC4510101C65D0101C55140
:1003A800800A0101C859D8A001D001D0B5D7D7D04B
:1003B800D6D00101C26F9E0E02010201766F0101C3
:1003C800C2510101C26F010E020102018F6F0101CA
:1003D800C2511AD08DC26CF18EC26DF102010201B8
:1003E8008F51010D0201760EF324010101016E6F98
:1003F8000201020EF42001016F6F010174EC0CF090
:10040800020102018F2B00D002018DC2F6FF02010A
:100418008EC2F7FF0900F5CFC2F10900F5CFC3F18D
:10042800020102018F510101C46FC56B0101C55161
:10043800800A0101C66FC2510101C45D0101C351A7
:10044800800A0101C659D8A001D001D0C3D700D075
:10045800040E020102018D250101C26F000E020186
:1004680002018E210101C36FC2C1F6FFC3C1F7FFAC
:100478000800F550020F00010001956F0201020EFD
:1004880000010001976F0201760E0001966F0001CE
:1004980015EC08F064D076C273F261D03CD001014B
:1004A800C26F030E02010201916F0101C25181C2A4
:1004B80076F282C277F20101C26FAA0E020102012E
:1004C800786F0101C2514BD00101C26F030E0201C6
:1004D8000201916F0101C25182C276F281C277F2A4
:1004E8000101C26FA80E02010201786F0101C25119
:1004F80036D00101C26F010E02010201916F0101A4
:10050800C2510101C26FA30E02010201766F0101FF
:10051800C25125D024D0020102017351A80AD8B4CF
:10052800D3D7010AD8B4E5D7030AD8B4B8D717D0B7
:1005380016D015D014D00201020190510A0AD8B47D
:1005480087D6220AD8B4ACD6010AD8B4A4D7030AED
:10055800D8B4E1D7050AD8B42CD701D000D001010E
:10056800C26F0A0E01010101826F0101C25102012D
:10057800020E01010101846F0201900E0101836FD7
:100588000201020E01010101866F0201760E0101CE
:10059800856F0101D1EC12F002010201916F020195
:1005A800020191AF01D001D093D026D625D624D60A
:1005B8008FD00201020E01010101866F0201860E31
:1005C8000101856F0201010190C287F1010101015A
:1005D800886B02010201915101010101896F01013A
:1005E8008A6B010189BF8A070201020E010101011C
:1005F8008C6F0201760E01018B6F010182EC10F005
:10060800FBD500D002010201744B752B02010201D7
:1006180074A101D001D014D00101C26F020E0001F3
:100628000001956F0101C2510101C36F9E0E0001C7
:100638000001966F0101C351000146EC0DF0DCD5B5
:100648000101C26F020E00010001956F0101C25144
:100658000101C36F9A0E00010001966F0101C35199
:10066800000146EC0DF0C8D5C7D50201020E010104
:100678000101B56F02016C0E0101B46F02010101A5
:1006880090C2B6F101010101B76B0201020191515B
:1006980001010101B86F0101B96B0101B8BFB907C8
:1006A8000201020E01010101BB6F0201760E010178
:1006B800BA6F8DC2BCF18EC2BDF10101F8EC09F030
:1006C80000D076C281F277C282F296D595D594D5BC
:1006D8000201020190510B0AD8B46BD7150AD8B49D
:1006E80091D7010AD8B48ED73F0AD8B4BED7120A18
:1006F800D8B4E7D781D580D57FD57ED569EF00F00E
:10070800000E01010101A66F000E0101A56FD1D1F4
:100718009FC195F0A0C196F0000109EC10F000010E
:1007280000019651800A800F030ED8B40001955D30
:10073800D8A001D001D0CDD1000E01010101A66FD2
:10074800000E0101A56F01010101A651800A800F69
:10075800030ED8B4A55DD8A001D001D002D028D00E
:1007680027D09FC16CF1A0C16DF10001A30E01015A
:100778000101A525010101016E6F0001000E0101B3
:100788000101A62101016F6F010174EC0CF0010158
:100798000101A54BA62B01010101A651800A800F7A
:1007A800030ED8B4A55DD8A001D001D0DAD700D007
:1007B80000010001A3517E0AD8B401D001D002D0B3
:1007C80088D187D120EEA3F011EE6CF0280EDECF91
:1007D800E6FFE82EFCD7010103EC14F001016CC11F
:1007E8009CF001016DC19DF00001976F010E0001A1
:1007F8000001A16F000197516CD16BD19FC195F099
:10080800A0C196F0000109EC10F0000195C0A3F119
:10081800000196C0A4F1000E01010101A66F000EAF
:100828000101A56F1FD09FC16CF1A0C16DF100013E
:10083800A60E000100019A25010101016E6F000159
:10084800000E000100019B2101016F6F010174EC92
:100858000CF001010101A54BA62B000100019A4BE8
:100868009B2B00D001010101A651800A0001976F5E
:100878000101A35101010101A55D01010101A4517B
:10088800800A00019759D8A001D001D0CCD7000127
:1008980000019C51000100019A5D000100019D5179
:1008A800000100019B59D8A001D001D0BCD700D0CD
:1008B800000100019D51000100019B1906E10001A2
:1008C80000019C51000100019A19D8A401D001D05F
:1008D80000D19FC195F0A0C196F0000109EC10F07D
:1008E800000195C0A3F1000196C0A4F10101010126
:1008F800A451800A800F010ED8B4A35DD8A001D0FE
:1009080001D0E7D09FC16CF1A0C16DF10001000ECC
:10091800010101016F6F0001CA0E01016E6F010133
:1009280074EC0CF00001976F020E00010001A16F3A
:1009380000019751CED0CDD0CCD00001000E0001DF
:100948000001966F0001A30E0001956F000105ECF0
:100958000CF000010001CA19D8B401D001D069D047
:10096800B8D0B7D066D08AD089D088D087D086D082
:1009780085D00001000E01010101A26F0001A60E41
:100988000101A16F010120EE02F00101A151D92658
:100998000101A251DA22DF50D8B401D001D009D028
:1009A8000001976F010E00010001A26F000197512D
:1009B80065D00001976F000E00010001A26F0001D1
:1009C80097515CD05BD05AD00001000E01010101A3
:1009D8006D6F0001A30E01016C6F0101010E010191
:1009E80001016F6F0101A70E01016E6F010153EC48
:1009F80007F001010101A851030F01010101816FF5
:100A08000001976F2F0E01010101826F00019751BC
:100A18000101010E01010101846F0101A70E01010D
:100A2800836F010118EC13F029D028D027D026D0E5
:100A380025D000010001A651000AD8B41FD0010A30
:100A4800D8B41CD0090AD8B419D0010AD8B416D021
:100A58001E0AD8B413D0970AD8B410D0010AD8B453
:100A6800B3D7090AD8B40AD0010AD8B482D7030A7E
:100A7800D8B404D01D0AD8B401D000D00001976FB3
:100A8800030E00010001A16F0001975122D0000E52
:100A9800000100019B6F000E00019A6F0001976F23
:100AA800000E00010001A16F0001975112D011D072
:100AB80010D000010001A151000AD8B429D6010ABA
:100AC800D8B49CD6030AD8B438D7010AD8B4DFD72B
:100AD80000D0120000017A6F000E00010001866F3D
:100AE80000017A5100017A6F000E00010001826F47
:100AF80000017A5100017A6F000E000100017F6F3A
:100B080000017A5100017A6F000E00010001806F28
:100B180000017A5100017A6F000E00010001836F15
:100B280000017A5100017A6F000E00010001856F03
:100B380000017A51C7A001D001D00BD0C9CF84F0F1
:100B480000017A6F010E00010001866F00017A51E1
:100B580000D000010001856701D001D09FD174D178
:100B680073D19CD1000120EE0DF000019851D926D7
:100B780000019951DA22090EDF6E000120EE1CF007
:100B880000019851D92600019951DA22DF50C96E27
:100B980085D1000120EE0CF000019851D926000102
:100BA8009951DA22DF2A000120EE1BF0000198514A
:100BB800D92600019951DA22DF5000017A6F00012D
:100BC80020EE1AF000019851D92600019951DA2235
:100BD800DF5000017A5DD8B001D001D02FD00001DC
:100BE80020EE1BF000019851D92600019951DA2214
:100BF800DF5000017A6F00017A51010D100EF326C3
:100C0800000EF422F350000100019825D96EF4502B
:100C1800000100019921DA6EDF50C96EC5BC01D010
:100C280001D03CD1000120EE1BF000019851D926DB
:100C380000019951DA22DF2A31D130D100017A6FCF
:100C4800010E00010001826F00017A51000120EEBF
:100C58000DF000019851D92600019951DA22050EAC
:100C6800DF6E00017A6F010E00010001836F000141
:100C78007A51C58400D0C5B401D001D0FCD70ED1BB
:100C88000DD10CD1000120EE0DF000019851D926AC
:100C980000019951DA220F0EDF6EC9CF81F00001F1
:100CA80020EE1CF000019851D92600019951DA2252
:100CB800DF50C96EF3D0000120EE0DF0000198510D
:100CC800D92600019951DA22060EDF6EAA0EC96EE6
:100CD800E5D0000120EE0DF000019851D926000161
:100CE8009951DA220A0EDF6EC9CF81F0000120EE99
:100CF8001CF000019851D92600019951DA22DF50E1
:100D08000109C96ECBD0000120EE0DF00001985109
:100D1800D92600019951DA22100EDF6EE8EC13F0A3
:100D2800C582BCD0000100018651D8B401D001D0E1
:100D3800B5D0000100019F51010DF35000010001E1
:100D48009825D96EF450000100019921DA6E00014E
:100D580084C0DFFFFF0E00010001A02500017A6FAB
:100D680000017B6BFF0E00017B23000100019F51F6
:100D780000017C6F7D6B00017D51800A00017E6F50
:100D880000017A5100017C5D00017B51800A00015D
:100D98007E59D8B001D001D011D0000120EE0DF05D
:100DA80000019851D92600019951DA220A0EDF6E06
:100DB800000100019F2BC59AC58870D0A0C076F0AD
:100DC80000017A6F280E00010001776F00017A5147
:100DD80098C078F099C079F0000144EC13F0000154
:100DE80020EE0DF000019851D92600019951DA2220
:100DF800040EDF6EC58AC58851D050D04FD0C58645
:100E0800000120EE0DF000019851D92600019951FA
:100E1800DA220D0EDF6E000120EE0CF00001985171
:100E2800D92600019951DA22DF2A38D0000120EEB4
:100E38000DF000019851D92600019951DA22050ECA
:100E4800DF6EC5842BD02AD0000120EE0DF0000102
:100E58009851D92600019951DA22DF50040AD8B4F2
:100E6800E5D7010AD8B41AD0030AD8B44CD70F0A68
:100E7800D8B48FD6030AD8B4C2D7010AD8B472D668
:100E8800070AD8B4FFD6010AD8B44CD7020AD8B496
:100E980012D71F0AD8B41DD701D000D01200010103
:100EA80001016D516C11D8B401D001D0B9D0010144
:100EB80001016F516E11D8A401D001D002D0B0D079
:100EC800AFD0010120EE03F001016C51D9260101D8
:100ED8006D51DA22DF50810AD8B401D001D002D096
:100EE8009FD09ED0010120EE08F001016C51D92657
:100EF80001016D51DA226EC1E1FF6FC1E2FFDFCF60
:100F0800E7FF010120EE09F001016C51D92601012A
:100F18006D51DA22010110EE01F001016E51E12656
:100F280001016F51E222DFCFE7FF010120EE0AF055
:100F380001016C51D92601016D51DA22010110EE2F
:100F480002F001016E51E12601016F51E222DFCF6B
:100F5800E7FF000E00010001966F000E0001956F7B
:100F6800000E00010001966F000E0001956F37D04A
:100F78000B0E0001000195250101706F000E0001A4
:100F8800000196210101716F0101705101010101F8
:100F98006C25D96E01017151010101016D21DA6ED3
:100FA800030E0001000195250101726F000E00017A
:100FB800000196210101736F0101725101010101C4
:100FC8006E25E16E01017351010101016F21E26E8D
:100FD800DFCFE7FF00010001954B962B00D0010100
:100FE80020EE01F001016E51D92601016F51DA227C
:100FF800DF500101706F716B000100019651800A8A
:101008000101726F705100010001955D010171517C
:10101800800A01017259D8A001D001D0A9D700D007
:101028001200000120EE1AF000019851D9260001A3
:101038009951DA22000EDF6E43D0000120EE1AF03B
:1010480000019851D92600019951DA22DF50010197
:101058006C6F01016C51010DF350000100019625E0
:10106800D96EF450000100019721DA6E000110EEEC
:101078001AF000019851E12600019951E222E75047
:1010880001016D6F01016D51010D100EF326000E67
:10109800F422F350000100019825E16EF45000019C
:1010A80000019921E26EDFCFE7FF000120EE1AF080
:1010B80000019851D92600019951DA22DF2A00D07F
:1010C800000120EE1AF000019851D926000199512B
:1010D800DA22DF5001016C6F000100019551010116
:1010E8006C5DD8A001D001D0A8D700D0000120EEB7
:1010F8001AF000019851D92600019951DA2200010D
:1011080095C0DFFF000120EE1BF000019851D926A1
:1011180000019951DA22010EDF6E000120EE0DF078
:1011280000019851D92600019951DA220B0EDF6E81
:10113800000120EE10F000019851D92600019951C4
:10114800DA22000110EE1CF000019851E12600019E
:101158009951E222DFCFE7FFC58000D0C5B001D0AA
:1011680001D0FCD700D01200010120EE35F00101BA
:101178007651D92601017751DA22DF5001010101A8
:101188007D6F010101017D510D0DF3500101010138
:10119800762501010101806FF450010101017721D9
:1011A8000101816F010E80C1D9FF81C1DAFFDF62C1
:1011B80001D001D075D0010120EE01F0010180516C
:1011C800D92601018151DA22DF500101010178613C
:1011D80001D001D003D0FD0E66D065D0010120EE0C
:1011E80001F001018051D92601018151DA22DF5035
:1011F8000001956F00019551010101017E6F010108
:101208007F6B7BC16CF17CC16DF1030E01010101A3
:1012180080250001956F000E010101018121000167
:10122800966F95C06EF196C06FF17EC170F17FC167
:1012380071F1010142EC11F0010120EE35F00101DC
:101248007651D92601017751DA22010110EE35F0E5
:1012580001017651E12601017751E222E7500001B0
:10126800956F00019529030BDF6E010120EE02F056
:1012780001018051D92601018151DA2279C1E1FFAA
:101288007AC1E2FFDFCFE7FF80C1D9FF81C1DAFF72
:10129800000EDF6E010101017E5105D004D003D09C
:1012A800FC0E01D000D01200000120EE35F0000144
:1012B8006A51D92600016B51DA22DF500001000182
:1012C800736F0001000173510D0DF350000100010F
:1012D8006A2500010001766FF450000100016B21BE
:1012E8000001776F010E76C0D9FF77C0DAFFDF62A1
:1012F80001D001D075D0000120EE01F00001765137
:10130800D92600017751DA22DF50000100016C6113
:1013180001D001D003D0FD0E66D065D0000120EECB
:1013280001F000017651D92600017751DA22DF5009
:101338000001716F0001715100010001746F00011B
:10134800756B6FC060F070C061F0030E00010001A2
:1013580076250001716F000E000100017721000160
:10136800726F71C062F072C063F074C064F075C0CF
:1013780065F000016DEC11F0000120EE35F0000180
:101388006A51D92600016B51DA22000110EE35F0BE
:1013980000016A51E12600016B51E222E750000189
:1013A800716F00017129030BDF6E000120EE02F05E
:1013B80000017651D92600017751DA226DC0E1FF8C
:1013C8006EC0E2FFDFCFE7FF76C0D9FF77C0DAFF54
:1013D800000EDF6E00010001745105D004D003D067
:1013E800FC0E01D000D0120001010101B6511E0A05
:1013F800B711D8A401D001D002D08CD08BD0010174
:101408000101B6511F0AB711D8A401D001D011D0DB
:1014180001010101B85101010101BA25D96E01018B
:101428000101B95101010101BB21DA6E000EDF6E25
:1014380071D001010101B651200AB711D8A401D019
:1014480001D068D0000E01010101C16F000E010139
:10145800C06F1ED0BCC16CF1BDC16DF101010101AD
:10146800C05101010101BA25D96E01010101C15123
:1014780001010101BB21DA6EDF50010101016E6F2C
:10148800010191EC13F001010101C04BC12B00D007
:1014980001010101C151800A0101BE6F0101B8516A
:1014A80001010101C05D01010101B951800A010179
:1014B800BE59D8A001D001D0CDD700D0B8C19BF17A
:1014C800B9C19CF1BAC19DF1BBC19EF1BCC19FF1EC
:1014D800BDC1A0F1010184EC03F00101BE6F000E53
:1014E80001010101816F0101BE510101BF6F2F0E82
:1014F80001010101826F0101BF51000E01010101CB
:10150800846F000E0101836F010118EC13F002D003
:1015180001D000D012000101010178C17CF1010164
:1015280001017D6B010120EE34F001017651D926CD
:1015380001017751DA22DF50010101017E6F0101BB
:1015480001017E510D0DF3500101010176250101C4
:1015580001017F6FF4500101010177210101806FC2
:101568007FC1D9FF80C1DAFFDF50D8B401D001D0E4
:1015780003D0FF0E52D051D0010120EE01F001013D
:101588007F51D92601018051DA22010178C1DFFF9C
:10159800010120EE02F001017F51D926010180519D
:1015A800DA22010179C1DFFF030E010101017F2564
:1015B800010101016C6F000E01010101802101018F
:1015C8006D6F7AC16EF17BC16FF17CC170F17DC125
:1015D80071F1010142EC11F0010120EE34F001013A
:1015E8007651D92601017751DA22010110EE34F043
:1015F80001017651E12601017751E222E75000010D
:10160800956F00019529030BDF6E7FC1D9FF80C15B
:10161800DAFF010EDF6E010E00D01200000100019A
:101628006CC071F000010001726B000120EE34F013
:1016380000016A51D92600016B51DA22DF500001FE
:101648000001736F0001000173510D0DF35000018B
:1016580000016A2500010001746FF45000010001C7
:101668006B210001756F74C0D9FF75C0DAFFDF50B8
:10167800D8B401D001D003D0FF0E52D051D0000110
:1016880020EE01F000017451D92600017551DA22CB
:1016980000016CC0DFFF000120EE02F00001745170
:1016A800D92600017551DA2200016DC0DFFF030E53
:1016B80000010001742500010001606F000E0001A7
:1016C800000175210001616F6EC062F06FC063F0A8
:1016D80071C064F072C065F000016DEC11F000019A
:1016E80020EE34F000016A51D92600016B51DA224C
:1016F800000110EE34F000016A51E12600016B513F
:10170800E222E7500001706F00017029030BDF6EC1
:1017180074C0D9FF75C0DAFF010EDF6E010E00D06C
:101728001200010116EC11F0010101016F510101D4
:101738006E11D8A401D001D002D062D061D08A86BF
:101748000101706F010E000100019E6F01017051CF
:1017580000D00101010E00010001966F0101000E89
:101768000001956F000165EC12F00009D8B401D0B2
:1017780001D00BD00101706F000E000100019E6FB7
:10178800010170518A963CD03BD00101010E000145
:101798000001966F0101360E0001956F000165EC9E
:1017A80012F00009D8B401D001D00BD00101706F3C
:1017B800000E000100019E6F010170518A9620D031
:1017C8001FD00101706F0A0E00010001956F010121
:1017D800705100011AEC14F08AA601D002D0010E53
:1017E80001D0000E0101706F01017047704770470A
:1017F8008A5001017019F70B70198A6EAAD7A9D7F8
:1018080012000101946F000E010101019A6F01019C
:101818009451000195C0D9FF000196C0DAFF11EE7E
:101828006CF0280EDECFE6FFE82EFCD7010103ECB2
:1018380014F001016CC196F101016DC197F1000E20
:1018480001010101996F000E0101986F000E01015D
:101858000101996F000E0101986F21D0030E01015B
:10186800010198250101946F000E010101019921E0
:101878000101956F01019451000100019525D96E70
:1018880001019551000100019621DA6EDF50010136
:1018980001019A2701010101984B992B00D0010100
:1018A8000101965101010101985D01010101975162
:1018B800010101019959D8A001D001D0CFD700D09A
:1018C800010101019A5100080101946F0101940579
:1018D800010101019A6F010101019A5100D0120022
:1018E800010101016F516E11D8A401D001D002D0BD
:1018F80064D063D06CC195F06DC196F0000101EC25
:1019080013F00009D8B401D001D003D056D055D077
:1019180054D0060E010101016C250101706F000E03
:10192800010101016D210101716F70C1F6FF71C1E3
:10193800F7FF0900F5CFD9FF0900F5CFDAFF6EC12F
:10194800E1FF6FC1E2FFDFCFE7FF000E01010101F8
:10195800766F000E0101756F05D001010101754B0D
:10196800762B00D0040E010101016C250101706F76
:10197800000E010101016D210101716F70C1F6FFB7
:1019880071C1F7FF0900F5CF72F10900F5CF73F1C6
:10199800010101017651800A0101746F7251010140
:1019A8000101755D01017351800A01017459D8A0C4
:1019B80001D001D0D2D701D000D012008AA001D026
:1019C80002D0010E01D0000E00017D6F8A50000187
:1019D8007D19FE0B7D198A6E000E00010001616FF2
:1019E800000E0001606F000149EC14F000017D6FEA
:1019F800020E00010001786F00017D510001000E08
:101A0800000100017A6F0001810E0001796F000169
:101A1800000E000100017C6F0001830E00017B6F46
:101A28000001E9EC12F0000100017F6F0001806BFA
:101A380000017FBF8007000100017F51020A801169
:101A4800D8A401D001D01DD000017D6F020E000185
:101A58000001766F00017D5100017E6F0A0E0001C2
:101A68000001776F00017E510001000E00010001A6
:101A7800796F0001830E0001786F000144EC13F0C8
:101A880000D0120095C0A0F00001976F000E000171
:101A980000019F6F00019751000E010101016D6F58
:101AA800000E01016C6F010101016D51800A800F68
:101AB8000A0ED8B46C5DD8A001D001D002D022D0D3
:101AC80021D0010101016C51000100019825D96E56
:101AD800010101016D51000100019921DA6E000E2A
:101AE800DF6E010101016C4B6D2B010101016D518C
:101AF800800A800F0A0ED8B46C5DD8A001D001D03E
:101B0800E0D700D0000120EE1CF000019851D92642
:101B180000019951DA22000196C0DFFF000120EE92
:101B28000DF000019851D92600019951DA220C0EC6
:101B3800DF6EBEEC13F0C58000D012009EAA01D063
:101B480001D041D020EE04F03050D9263150DA22AD
:101B5800DF501B6E1B50010DF3503024D96EF4502A
:101B68003120DA6E81EC12F0DF6E20EE04F0305096
:101B7800D9263150DA22DF2A20EE04F03050D92657
:101B88003150DA22040EDF6201D001D01CD020EEE1
:101B980004F03050D9263150DA22DF50176E1B6E10
:101BA800200E186E1B5030C019F031C01AF06FECBF
:101BB80013F020EE04F03050D9263150DA22000E0E
:101BC800DF6E01D000D034A601D001D011D0AB987F
:101BD800AB881B6E000E176E1B501C6E1E0E186E07
:101BE8001C50000E1A6E000E196E6FEC13F000D028
:101BF8001200000EAC6E000EAB6E0001000195A144
:101C080001D001D001D0AC880001000195A301D01A
:101C180001D002D0AC8CAB8C0001000195A501D09D
:101C280001D001D0AC8E0001000195A701D001D0F0
:101C380002D0AB8801D0AB8A0001000195A901D080
:101C480001D001D0AC849E980001000195AB01D071
:101C580001D001D0AB860001000195AD01D001D0C3
:101C680002D09D8A01D09D9A9E9A0001000195AFED
:101C780001D001D002D09D8801D09D9896C0AFFFB9
:101C8800000100019751B06EAC8AAB8E949C948E83
:101C9800ACA801D001D006D0ACBE01D001D002D092
:101CA800948C00D012000DC012F0136A20EE34F0AC
:101CB8000B50D9260C50DA22DF50146E14500D0D3B
:101CC800F3500B24156EF4500C20166E15C0D9FF76
:101CD80016C0DAFFDF50D8B401D001D003D0FF0E10
:101CE8003AD039D020EE01F01550D9261650DA2214
:101CF8000DC0DFFF20EE02F01550D9261650DA226B
:101D08000EC0DFFF030E1524016E000E1620026EB2
:101D18000FC003F010C004F012C005F013C006F0A5
:101D2800E9EC11F020EE34F00B50D9260C50DA22F1
:101D380010EE34F00B50E1260C50E222E750116E01
:101D48001128030BDF6E15C0D9FF16C0DAFF010E8C
:101D5800DF6E010E00D01200000100019E6701D065
:101D680001D002D045D044D00001E7EC10F00001CA
:101D78000001635100016211D8B401D001D002D032
:101D880037D036D0000124EC14F000010001615175
:101D980000016011D8A401D001D002D029D028D0E8
:101DA8000101010E00010001616F0101000E000137
:101DB800606F00019DEC12F00009D8B401D001D089
:101DC80002D016D015D00101010E00010001616F8B
:101DD8000101360E0001606F00019DEC12F0000950
:101DE800D8B401D001D002D003D002D060EC14F0F6
:101DF80012000600EACF8AF0E1CF8BF0E2CF8CF038
:101E0800D9CF8DF0DACF8EF0F3CF8FF0F4CF90F0FA
:101E1800F6CF91F0F7CF92F0F8CF93F0F5CF94F09A
:101E28009EA601D001D004D09E96DAEC13F000D023
:101E3800F2A401D001D004D0F294E2EC0CF000D06E
:101E4800B0EC0EF094C0F5FF93C0F8FF92C0F7FF16
:101E580091C0F6FF90C0F4FF8FC0F3FF8EC0DAFF89
:101E68008DC0D9FF8CC0E2FF8BC0E1FF8AC0EAFFBA
:101E780089C0E9FF88C0FBFF87C0FAFF1100000195
:101E880020EE34F000019551D92600019651DA224E
:101E9800000EDF6E000120EE35F000019551D926C5
:101EA80000019651DA22000EDF6E0001976F000ED6
:101EB800010101016C6F00019751030E010101013D
:101EC8006C6501D001D002D01CD01BD001010101EA
:101ED8006C510D0DF350000100019525D96EF45099
:101EE800000100019621DA6E000EDF6E010101018A
:101EF8006C2B030E010101016C6501D001D0E6D7FE
:101F080000D01200000EC26E000EC06E000100016B
:101F1800D89096313C0BC26E96C06CF101016C3BB7
:101F2800F00E6C17300E01016C170001000197517B
:101F38000F0B01016C11C16E95C06CF10101D890B5
:101F48006C370101D8906C37380E01016C1795C0B9
:101F58006DF101016D3B0F0E6D17070E01016D1735
:101F6800000100019551800B01016D1101016C11F7
:101F7800C06E0001000196AF01D001D003D09E9C35
:101F88009D8CF28CC280120095C098F096C099F092
:101F9800000120EE0BF000019851D926000199515B
:101FA800DA22000EDF6E000120EE0CF000019851DD
:101FB800D92600019951DA22000EDF6E000120EEC9
:101FC8000DF000019851D92600019951DA22050E29
:101FD800DF6E000120EE0FF000019851D9260001B4
:101FE8009951DA22000EDF6E0001976F000E000192
:101FF80000019F6F000197510001976F000E0001CB
:102008000001A06F000197511200040E00010001A9
:10201800952501016C6F000E000100019621010158
:102028006D6F6CC1F6FF6DC1F7FF0900F5CF6EF15A
:102038000900F5CF6FF1020E00010001952501019D
:10204800706F000E0001000196210101716F70C1CF
:10205800F6FF71C1F7FF0900F5CF72F10900F5CF5E
:1020680073F10101721F731F724B732B01016E51C3
:102078000101722500010001956F01016F510101F5
:1020880073210001966F00D0120001016D6F000EE0
:10209800000100019E6F01016D510101010E000157
:1020A8000001966F0101360E0001956F000143ECA7
:1020B8000FF00101010E00010001966F0101000EF1
:1020C8000001956F000143EC0FF00201020E0001C0
:1020D8000001966F0201360E0001956F000143EC76
:1020E8000FF00201020E00010001966F0201000EBE
:1020F8000001956F000143EC0FF0120085C1D9FF74
:1021080086C1DAFFDE2A000EDD2285C1D9FF86C12D
:10211800DAFFDE50010ADD10D8A401D001D023D0A7
:1021280085C1D9FF86C1DAFF000EDE6E000EDD6EB6
:102138000001966F000E01010101816F00019651A7
:102148000001976F1F0E01010101826F0001975175
:10215800000E01010101846F000E0101836F01016E
:102168002EEC13F000D01200F2AC01D001D00AD04E
:10217800000E010101016D6F000E01016C6F22D08C
:1021880021D020D0000110EC14F00001000196517C
:1021980000019511D8B401D001D00AD0000E010178
:1021A80001016D6F000E01016C6F0CD00BD00AD0CD
:1021B800000E010101016D6F010E01016C6F02D06B
:1021C80001D000D01200F2AC01D001D00AD0000E2C
:1021D80000010001636F000E0001626F22D021D060
:1021E80020D0000124EC14F000010001615100012D
:1021F8006011D8B401D001D00AD0000E000100014E
:10220800636F000E0001626F0CD00BD00AD0000E75
:1022180000010001636F010E0001626F02D001D05E
:1022280000D012000101B8EC10F0010101016D515C
:1022380001016C11D8A401D001D016D0000110EC16
:1022480014F000010001965100019511D8A401D0A5
:1022580001D00AD0000E010101016F6F010E0101CA
:102268006E6F0BD00AD009D0000E010101016F6F0B
:10227800000E01016E6F01D000D012006EC174F122
:102288006FC175F16CC172F16DC173F113D074C176
:10229800D9FF75C1DAFF72C1E1FF73C1E2FFDFCF79
:1022A800E7FF01010101744B752B01010101724B1C
:1022B800732B00D0010101017007D8A0710701013B
:1022C8007029D8B47129D8A401D001D0E0D700D0A2
:1022D800120062C068F063C069F060C066F061C057
:1022E80067F013D068C0D9FF69C0DAFF66C0E1FFA4
:1022F80067C0E2FFDFCFE7FF00010001684B692BF1
:1023080000010001664B672B00D000010001640743
:10231800D8A0650700016429D8B46529D8A401D0DC
:1023280001D0E0D700D012008AA201D002D0010E5D
:1023380001D0000E1B6E1B468A501B18FD0B1B1884
:102348008A6E320ECE6E37EC14F001C01DF002C05A
:102358001EF01B6E000E176E1B501C6E0B0E186EB7
:102368001C50000E1A6E000E196E6FEC13F0000E62
:10237800026E000E016E40EC14F0120001016E6F47
:10238800D30E00010001956F01016E5101016F6FBD
:10239800840E00010001966F01016F510101706FF9
:1023A8000B0E00010001976F01017051000186ECCE
:1023B8000FF001016E6F870E00010001956F01019A
:1023C8006E510001CCEC13F0120003C009F004C0F8
:1023D8000AF001C007F002C008F00FD009C0D9FF09
:1023E8000AC0DAFF07C0E1FF08C0E2FFDFCFE7FF5E
:1023F800094A0A2A074A082A00D00506D8A006066C
:102408000528D8B40628D8A401D001D0E7D700D031
:1024180012000001000195517E0BCD6E00010001F4
:1024280095AD01D001D002D0CD8E02D0CD9E00D086
:10243800000ECF6E000ECE6E9E900001000195AF8B
:1024480001D001D002D09D8001D09D90CD80120096
:1024580095C0D9FF96C0DAFF000110EE04F0000124
:102468009551E12600019651E222E652DE52DD50F6
:10247800E518DFCFE8FFD8B4E718D8B401D002D008
:10248800010E01D0000E00D0120002EE00F06C0E1A
:10249800EE6AE806FDE101EE00F06C0EEE6AE80671
:1024A800FDE100EE98F0330EEE6AE806FDE1346ACD
:1024B800336A326A316A306A000EF86E00016BEFD7
:1024C80000F0000120EE35F000019551D9260001F9
:1024D8009651DA22DF500001976F000197510D0DD8
:1024E800F350000100019525D96EF4500001000158
:1024F8009621DA6EDF5000D01200F20E3416ABAC23
:1025080001D001D007D03490ABA001D001D002D0C7
:10251800348000D0ABA401D001D001D03484ABA268
:1025280001D001D001D03486AECF01F0015000D0E7
:102538001200000120EE35F000016051D92600019B
:102548006151DA22DF500001626F000162510D0D06
:10255800F350000100016025D96EF450000100011C
:102568006121DA6EDF5000D012000101010E010175
:102578000101776F0101000E0101766F82C178F1C8
:1025880083C179F184C17AF185C17BF186C17CF17F
:102598000101B8EC08F000D012000101010E0101A0
:1025A8000101776F0101360E0101766F82C178F162
:1025B80083C179F184C17AF185C17BF186C17CF14F
:1025C8000101B8EC08F000D012000201020E00016F
:1025D80000016B6F0201000E00016A6F78C06CF099
:1025E80079C06DF07AC06EF07BC06FF07CC070F07F
:1025F800000158EC09F000D01200000120EE04F0B0
:1026080000019551D92600019651DA22D92ADD50C8
:10261800FF0AFF0ED8B4DF18D8B401D002D0010EDB
:1026280001D0000E00D012000101010E01010101CC
:10263800776F0101000E0101766F81C178F182C1C7
:1026480079F183C17AF184C17BF101018FEC0AF041
:1026580000D012000101010E01010101776F010193
:10266800360E0101766F81C178F182C179F183C19B
:102678007AF184C17BF101018FEC0AF000D01200DD
:102688000101010E000100016B6F0101000E000144
:102698006A6F76C06CF077C06DF078C06EF079C064
:1026A8006FF0000112EC0BF000D0120000010001E5
:1026B80095517F0BD56E000ED76E000ED66EF29434
:1026C8000001000195AF01D001D002D0F28A01D0FB
:1026D800F29AD58E12000101010E0C6E0101360E20
:1026E8000B6E17C00DF018C00EF019C00FF01AC00D
:1026F80010F057EC0EF000D0120094869488000E6B
:10270800C76E000EC66E000EC56EC686C78E0A0E50
:10271800C86E94869488C68A12006CC195F06DC103
:1027280096F000012CEC12F007D006D005D004D0AA
:1027380003D002D001D000D012001B6E000E176E1D
:102748001B501C6E320E186E1C50000E1A6E000EB6
:10275800196E6FEC13F01200ACAC01D001D007D0A9
:10276800AC9034A201D001D002D0AC8000D095C08A
:10277800ADFF120001D000D0C5501F0BD8A401D066
:1027880001D0FAD7C7B401D001D0F6D700D01200D3
:10279800C2CF96F0C30E0001961700010001D89031
:1027A80095313C0B00019611C26E1200C6500F0BFA
:1027B8000E0AD8A401D001D003D063EC14F003D0E2
:1027C8006EEC05F000D0120001D000D0C5501F0BF0
:1027D800D8A401D001D0FAD7C7B401D001D0F6D718
:1027E80000D0120095C030F096C031F020EE04F011
:1027F8003050D9263150DA22000EDF6E1200010166
:1028080001016D51010101016D6F010101016E515D
:1028180001016C6F00D01200000EF2AE010E000133
:102828000001956F0001966B00D01200FA0E00F0BF
:10283800E82EFDD700010001952FF8D700D012002F
:10284800000EF2AE010E00010001606F0001616B25
:1028580000D0120095C0D9FF96C0DAFF000EDE6ED8
:10286800000EDD6E1200CECF03F0CFCF04F003C010
:1028780001F004C002F0120001C003F002C004F02D
:1028880004C0CFFF03C0CEFF120060C062F061C079
:1028980063F063C0D7FF62C0D6FF120003D002D036
:1028A80001D000D0120072C195F073C196F01200E9
:1028B800D08EF28EF28C1200D38E0300120012001A
:020000040020DA
:08000000FFFFFFFFFFFFFFFF00
:020000040030CA
:0E000000FF08191EFF8080FF0FC00FE00F40A9
:00000001FF
