:10000000A0EF0DF012000000B2EF08F01200120095
:100018000FEF09F01200D9CFE6FFE1CFD9FF82E94F
:1000280094869488C76AC66AC56AC686C78E0A0E49
:10003800C86E94869488C68A41E9E7CFD9FF120032
:10004800D9CFE6FFE1CFD9FF84E941C0E9FF42C03B
:10005800EAFF190EE926000EEA22EF6A41C0E9FF1D
:1000680042C0EAFF190EEB50D880025432E241C078
:10007800E9FF42C0EAFF190EEB500024E96E000EBA
:100088000120EA6EEF50E66E41C0E9FF42C0EAFF88
:100098000F0EE926000EEA22E9CF4AF0EACF4BF02C
:1000A80041C0E9FF42C0EAFF190EEB500001EA6ABD
:1000B8004A25E96E4B51EA22E552E750EF6E41C0FE
:1000C800E9FF42C0EAFF190EE926000EEA22EF2AEC
:1000D800C5D741C0E9FF42C0EAFF190EE926000E64
:1000E800EA2202EBEFFF41C0E9FF42C0EAFF1A0E25
:1000F800E926000EEA22010EEF6E41C0E9FF42C078
:10010800EAFF0C0EE926000EEA220B0EEF6E41C044
:10011800E9FF42C0EAFF0F0EEB50E66E41C0E9FF6F
:1001280042C0EAFF1B0EE926000EEA22E552E7501C
:10013800EF6EC580C5B0FED7000E00D041E9E7CF0D
:10014800D9FF1200D9CFE6FFE1CFD9FF83E942E812
:1001580001EB43F00001446B036A046A0A0ED8906D
:1001680004BE03D0035C000E045814E241C0E9FF4A
:1001780042C0EAFFE9CF4AF0EACF4BF00001035052
:100188004A25E96E04504B21EA6EEF6A032A000EF5
:100198000422E4D741C0E9FF42C0EAFF1B0EE9266A
:1001A800000EEA2200EBEFFF41C0E9FF42C0EAFF80
:1001B8000C0EE926000EEA220C0EEF6EADEC0DF0E7
:1001C800C580000E00D043E9E7CFD9FF1200D9CF90
:1001D800E6FFE1CFD9FF84E941C0E9FF42C0EAFF69
:1001E800190EE926000EEA22EF6A41C0E9FF42C073
:1001F800EAFF190EEB50D880025432E241C0E9FF01
:1002080042C0EAFF190EEB500024E96E000E0120EF
:10021800EA6EEF50E66E41C0E9FF42C0EAFF0F0EFA
:10022800E926000EEA22E9CF4AF0EACF4BF041C0B6
:10023800E9FF42C0EAFF190EEB500001EA6A4A25BD
:10024800E96E4B51EA22E552E750EF6E41C0E9FFF3
:1002580042C0EAFF190EE926000EEA22EF2AC5D7A6
:1002680041C0E9FF42C0EAFF190EE926000EEA2262
:1002780002EBEFFF41C0E9FF42C0EAFF1A0EE92690
:10028800000EEA22010EEF6E41C0E9FF42C0EAFF0C
:100298000F0EEB50C96EC68841E9E7CFD9FF1200AF
:1002A800D9CFE6FFE1CFD9FF82E941C0E9FF42C0DB
:1002B800EAFF0B0EE926000EEA22010EEF6E41C09E
:1002C800E9FF42C0EAFF0A0EE926000EEA22EF6AB9
:1002D800005038E0C7AA1ED041C0E9FF42C0EAFF7B
:1002E8000C0EE926000EEA22050EEF6E41C0E9FF6A
:1002F80042C0EAFF0E0EE926000EEA22EF2A41C0AC
:10030800E9FF42C0EAFF0D0EE926000EEA22050EBB
:10031800EF6E17D0C7A40BD041C0E9FF42C0EAFF77
:100328000C0EE926000EEA22080EEF6E0AD041C034
:10033800E9FF42C0EAFF0C0EE926000EEA22070E8A
:10034800EF6E0AD041C0E9FF42C0EAFF0C0EE92671
:10035800000EEA22060EEF6E41E9E7CFD9FF120040
:100368000F0EC6140E0802E12FD901D001D81200D1
:10037800D9CFE6FFE1CFD9FF81E946E8036A046AED
:10038800056A066AC7A004D0C950016E010E036E43
:10039800065001E015D141C0E9FF42C0EAFF0C0E4A
:1003A800EB50040A01E1FED0090A01E1B3D0070AC3
:1003B80001E184D0060A6DE0050A1BE0020A06E0A6
:1003C8000E0A01E0FDD0ADEC0DF0FAD041C0E9FF16
:1003D80042C0EAFF0C0EE926000EEA22090EEF6E73
:1003E80041C0E9FF42C0EAFF1B0EEB50FE0BC96E8D
:1003F800E7D041C0E9FF42C0EAFF0B0EE926000E34
:10040800EA22EF2A41C0E9FF42C0EAFF1A0EEB5088
:1004180000014A6F41C0E9FF42C0EAFF190EEB50E4
:100428004A5D25E241C0E9FF42C0EAFF0F0EE92616
:10043800000EEA22E9CF4AF0EACF4BF041C0E9FFCB
:1004480042C0EAFF1A0EEB50EA6A4A25E96E4B51A0
:10045800EA22EF50C96EC5BC09D041C0E9FF42C0CD
:10046800EAFF1A0EE926000EEA22EF2A11D0010E41
:10047800046E41C0E9FF42C0EAFF0C0EE926000EF7
:10048800EA22050EEF6E010E056EC584C5B4FED7CF
:1004980097D041C0E9FF42C0EAFF0C0EE926000EE2
:1004A800EA220A0EEF6EC950026E41C0E9FF42C04F
:1004B800EAFF1B0EEB500109C96E82D0C5BC15D0EE
:1004C800C58641C0E9FF42C0EAFF0C0EE926000ECE
:1004D800EA220D0EEF6E41C0E9FF42C0EAFF0B0EA3
:1004E800E926000EEA22EF2A14D041C0E9FF42C0F3
:1004F800EAFF0C0EE926000EEA220A0EEF6EC9503A
:10050800026E41C0E9FF42C0EAFF1B0EEB50010931
:10051800C96E56D0035045E041C0E9FF42C0EAFF2A
:10052800E9CF4AF0EACF4BF0000144510001EA6AF2
:100538004A25E96E4B51EA2201EBEFFF0001430522
:10054800445D0EE241C0E9FF42C0EAFF0C0EE92615
:10055800000EEA220A0EEF6E442BC59AC58821D0F8
:1005680041C0E9FF42C0EAFFE9CF4AF0EACF4BF0C9
:100578004AC0E6FF4BC0E6FF280EE66E43C0E6FF22
:1005880021EC07F044E941C0E9FF42C0EAFF0C0E44
:10059800E926000EEA22040EEF6EC58AC588ADEC86
:1005A8000DF00ED041C0E9FF42C0EAFF0C0EE9266B
:1005B800000EEA22050EEF6EC5840001446B00D0E0
:1005C80047E9E7CFD9FF1200D9CFE6FFE1CFD9FF3E
:1005D80081E949E8026A036A046A056A066AC6ACE0
:1005E80020D0C69C41C0E9FF42C0EAFF0C0EE926B4
:1005F800000EEA22050EEF6E010E066E41C0E9FFFD
:1006080042C0EAFF0E0EE926000EEA22EF2A41C098
:10061800E9FF42C0EAFF0D0EE926000EEA22040EA9
:10062800EF6EC7A004D0C950016E010E026E0650CD
:1006380001E091D141C0E9FF42C0EAFF0C0EEB5046
:10064800070A01E1D0D00F0A01E18DD00E0A15E0AA
:10065800030A01E080D1C7A60FD002EBE6FF20DE37
:1006680041E941C0E9FF42C0EAFF0C0EEB5008081F
:1006780003E1026A010E056E6ED1C7A82ED041C0F3
:10068800E9FF42C0EAFF0B0EE926000EEA22EF2A34
:10069800025018E0C7BA03D0010E046E13D041C04F
:1006A800E9FF42C0EAFF0E0EE926000EEA22EF2A11
:1006B80041C0E9FF42C0EAFF0D0EE926000EEA221A
:1006C800060EEF6E41C0E9FF42C0EAFF0C0EE926B4
:1006D800000EEA22050EEF6E45D0025043E041C0FD
:1006E800E9FF42C0EAFF0B0EE926000EEA22EF2AD4
:1006F800C7BA1BD0C7B40BD041C0E9FF42C0EAFF5C
:100708000C0EE926000EEA22070EEF6E0DD041C04E
:10071800E9FF42C0EAFF0C0EE926000EEA22080EA5
:10072800EF6E010E056E026A1DD041C0E9FF42C09E
:10073800EAFF0E0EE926000EEA22EF2A41C0E9FF81
:1007480042C0EAFF0C0EE926000EEA22050EEF6E03
:1007580041C0E9FF42C0EAFF0D0EE926000EEA2279
:10076800060EEF6EF8D041C0E9FF42C0EAFF1A0E4C
:10077800EB5000014A6F41C0E9FF42C0EAFF190E81
:10078800EB504A5D25E241C0E9FF42C0EAFF0F0E87
:10079800E926000EEA22E9CF4AF0EACF4BF041C041
:1007A800E9FF42C0EAFF1A0EEB50EA6A4A25E96EF1
:1007B8004B51EA22EF50C96E41C0E9FF42C0EAFF3F
:1007C8001A0EE926000EEA22EF2A010E036E0AD05D
:1007D80041C0E9FF42C0EAFF0C0EE926000EEA22FA
:1007E800050EEF6EB8D0C7A85AD041C0E9FF42C085
:1007F800EAFF0B0EE926000EEA22EF2A025042E039
:10080800C7AA22D041C0E9FF42C0EAFFE9CF4AF0B7
:10081800EACF4BF041C0E9FF42C0EAFF0A0EEB50B5
:100828000001EA6A4A25E96E4B51EA2201EBEFFF23
:1008380041C0E9FF42C0EAFF0A0EE926000EEA229B
:10084800EF2A010E046E1DD041C0E9FF42C0EAFF45
:100858000E0EE926000EEA22EF2A41C0E9FF42C047
:10086800EAFF0D0EE926000EEA22060EEF6E41C0E1
:10087800E9FF42C0EAFF0C0EE926000EEA22050E47
:10088800EF6E02D0010E046E41C0E9FF42C0EAFFDC
:100898000C0EE926000EEA22050EEF6E5BD0025020
:1008A80059E041C0E9FF42C0EAFF0B0EE926000EFD
:1008B800EA22EF2AC7AA20D041C0E9FF42C0EAFFD6
:1008C800E9CF4AF0EACF4BF041C0E9FF42C0EAFF66
:1008D8000A0EEB500001EA6A4A25E96E4B51EA22FA
:1008E80001EBEFFF41C0E9FF42C0EAFF0A0EE9262B
:1008F800000EEA22EF2A2ED0C7A40FD041C0E9FF8C
:1009080042C0EAFF0C0EE926000EEA22080EEF6E3E
:10091800010E046E056E026A1DD041C0E9FF42C097
:10092800EAFF0E0EE926000EEA22EF2A41C0E9FF8F
:1009380042C0EAFF0D0EE926000EEA22060EEF6E0F
:1009480041C0E9FF42C0EAFF0C0EE926000EEA2288
:10095800050EEF6E00D0025002E1035002E0C6A877
:10096800C68841C0E9FF42C0EAFF0A0EEB500808FA
:100978001FE204501DE141C0E9FF42C0EAFF0C0E2E
:10098800E926000EEA22050EEF6E41C0E9FF42C0DB
:10099800EAFF0E0EE926000EEA22EF2A41C0E9FF1F
:1009A80042C0EAFF0D0EE926000EEA22070EEF6E9E
:1009B800045041E041C0E9FF42C0EAFF0B0EEB5092
:1009C800E66E41C0E9FF42C0EAFFE9CF4AF0EACF4C
:1009D8004BF041C0E9FF42C0EAFF0A0EEB500001AC
:1009E800EA6A4A25E96E4B51EA22E552E750EF6E72
:1009F80041C0E9FF42C0EAFFE9CF4AF0EACF4BF035
:100A08004AC0E6FF4BC0E6FF280EE66E41C0E9FF8C
:100A180042C0EAFF0A0EEB50010FE66E21EC07F028
:100A280044E941C0E9FF42C0EAFF0A0EE926000E88
:100A3800EA22EF6A35D041C0E9FF42C0EAFF0E0E54
:100A4800EB5000014A6F010E4A5D2AE341C0E9FFFD
:100A580042C0EAFF0E0EEB50076E41C0E9FF42C0EC
:100A6800EAFF0D0EEB50086E41C0E9FF42C0EAFFF5
:100A78000B0EEB50096ED950070FE66EDACFE6FF82
:100A8800290EE66E030EE66E21EC07F044E941C03C
:100A9800E9FF42C0EAFF0E0EE926000EEA22EF6ADD
:100AA800055013E041C0E9FF42C0EAFFE9CF4AF030
:100AB800EACF4BF04AC0E6FF4BC0E6FF2A0EE66ECF
:100AC800E66A21EC07F044E9056A4AE9E7CFD9FF6D
:100AD8001200D9CFE6FFE1CFD9FF83E900EB41F05F
:100AE80001EB42F041C0E9FF42C0EAFF0A0EE926E5
:100AF800000EEA22EF6A41C0E9FF42C0EAFF0B0E8E
:100B0800E926000EEA22EF6A41C0E9FF42C0EAFF87
:100B18000C0EE926000EEA22050EEF6E41C0E9FF31
:100B280042C0EAFF0E0EE926000EEA22EF6A000133
:100B3800446B436B41E9E7CFD9FF1200D9CFE6FFF9
:100B4800E1CFD9FF82E99486948800EBC8FFC76A91
:100B5800C66AC56A0E0EC612C78E94869488C5806A
:100B6800C68A41E9E7CFD9FF1200D9CFE6FFE1CF26
:100B7800D9FF83E941E800EBE9FF01EBEAFF340E16
:100B8800E926000EEA22EF6A00EBE9FF01EBEAFF33
:100B9800350EE926000EEA22EF6A036A040E035CAA
:100BA80014E200EBE9FF01EBEAFFE9CF4AF0EACFF4
:100BB8004BF003500D0D00014A51F324E96E4B51DF
:100BC800F420EA6EEF6A032AE9D742E9E7CFD9FFB2
:100BD8001200D9CFE6FFE1CFD9FF87E945E80350F6
:100BE8000A6E0B6A04EBE9FF05EBEAFF340EE9260F
:100BF800000EEA22EF50076E04EBE9FF05EBEAFF6F
:100C0800E9CF4AF0EACF4BF007500D0D0001F35041
:100C18004A25086EF4504B21096E08EBE9FF09EBF1
:100C2800EAFFEF5002E0FF0E49D008EBE9FF09EBBD
:100C3800EAFFEE5203EBEFFF08EBE9FF09EBEAFFEF
:100C4800020EE926000EEA2202EBEFFF0AEBE6FFAE
:100C58000BEBE6FF00EBE6FF01EBE6FF08EBE9FF35
:100C680009EBEAFF030EE926000EEA22E9CF4AF073
:100C7800EACF4BF04AC0E6FF4BC0E6FFA5EC0CF00C
:100C880046E904EBE9FF05EBEAFF340EE926000E1E
:100C9800EA22EF28030BE66E04EBE9FF05EBEAFF17
:100CA800340EE926000EEA22E552E750EF6E08EB13
:100CB800E9FF09EBEAFF010EEF6E00D046E9E7CF46
:100CC800D9FF1200D9CFE6FFE1CFD9FF88E945E87F
:100CD80005EBE9FF06EBEAFF350EE926000EEA22EE
:100CE800EF50086E05EBE9FF06EBEAFFE9CF4AF0A3
:100CF800EACF4BF008500D0D0001F3504A25096E5C
:100D0800F4504B210A6E09EBE9FF0AEBEAFFEF0406
:100D18005CE109EBE9FF0AEBEAFFEE52EF50045CF5
:100D280002E2FD0E54D009EBE9FF0AEBEAFFEE52AE
:100D3800EF500B6E0C6A0BEBE6FF0CEBE6FF09EBD2
:100D4800E9FF0AEBEAFF030EE926000EEA22E9CFE3
:100D58004AF0EACF4BF04AC0E6FF4BC0E6FF00EB93
:100D6800E6FF01EBE6FFA5EC0CF046E905EBE9FF31
:100D780006EBEAFF350EE926000EEA22EF28030B00
:100D8800E66E05EBE9FF06EBEAFF350EE926000EF5
:100D9800EA22E552E750EF6E09EBE9FF0AEBEAFFBA
:100DA800020EE926000EEA22EF50E66E02EBE9FF9A
:100DB80003EBEAFFE552E750EF6E09EBE9FF0AEBB8
:100DC800EAFFEF6A0B5003D002D0FC0E00D046E9D0
:100DD800E7CFD9FF1200D9CFE6FFE1CFD9FF85E9E8
:100DE80000EBE6FF01EBE6FF02EBE6FF03EBE6FFB5
:100DF800000EE66E010EE66EECDE46E900D041E933
:100E0800E7CFD9FF1200D9CFE6FFE1CFD9FF86E9B6
:100E180000EBE6FF01EBE6FF02EBE6FF03EBE6FF84
:100E280004EBE6FF000EE66E010EE66E4BDF47E9C7
:100E380000D041E9E7CFD9FF1200D9CFE6FFE1CFD3
:100E4800D9FF85E900EBE6FF01EBE6FF02EBE6FFE1
:100E580003EBE6FF960EE66E000EE66EBADE46E996
:100E680000D041E9E7CFD9FF1200D9CFE6FFE1CFA3
:100E7800D9FF86E900EBE6FF01EBE6FF02EBE6FFB0
:100E880003EBE6FF04EBE6FF960EE66E000EE66E59
:100E980019DF47E900D041E9E7CFD9FF1200D9CFE0
:100EA800E6FFE1CFD9FF85E900EBE6FF01EBE6FFBE
:100EB80002EBE6FF03EBE6FF600EE66E000EE66E61
:100EC80088DE46E900D041E9E7CFD9FF1200D9CF43
:100ED800E6FFE1CFD9FF86E900EBE6FF01EBE6FF8D
:100EE80002EBE6FF03EBE6FF04EBE6FF600EE66EBF
:100EF800000EE66EE7DE47E900D041E9E7CFD9FF0B
:100F08001200D9CFE6FFE1CFD9FF85E900EBE6FF74
:100F180001EBE6FF02EBE6FF03EBE6FF000EE66EF1
:100F2800000EE66E56DE46E900D041E9E7CFD9FF6C
:100F38001200D9CFE6FFE1CFD9FF86E900EBE6FF43
:100F480001EBE6FF02EBE6FF03EBE6FF04EBE6FF4F
:100F5800000EE66E000EE66EB5DE47E900D041E908
:100F6800E7CFD9FF12000001366B000EE66E010EC6
:100F7800E66EFBDD42E9960EE66E000EE66EF5DDE6
:100F880042E9600EE66E000EE66EEFDD42E9000E05
:100F9800E66E000EE66EE9DD42E91200D38E03002C
:100FA8001200D9CFE6FFE1CFD9FF83E900EBE9FFD3
:100FB80001EBEAFFE9CF4AF0EACF4BF000EBE9FF9B
:100FC80001EBEAFF350EE926000EEA22EF500D0D7F
:100FD80000014A51F324E96E4B51F420EA6EEF50B8
:100FE80000D041E9E7CFD9FF12000001365101E1F5
:100FF80029D07CEC08F0F3CF4AF0F4CF4BF0000195
:101008004A514B1101E01ED05AEC08F0F3CF4AF0D8
:10101800F4CF4BF000014A514B1101E113D0960E69
:10102800E66E000EE66EBDDF42E9000901E00AD077
:10103800000EE66E010EE66EB4DF42E9000901E03B
:1010480001D0ACDF120096EC08F0F3CF4AF0F4CFF1
:101058004BF000014A514B1101E123D08A8600016F
:10106800010E366F960EE66E000EE66E9ADF42E9C6
:10107800000904E00001366B8A9613D0000EE66E74
:10108800010EE66E8EDF42E9000904E00001366BCE
:101098008A9607D00A0EE66E72EC0DF041E98A7660
:1010A800E1D71200D08EF28EF28C1200F250800B33
:1010B800800A01E0010E00014A6F4B6B800B01E0D2
:1010C8004B694AC0F3FF4BC0F4FF00D01200F25046
:1010D800400B400A01E0010E00014A6F4B6B800B88
:1010E80001E04B694AC0F3FF4BC0F4FF00D0120087
:1010F800F2AC05D0000EF36EF46A13D012D0D6DF2E
:10110800F3CF4AF0F4CF4BF000014A514B1105E000
:10111800000EF36EF46A05D004D0010EF36EF46A83
:1011280000D01200E5DFF3CF4AF0F4CF4BF0000116
:101138004A514B110EE1BADFF3CF4CF0F4CF4DF02A
:1011480000014C514D1105E1010EF36EF46A05D012
:1011580004D0000EF36EF46A00D01200DACFE4FF78
:10116800E2CFDAFFE9CFE4FFEACFE4FFD9CFE4FF2B
:10117800DACFE4FF46C0E4FF47C0E4FF48C0E4FF1D
:1011880049C0E4FFF6CFE4FFF7CFE4FFF5CFE4FF73
:10119800F3CFE4FFF4CFE4FFFACFE4FF00EE4AF028
:1011A800040EE80403E3EECFE4FFFBD7E6529EA665
:1011B80003D09E96B4EC01F0F2A403D0F29481EC33
:1011C8000BF0F9EC07F0E55200EE4DF0040EE804E0
:1011D80003E3E5CFEDFFFBD7E5CFFAFFE5CFF4FF5B
:1011E800E5CFF3FFE5CFF5FFE5CFF7FFE5CFF6FF56
:1011F800E5CF49F0E5CF48F0E5CF47F0E5CF46F039
:10120800E5CFDAFFE5CFD9FFE5CFEAFFE5CFE9FF84
:10121800E5CFDAFF1100D8CFE4FFE0CFE4FFE46EBA
:10122800DACFE4FFE2CFDAFFE9CFE4FFEACFE4FF69
:10123800D9CFE4FFDACFE4FF46C0E4FF47C0E4FFBC
:1012480048C0E4FF49C0E4FFF6CFE4FFF7CFE4FF6E
:10125800F5CFE4FFF3CFE4FFF4CFE4FFFACFE4FFE8
:1012680000EE4AF0040EE80403E3EECFE4FFFBD7F8
:10127800E6529EA003D09E90B6EC0BF09EAA03D037
:101288009E9A0EEC0BF0E55200EE4DF0040EE804C9
:1012980003E3E5CFEDFFFBD7E5CFFAFFE5CFF4FF9A
:1012A800E5CFF3FFE5CFF5FFE5CFF7FFE5CFF6FF95
:1012B800E5CF49F0E5CF48F0E5CF47F0E5CF46F078
:1012C800E5CFDAFFE5CFD9FFE5CFEAFFE5CFE9FFC4
:1012D800E5CFDAFFE550E5CFE0FFE5CFD8FF100016
:1012E800D9CFE6FFE1CFD9FF81E977E8FC0ED36ECD
:1012F8009B8CD950050FE66EDACFE6FF6BEC0BF04E
:1013080042E9D9500A0FE66EDACFE6FF6DEC05F038
:1013180042E9D950340FE66EDACFE6FF66EC0CF0FE
:1013280042E9B7EC07F0936A8A6AC50EE66ED0EC1C
:101338000CF041E956EC08F09F909F9A9F869E0E0C
:10134800E66E0FEC00F041E99D86190EE66EE66A3E
:101358006C0EE66E25EC0CF043E927EC08F0D9504A
:10136800260FE66EDACFE6FFD950030FE66EDACF26
:10137800E6FF0A0EE66E39EC07F045E9026E023424
:1013880004E3FC0E025C00E068D003500D0A4DE057
:10139800270A25E0020A20E0010A1EE0230A01E0EC
:1013A8005CD0D950260FE66EDACFE6FF02EB4AF0A2
:1013B80000014B6B4ABF4B694AC0E6FF4BC0E6FFD2
:1013C8000350E66EE66AD950360FE66EDACFE6FFCE
:1013D80092EC0DF048E941D0A6EB04F03ED0045061
:1013E800A90A13E0010A0AE0020A01E013D0020E7A
:1013F800026E550E266EAA0E276E0CD0020E026ED5
:101408003A0E266E3B0E276E05D0010E026EA30E15
:10141800266E00D0D950260FE66EDACFE6FF02EB33
:10142800E6FFEBEC00F043E918D0020E026E9E0EC8
:10143800266EA80E276ED950260FE66EDACFE6FF85
:1014480002EBE6FF24EC00F043E99E0EE66E02EBA9
:10145800E6FFA6EC00F042E900D0D950260FE66E70
:10146800DACFE6FFD950030FE66EDACFE6FF0A0EB1
:10147800E66E07EC07F045E9026E023404E3FC0E61
:10148800025C00E03ED003501E0A20E0010A1EE084
:10149800140A01E036D0D950260FE66EDACFE6FFFF
:1014A80002EB4AF000014B6B4ABF4B694AC0E6FFAA
:1014B8004BC0E6FF0350E66EE66AD950340FE66E7D
:1014C800DACFE6FF75EC0CF048E91BD0D950260FAF
:1014D800E66EDACFE6FF02EB4AF000014B6B4ABF3B
:1014E8004B694AC0E6FF4BC0E6FF0350E66EE66A6A
:1014F800D950320FE66EDACFE6FF0FEC0DF048E96F
:1015080000D02BD778E9E7CFD9FF120043E8D9CF2D
:10151800E6FFDACFE6FFE1CFD9FFE2CFDAFF89E9CC
:10152800066A1200F3DF068001D0F0DF01AEA3EFF8
:101538000AF0006C011EE86A012206B0067E03AEBE
:10154800ABEF0AF0026C031EE86A0322067EE3ECA6
:101558000AF003BECDEF0AF006AE08D0026C031EF7
:10156800E86A0322046C051EE86A052206B006D064
:1015780084EB00F085EB01F006A004D082EB00F0CC
:1015880083EB01F0E552E5CFDAFFE7CFD9FF45E974
:10159800000C06BEB2EF0AF0E9DFFF0C43E8D9CF32
:1015A800E6FFDACFE6FFE1CFD9FFE2CFDAFF89E93C
:1015B800066A1200F3DF068003D0F0DF01D006824E
:1015C800056A046A100EE76ED890023603360436B0
:1015D80005360050045C0150055805E30050045ED0
:1015E8000150055A022AE72EF0D706B2120006B0BB
:1015F80006D084EB00F085EB01F006A004D082EB66
:1016080000F083EB01F0E552E5CFDAFFE7CFD9FF31
:1016180045E912009EAA4CD0F0EC0CF0E66E4EC0E4
:10162800E9FF4FC0EAFFE9CF4AF0EACF4BF04EC0DE
:10163800E9FF4FC0EAFF040EEB500001EA6A4A25B1
:10164800E96E4B51EA22E552E750EF6E4EC0E9FFD2
:101658004FC0EAFF040EE926000EEA22EF2A4EC028
:10166800E9FF4FC0EAFF040EEB50040821E14EC029
:10167800E9FF4FC0EAFFE9CF4AF0EACF4BF04AC092
:10168800E6FF4BC0E6FF1F0EE66E4EC0E9FF4FC0F7
:10169800EAFF040EEB50E66EEFEC06F044E94EC0AC
:1016A800E9FF4FC0EAFF040EE926000EEA22EF6ABE
:1016B800000151A70BD0AB98AB88000EE66EE66A26
:1016C8001E0EE66EE66AEFEC06F044E91200D9CF8A
:1016D800E6FFE1CFD9FF83E900EB4EF001EB4FF0D5
:1016E8004EC0E9FF4FC0EAFF040EE926000EEA22C9
:1016F800EF6A41E9E7CFD9FF1200D9CFE6FFE1CF82
:10170800D9FF81E946E88A70000EE66EE66A5AEC6F
:101718000DF042E9D950010FE66EDACFE6FFD95055
:10172800050FE66EDACFE6FF020EE66E9DEC07F0D7
:1017380045E9036E046AE8BE0468020E031801E175
:1017480004500CE1D950010FE66EDACFE6FF0A0E1D
:10175800E66E020EE66E21EC07F044E947E9E7CFB2
:10176800D9FF1200D9CFE6FFE1CFD9FF81E942E8DE
:101778008A7242EC0DF0F350016EF450026E000EC6
:10178800E66EE66A0B0EE66EE66AEFEC06F044E9F2
:10179800000EE66EE66A2AEC0DF042E943E9E7CF6F
:1017A800D9FF1200060EF66E000EF76E000EF86EE8
:1017B80000010900F5503C6F0900F5503D6F03E149
:1017C8003C6701D03DD00900F550376F0900F5504E
:1017D800386F0900F550396F09000900F550E96EB6
:1017E8000900F550EA6E090009000900F5503A6F42
:1017F8000900F5503B6F09000900F6CF3EF0F7CF1E
:101808003FF0F8CF40F037C0F6FF38C0F7FF39C0D7
:10181800F8FF00013A5302E13B5307E00900F55095
:10182800EE6E3A07F8E23B07F9D73EC0F6FF3FC035
:10183800F7FF40C0F8FF00013C07000E3D5BBFD733
:101848001200D9CFE6FFDACFE6FFE1CFD9FFE2CF2A
:10185800DAFF85E9AC6AAB6A02B0AC8802A202D0B2
:10186800AC8CAB8C02B4AC8E02A602D0AB8801D093
:10187800AB8A02B8AC849E9802BAAB8602AC02D09E
:101888009D8A01D09D9A9E9A02AE02D09D8801D071
:101898009D9800EBAFFF000101EB4AF04B6B4AC08B
:1018A800B0FFAC8AAB8E949C948EAC50100B04E0C5
:1018B800AC50800B01E1948C41E9E5CFDAFFE7CF2A
:1018C800D9FF1200D9CFE6FFE1CFD9FF83E900EBBA
:1018D800E9FF01EBEAFFEE6AED6A41E9E7CFD9FFDC
:1018E8001200D9CFE6FFE1CFD9FF89E906EBE9FF7E
:1018F80007EBEAFFEE2A000EEF22020EE66EE66A1A
:1019080006EBE9FF07EBEAFFEECFE6FFEECFE6FFD7
:10191800E1EC0AF0E552E5CF4BF0E7CF4AF00001E1
:101928004A514B110AE1000EE66EE66A0D0EE66EAC
:10193800E66A21EC07F044E9817841E9E7CFD9FF6D
:101948001200D9CFE6FFDACFE6FFFA0EE3CFD9FFD0
:10195800FB0EE3CFDAFFFC0EE3CFE9FFFD0EE3CF8A
:10196800EAFFE9CFF3FFEACFF4FFF80EE35003E113
:10197800F90EE35008E0F80EE30602E2F90EE3067A
:10198800DECFEEFFF2D7FF0EE3CFDAFFE552FF0E10
:10199800E3CFD9FFE5521200D9CFE6FFDACFE6FF51
:1019A800E1CFD9FFE2CFDAFF83E97E0E0014CD6ED6
:1019B80000AC02D0CD8E01D0CD9ECF6ACE6A9E906B
:1019C80000AE02D09D8001D09D90CD8041E9E5CF49
:1019D800DAFFE7CFD9FF1200D9CFE6FFDACFE6FF6B
:1019E800E1CFD9FFE2CFDAFF82E941E8F20E000148
:1019F8005117ABAC03D05191ABB05181ABB4518509
:101A0800ABB25187AE50026E025042E9E5CFDAFF21
:101A1800E7CFD9FF1200D9CFE6FFE1CFD9FF89E997
:101A28001E0E041801E1055001E10CD01F0E041828
:101A380001E1055007E100500224E96E015003203E
:101A4800EA6EEF6A41E9E7CFD9FF1200D9CFE6FF86
:101A5800DACFE6FFE1CFD9FFE2CFDAFF84E942E847
:101A680080EB04F081EB05F005EBCFFF04EBCEFF34
:101A780043E9E5CFDAFFE7CFD9FF1200D9CFE6FF78
:101A8800DACFE6FFE1CFD9FFE2CFDAFF82E942E819
:101A9800CE50026ECF50036E02EBF3FF03EBF4FF60
:101AA80043E9E5CFDAFFE7CFD9FF1200D9CFE6FF48
:101AB800DACFE6FFE1CFD9FFE2CFDAFF84E942E8E7
:101AC80080EB04F081EB05F005EBD7FF04EBD6FFC4
:101AD80043E9E5CFDAFFE7CFD9FF1200FF0EE35065
:101AE8000001506F480E01D04C0EE76EE72EFED76E
:101AF800E76AE72EFED7502FF7D71200000EF36ED5
:101B080000EE00F00D0E01D81200EA6002D0EE6A75
:101B1800FCD7F350E9601200EE6AFCD7D9CFE6FF94
:101B2800E1CFD9FF89E942E880EB09F081EB0AF0BF
:101B380043E9E7CFD9FF12001CEE00F02CEE00F0CD
:101B4800F86AD6EC0BF007EC00F074EC09F0FBD760
:101B580012001F0EC514FDE1C750040BFAE1120074
:020000040030CA
:0300010008191EBD
:0200050080C0B9
:00000001FF
