:0E000000A5EF10F012001200A0EF0CF012009D
:10001800FDEF0CF01200010072210000000000004A
:1000280055000000D9CFE6FFE1CFD9FF82E99486D9
:100038009488C76AC66AC56AC686C78E0A0EC86E1D
:1000480094869488C68A41E9E7CFD9FF1200D9CFB0
:10005800E6FFE1CFD9FF84E9E1C0E9FFE2C0EAFFAA
:10006800190EE926000EEA22EF6AE1C0E9FFE2C0B4
:10007800EAFF190EEB50D880025432E2E1C0E9FFE2
:10008800E2C0EAFF190EEB500024E96E000E0120D1
:10009800EA6EEF50E66EE1C0E9FFE2C0EAFF0F0E3C
:1000A800E926000EEA22E9CFEAF0EACFEBF0E1C058
:1000B800E9FFE2C0EAFF190EEB500001EA6AEA25FF
:1000C800E96EEB51EA22E552E750EF6EE1C0E9FF35
:1000D800E2C0EAFF190EE926000EEA22EF2AC5D788
:1000E800E1C0E9FFE2C0EAFF190EE926000EEA22A4
:1000F80002EBEFFFE1C0E9FFE2C0EAFF1A0EE926D2
:10010800000EEA22010EEF6EE1C0E9FFE2C0EAFF4D
:100118000C0EE926000EEA220B0EEF6EE1C0E9FF95
:10012800E2C0EAFF0F0EEB50E66EE1C0E9FFE2C065
:10013800EAFF1B0EE926000EEA22E552E750EF6EB1
:10014800C580C5B0FED7000E00D041E9E7CFD9FF82
:100158001200D9CFE6FFE1CFD9FF83E942E801EBEE
:10016800E3F00001E46B036A046A0A0ED89004BE47
:1001780003D0035C000E045814E2E1C0E9FFE2C0BA
:10018800EAFFE9CFEAF0EACFEBF000010350EA25F5
:10019800E96E0450EB21EA6EEF6A032A000E04228E
:1001A800E4D7E1C0E9FFE2C0EAFF1B0EE926000E32
:1001B800EA2200EBEFFFE1C0E9FFE2C0EAFF0C0E24
:1001C800E926000EEA220C0EEF6EB2EC10F0C580A4
:1001D800000E00D043E9E7CFD9FF1200D9CFE6FFE0
:1001E800E1CFD9FF84E9E1C0E9FFE2C0EAFF190ED7
:1001F800E926000EEA22EF6AE1C0E9FFE2C0EAFF61
:10020800190EEB50D880025432E2E1C0E9FFE2C097
:10021800EAFF190EEB500024E96E000E0120EA6E89
:10022800EF50E66EE1C0E9FFE2C0EAFF0F0EE926F3
:10023800000EEA22E9CFEAF0EACFEBF0E1C0E9FFED
:10024800E2C0EAFF190EEB500001EA6AEA25E96EFE
:10025800EB51EA22E552E750EF6EE1C0E9FFE2C058
:10026800EAFF190EE926000EEA22EF2AC5D7E1C0F7
:10027800E9FFE2C0EAFF190EE926000EEA2202EBC6
:10028800EFFFE1C0E9FFE2C0EAFF1A0EE926000E1F
:10029800EA22010EEF6EE1C0E9FFE2C0EAFF0F0EAD
:1002A800EB50C96EC68841E9E7CFD9FF1200D9CF14
:1002B800E6FFE1CFD9FF82E9E1C0E9FFE2C0EAFF4A
:1002C8000B0EE926000EEA22010EEF6EE1C0E9FFEF
:1002D800E2C0EAFF0A0EE926000EEA22EF6A0050A1
:1002E80038E0C7AA1ED0E1C0E9FFE2C0EAFF0C0E61
:1002F800E926000EEA22050EEF6EE1C0E9FFE2C032
:10030800EAFF0E0EE926000EEA22EF2AE1C0E9FF15
:10031800E2C0EAFF0D0EE926000EEA22050EEF6E96
:1003280017D0C7A40BD0E1C0E9FFE2C0EAFF0C0E6A
:10033800E926000EEA22080EEF6E0AD0E1C0E9FFB6
:10034800E2C0EAFF0C0EE926000EEA22070EEF6E65
:100358000AD0E1C0E9FFE2C0EAFF0C0EE926000E70
:10036800EA22060EEF6E41E9E7CFD9FF12000F0E21
:10037800C6140E0802E131D901D001D81200D9CF34
:10038800E6FFE1CFD9FF81E946E8036A046A056A16
:10039800066AC7A004D0C950016E010E036E06504C
:1003A80001E017D1E1C0E9FFE2C0EAFF0C0EEB5013
:1003B800040A01E100D1090A01E1B5D0070A01E107
:1003C80086D0060A6FE0050A1DE0020A08E00E0A58
:1003D80001E0FFD00001E46BB2EC10F0FAD0E1C00C
:1003E800E9FFE2C0EAFF0C0EE926000EEA22090E38
:1003F800EF6EE1C0E9FFE2C0EAFF1B0EEB50FE0B17
:10040800C96EE7D0E1C0E9FFE2C0EAFF0B0EE926BA
:10041800000EEA22EF2AE1C0E9FFE2C0EAFF1A0E65
:10042800EB500001EA6FE1C0E9FFE2C0EAFF190EF4
:10043800EB50EA5D25E2E1C0E9FFE2C0EAFF0F0EFA
:10044800E926000EEA22E9CFEAF0EACFEBF0E1C0B4
:10045800E9FFE2C0EAFF1A0EEB50EA6AEA25E96E04
:10046800EB51EA22EF50C96EC5BC09D0E1C0E9FFE3
:10047800E2C0EAFF1A0EE926000EEA22EF2A11D09E
:10048800010E046EE1C0E9FFE2C0EAFF0C0EE926A6
:10049800000EEA22050EEF6E010E056EC584C5B486
:1004A800FED797D0E1C0E9FFE2C0EAFF0C0EE926CB
:1004B800000EEA220A0EEF6EC950026EE1C0E9FF93
:1004C800E2C0EAFF1B0EEB500109C96E82D0C5BC21
:1004D80015D0C586E1C0E9FFE2C0EAFF0C0EE926A7
:1004E800000EEA220D0EEF6EE1C0E9FFE2C0EAFF5E
:1004F8000B0EE926000EEA22EF2A14D0E1C0E9FF2C
:10050800E2C0EAFF0C0EE926000EEA220A0EEF6EA0
:10051800C950026EE1C0E9FFE2C0EAFF1B0EEB50D2
:100528000109C96E56D0035045E0E1C0E9FFE2C0B9
:10053800EAFFE9CFEAF0EACFEBF00001E45100016D
:10054800EA6AEA25E96EEB51EA2201EBEFFF0001C6
:10055800E305E45D0EE2E1C0E9FFE2C0EAFF0C0E4C
:10056800E926000EEA220A0EEF6EE42BC59AC5882A
:1005780021D0E1C0E9FFE2C0EAFFE9CFEAF0EACF23
:10058800EBF0EAC0E6FFEBC0E6FF280EE66EE3C03C
:10059800E6FF2AEC07F044E9E1C0E9FFE2C0EAFF20
:1005A8000C0EE926000EEA22040EEF6EC58AC588F5
:1005B800B2EC10F00ED0E1C0E9FFE2C0EAFF0C0E89
:1005C800E926000EEA22050EEF6EC5840001E46BF1
:1005D80000D047E9E7CFD9FF1200D9CFE6FFE1CF36
:1005E800D9FF81E949E8026A036A046A056A066A6A
:1005F800C6AC20D0C69CE1C0E9FFE2C0EAFF0C0E01
:10060800E926000EEA22050EEF6E010E066EE1C025
:10061800E9FFE2C0EAFF0E0EE926000EEA22EF2A01
:10062800E1C0E9FFE2C0EAFF0D0EE926000EEA226A
:10063800040EEF6EC7A004D0C950016E010E026E01
:10064800065001E091D1E1C0E9FFE2C0EAFF0C0EDB
:10065800EB50070A01E1D0D00F0A01E18DD00E0A54
:1006680015E0030A01E080D1C7A60FD002EBE6FF30
:100678001EDE41E9E1C0E9FFE2C0EAFF0C0EEB50E3
:10068800080803E1026A010E056E6ED1C7A82ED0D4
:10069800E1C0E9FFE2C0EAFF0B0EE926000EEA22FC
:1006A800EF2A025018E0C7BA03D0010E046E13D027
:1006B800E1C0E9FFE2C0EAFF0E0EE926000EEA22D9
:1006C800EF2AE1C0E9FFE2C0EAFF0D0EE926000EBD
:1006D800EA22060EEF6EE1C0E9FFE2C0EAFF0C0E67
:1006E800E926000EEA22050EEF6E45D0025043E0DF
:1006F800E1C0E9FFE2C0EAFF0B0EE926000EEA229C
:10070800EF2AC7BA1BD0C7B40BD0E1C0E9FFE2C0DB
:10071800EAFF0C0EE926000EEA22070EEF6E0DD056
:10072800E1C0E9FFE2C0EAFF0C0EE926000EEA226A
:10073800080EEF6E010E056E026A1DD0E1C0E9FFDA
:10074800E2C0EAFF0E0EE926000EEA22EF2AE1C017
:10075800E9FFE2C0EAFF0C0EE926000EEA22050EC8
:10076800EF6EE1C0E9FFE2C0EAFF0D0EE926000ED8
:10077800EA22060EEF6EF8D0E1C0E9FFE2C0EAFF18
:100788001A0EEB500001EA6FE1C0E9FFE2C0EAFF90
:10079800190EEB50EA5D25E2E1C0E9FFE2C0EAFF8D
:1007A8000F0EE926000EEA22E9CFEAF0EACFEBF0D5
:1007B800E1C0E9FFE2C0EAFF1A0EEB50EA6AEA2557
:1007C800E96EEB51EA22EF50C96EE1C0E9FFE2C0E1
:1007D800EAFF1A0EE926000EEA22EF2A010E036E3E
:1007E8000AD0E1C0E9FFE2C0EAFF0C0EE926000EDC
:1007F800EA22050EEF6EB8D0C7A85AD0E1C0E9FFCB
:10080800E2C0EAFF0B0EE926000EEA22EF2A0250A8
:1008180042E0C7AA22D0E1C0E9FFE2C0EAFFE9CF7F
:10082800EAF0EACFEBF0E1C0E9FFE2C0EAFF0A0E26
:10083800EB500001EA6AEA25E96EEB51EA2201EB86
:10084800EFFFE1C0E9FFE2C0EAFF0A0EE926000E69
:10085800EA22EF2A010E046E1DD0E1C0E9FFE2C0D2
:10086800EAFF0E0EE926000EEA22EF2AE1C0E9FFB0
:10087800E2C0EAFF0D0EE926000EEA22060EEF6E30
:10088800E1C0E9FFE2C0EAFF0C0EE926000EEA2209
:10089800050EEF6E02D0010E046EE1C0E9FFE2C062
:1008A800EAFF0C0EE926000EEA22050EEF6E5BD079
:1008B800025059E0E1C0E9FFE2C0EAFF0B0EE92669
:1008C800000EEA22EF2AC7AA20D0E1C0E9FFE2C061
:1008D800EAFFE9CFEAF0EACFEBF0E1C0E9FFE2C0D6
:1008E800EAFF0A0EEB500001EA6AEA25E96EEB51CD
:1008F800EA2201EBEFFFE1C0E9FFE2C0EAFF0A0EDE
:10090800E926000EEA22EF2A2ED0C7A40FD0E1C0B4
:10091800E9FFE2C0EAFF0C0EE926000EEA22080E03
:10092800EF6E010E046E056E026A1DD0E1C0E9FF8C
:10093800E2C0EAFF0E0EE926000EEA22EF2AE1C025
:10094800E9FFE2C0EAFF0D0EE926000EEA22060ED4
:10095800EF6EE1C0E9FFE2C0EAFF0C0EE926000EE7
:10096800EA22050EEF6E00D0025002E1035002E0C9
:10097800C6A8C688E1C0E9FFE2C0EAFF0A0EEB504C
:1009880008081FE204501DE1E1C0E9FFE2C0EAFFE8
:100998000C0EE926000EEA22050EEF6EE1C0E9FF13
:1009A800E2C0EAFF0E0EE926000EEA22EF2AE1C0B5
:1009B800E9FFE2C0EAFF0D0EE926000EEA22070E63
:1009C800EF6E045041E0E1C0E9FFE2C0EAFF0B0E20
:1009D800EB50E66EE1C0E9FFE2C0EAFFE9CFEAF0DA
:1009E800EACFEBF0E1C0E9FFE2C0EAFF0A0EEB5004
:1009F8000001EA6AEA25E96EEB51EA22E552E7507E
:100A0800EF6EE1C0E9FFE2C0EAFFE9CFEAF0EACF22
:100A1800EBF0EAC0E6FFEBC0E6FF280EE66EE1C0A9
:100A2800E9FFE2C0EAFF0A0EEB50010FE66E2AEC7E
:100A380007F044E9E1C0E9FFE2C0EAFF0A0EE9264F
:100A4800000EEA22EF6A35D0E1C0E9FFE2C0EAFF12
:100A58000E0EEB500001EA6F010EEA5D2AE3E1C0D9
:100A6800E9FFE2C0EAFF0E0EEB50076EE1C0E9FFB6
:100A7800E2C0EAFF0D0EEB50086EE1C0E9FFE2C0EC
:100A8800EAFF0B0EEB50096ED950070FE66EDACF6E
:100A9800E6FF290EE66E030EE66E2AEC07F044E93F
:100AA800E1C0E9FFE2C0EAFF0E0EE926000EEA22E5
:100AB800EF6A055013E0E1C0E9FFE2C0EAFFE9CFC1
:100AC800EAF0EACFEBF0EAC0E6FFEBC0E6FF2A0E59
:100AD800E66EE66A2AEC07F044E9056A4AE9E7CFD8
:100AE800D9FF1200D9CFE6FFE1CFD9FF83E900EBA8
:100AF800E1F001EBE2F0E1C0E9FFE2C0EAFF0A0E33
:100B0800E926000EEA22EF6AE1C0E9FFE2C0EAFF47
:100B18000B0EE926000EEA22EF6AE1C0E9FFE2C007
:100B2800EAFF0C0EE926000EEA22050EEF6EE1C080
:100B3800E9FFE2C0EAFF0E0EE926000EEA22EF6A9C
:100B48000001E46BE36B41E9E7CFD9FF1200D9CF8D
:100B5800E6FFE1CFD9FF82E99486948800EBC8FFCD
:100B6800C76AC66AC56A0E0EC612C78E948694886E
:100B7800C580C68A41E9E7CFD9FF1200D9CFE6FF81
:100B8800E1CFD9FF83E941E800EBE9FF01EBEAFF98
:100B9800340EE926000EEA22EF6A00EBE9FF01EBCA
:100BA800EAFF350EE926000EEA22EF6A036A040E10
:100BB800035C14E200EBE9FF01EBEAFFE9CFEAF09E
:100BC800EACFEBF003500D0D0001EA51F324E96E72
:100BD800EB51F420EA6EEF6A032AE9D742E9E7CF3E
:100BE800D9FF1200D9CFE6FFE1CFD9FF87E945E861
:100BF80003500A6E0B6A04EBE9FF05EBEAFF340EBB
:100C0800E926000EEA22EF50076E04EBE9FF05EB38
:100C1800EAFFE9CFEAF0EACFEBF007500D0D00014B
:100C2800F350EA25086EF450EB21096E08EBE9FF52
:100C380009EBEAFFEF5002E0FF0E49D008EBE9FFAD
:100C480009EBEAFFEE5203EBEFFF08EBE9FF09EBD4
:100C5800EAFF020EE926000EEA2202EBEFFF0AEB9A
:100C6800E6FF0BEBE6FF00EBE6FF01EBE6FF08EB28
:100C7800E9FF09EBEAFF030EE926000EEA22E9CFB5
:100C8800EAF0EACFEBF0EAC0E6FFEBC0E6FF85EC5E
:100C98000EF046E904EBE9FF05EBEAFF340EE9261E
:100CA800000EEA22EF28030BE66E04EBE9FF05EBE2
:100CB800EAFF340EE926000EEA22E552E750EF6E0D
:100CC80008EBE9FF09EBEAFF010EEF6E00D046E9F9
:100CD800E7CFD9FF1200D9CFE6FFE1CFD9FF88E9E6
:100CE80045E805EBE9FF06EBEAFF350EE926000EBD
:100CF800EA22EF50086E05EBE9FF06EBEAFFE9CFC1
:100D0800EAF0EACFEBF008500D0D0001F350EA25A8
:100D1800096EF450EB210A6E09EBE9FF0AEBEAFFD2
:100D2800EF045CE109EBE9FF0AEBEAFFEE52EF5052
:100D3800045C02E2FD0E54D009EBE9FF0AEBEAFF7E
:100D4800EE52EF500B6E0C6A0BEBE6FF0CEBE6FF76
:100D580009EBE9FF0AEBEAFF030EE926000EEA2297
:100D6800E9CFEAF0EACFEBF0EAC0E6FFEBC0E6FF36
:100D780000EBE6FF01EBE6FF85EC0EF046E905EB3C
:100D8800E9FF06EBEAFF350EE926000EEA22EF2816
:100D9800030BE66E05EBE9FF06EBEAFF350EE926E5
:100DA800000EEA22E552E750EF6E09EBE9FF0AEB85
:100DB800EAFF020EE926000EEA22EF50E66E02EB89
:100DC800E9FF03EBEAFFE552E750EF6E09EBE9FFB5
:100DD8000AEBEAFFEF6A0B5003D002D0FC0E00D0FA
:100DE80046E9E7CFD9FF1200D9CFE6FFE1CFD9FF17
:100DF80085E900EBE6FF01EBE6FF02EBE6FF03EB1C
:100E0800E6FF360EE66E010EE66EECDE46E900D031
:100E180041E9E7CFD9FF1200D9CFE6FFE1CFD9FFEB
:100E280086E900EBE6FF01EBE6FF02EBE6FF03EBEA
:100E3800E6FF04EBE6FF360EE66E010EE66E4BDFCC
:100E480047E900D041E9E7CFD9FF1200D9CFE6FF43
:100E5800E1CFD9FF85E900EBE6FF01EBE6FF02EB06
:100E6800E6FF03EBE6FF000EE66E010EE66EBADE65
:100E780046E900D041E9E7CFD9FF1200D9CFE6FF14
:100E8800E1CFD9FF86E900EBE6FF01EBE6FF02EBD5
:100E9800E6FF03EBE6FF04EBE6FF000EE66E010E4D
:100EA800E66E19DF47E900D041E9E7CFD9FF120024
:100EB800D9CFE6FFE1CFD9FF85E900EBE6FF01EBEB
:100EC800E6FF02EBE6FF03EBE6FF970EE66E000E89
:100ED800E66E88DE46E900D041E9E7CFD9FF120087
:100EE800D9CFE6FFE1CFD9FF86E900EBE6FF01EBBA
:100EF800E6FF02EBE6FF03EBE6FF04EBE6FF970EE7
:100F0800E66E000EE66EE7DE47E900D041E9E7CF7E
:100F1800D9FF1200D9CFE6FFE1CFD9FF85E900EB71
:100F2800E6FF01EBE6FF02EBE6FF03EBE6FF600EF0
:100F3800E66E000EE66E56DE46E900D041E9E7CFE0
:100F4800D9FF1200D9CFE6FFE1CFD9FF86E900EB40
:100F5800E6FF01EBE6FF02EBE6FF03EBE6FF04EB3F
:100F6800E6FF600EE66E000EE66EB5DE47E900D0DD
:100F780041E9E7CFD9FF12000001966B360EE66E05
:100F8800010EE66EFBDD42E9000EE66E010EE66E2E
:100F9800F5DD42E9970EE66E000EE66EEFDD42E9FA
:100FA800600EE66E000EE66EE9DD42E91200D38EB1
:100FB80003001200D9CFE6FFE1CFD9FF83E900EBA8
:100FC800E9FF01EBEAFFE9CFEAF0EACFEBF000EB4B
:100FD800E9FF01EBEAFF350EE926000EEA22EF50A1
:100FE8000D0D0001EA51F324E96EEB51F420EA6E8D
:100FF800EF5000D041E9E7CFD9FF12000001965128
:1010080001E129D06AEC0CF0F3CFEAF0F4CFEBF071
:101018000001EA51EB1101E01ED048EC0CF0F3CFCF
:10102800EAF0F4CFEBF00001EA51EB1101E113D043
:10103800000EE66E010EE66EBDDF42E9000901E032
:101048000AD0360EE66E010EE66EB4DF42E90009FC
:1010580001E001D0ACDF120084EC0CF0F3CFEAF031
:10106800F4CFEBF00001EA51EB1101E123D08A86BD
:101078000001010E966F000EE66E010EE66E9ADF15
:1010880042E9000904E00001966B8A9613D0360EF7
:10109800E66E010EE66E8EDF42E9000904E000010B
:1010A800966B8A9607D00A0EE66E77EC10F041E947
:1010B8008A76E1D71200D9CFE6FFE1CFD9FF81E9DF
:1010C8007FE85CE8FC0ED36E9B8CD950050FE66E6A
:1010D800DACFE6FF6FEC0EF042E9D950160FE66E54
:1010E800DACFE6FF76EC05F042E9D950440FE66E18
:1010F800DACFE6FFC0EC0FF042E9C0EC07F0936AE4
:101108008A6A850EE66EF0EC0FF041E944EC0CF0CB
:101118009F909F9AF1909F869C0EE66EABEC05F02F
:1011280041E9050EE66EE66AD9504C0FE66EDACF55
:10113800E6FFBDEC0AF044E9050EE66EE66AD95012
:10114800540FE66EDACFE6FFBDEC0AF044E916EC80
:101158000BF09D86330EE66EE66A6C0EE66E7FEC4B
:101168000FF043E930EC08F0D950320FE66EDACFD1
:10117800E6FFD950030FE66EDACFE6FF0A0EE66EF9
:1011880042EC07F045E9026E023404E3FC0E025C0F
:1011980000E09CD003502A0A28E0030A23E0010A51
:1011A8001EE0220A01E092D0D950320FE66EDACF63
:1011B800E6FF02EBEAF00001EB6BEABFEB69EAC07D
:1011C800E6FFEBC0E6FF0350E66EE66AD9504A0F29
:1011D800E66EDACFE6FF97EC10F048E977D0B2EB8D
:1011E80004F074D0B2EB04F071D00450F40A57E064
:1011F800070A42E0010A2DE0070A24E0030A01E099
:1012080055D0020E026EF60E326ED9504C0FE66EB5
:10121800DACFE6FF09EC0BF042E9F3CFEAF0F4CFBE
:10122800EBF00001EA51EB110AE1D9504C0FE66EE0
:10123800DACFE6FF46EC0AF042E9336E02D0300E10
:10124800336E39D0020E026E3A0E326E3B0E336E9A
:1012580032D0030E026E1AEC0CF0F3503E6EF450CE
:101268003F6EF20E326E00013FEBEAF0EB6BEA5193
:10127800336EBEEB34F01FD0030E026E2FEC0CF071
:10128800F350406EF450416EF30E326E000141EBA4
:10129800EAF0EB6BEA51336EC0EB34F00CD0020E7F
:1012A800026EF40E326E300E336E05D0030E026EEF
:1012B800326833683468D950320FE66EDACFE6FF09
:1012C80002EBE6FFF2EC00F043E900D0D950320F10
:1012D800E66EDACFE6FFD950030FE66EDACFE6FF07
:1012E8000A0EE66E10EC07F045E9026E023404E3DC
:1012F800FC0E025C00E044D003501E0A20E0010A04
:101308001EE0140A01E03BD0D950320FE66EDACF66
:10131800E6FF02EBEAF00001EB6BEABFEB69EAC01B
:10132800E6FFEBC0E6FF0350E66EE66AD950440FCD
:10133800E66EDACFE6FFE7EC0FF048E921D0D950A6
:101348004C0FE66EDACFE6FFD950320FE66EDACFF1
:10135800E6FF02EBEAF00001EB6BEABFEB69EAC0DB
:10136800E6FFEBC0E6FF0350E66EE66AD950420F8F
:10137800E66EDACFE6FF62EC0DF04AE901D000D064
:10138800F1D67FE95DE9E7CFD9FF1200D9CFE6FFB3
:10139800E1CFD9FF84E901EBE9FF02EBEAFF040E94
:1013A800E926000EEA22EECFEAF0EFCFEBF001EBF0
:1013B800E9FF02EBEAFFEECFECF0EFCFEDF0000132
:1013C800EC51EA1902E1ED51EB1905E1000EF36E5B
:1013D800F46A54D053D001EBE9FF02EBEAFF040EA4
:1013E800E926000EEA22FF0EEE1802E1FF0EED18C4
:1013F80019E101EBE9FF02EBEAFF060EE926000E10
:10140800EA22EE50EFCFEAFFE96E00EBEFFF01EBC7
:10141800E9FF02EBEAFF040EE926000EEA22EE2AB3
:10142800EF2228D001EBE9FF02EBEAFF040EE926E0
:10143800000EEA22EE2AEF2201EBE9FF02EBEAFFB7
:10144800060EE926000EEA22EECFEAF0EFCFEBF027
:1014580001EBE9FF02EBEAFF040EE926000EEA229F
:10146800EA51EE24E76EEB51EE20EA6EE7CFE9FF92
:1014780000EBEFFF010EF36EF46A00D041E9E7CF0D
:10148800D9FF1200D9CFE6FFE1CFD9FF83E943E8BE
:1014980000EBE9FF01EBEAFF040EE926000EEA2261
:1014A800FF0EEE1802E1FF0EED1803E1240E5DD0E9
:1014B8005CD000EBE9FF01EBEAFF060EE926000E1F
:1014C800EA22EE50EFCFEAFFE96EEF50036E046AAE
:1014D800056A00EBE9FF01EBEAFF040EE926000EBE
:1014E800EA22EC340550ED1804E6EE50045CED50A9
:1014F80005582FE200010428EA6F000E0520EB6F63
:1015080000EBE9FF01EBEAFF060EE926000EEA22EE
:10151800EA51EE24E76EEB51EE20EA6EE7CFE9FFE1
:10152800EF50E66E00EBE9FF01EBEAFF060EE92655
:10153800000EEA22EE500424E76EED500520EA6E14
:10154800E7CFE9FFE552E750EF6E042A000E0522C7
:10155800C0D700EBE9FF01EBEAFF040EE926000E15
:10156800EA22EE06EF5A035000D044E9E7CFD9FF4C
:101578001200D9CFE6FFE1CFD9FF85E9013404E2B3
:1015880000500008000E015438E202EBE9FF03EBBB
:10159800EAFF00EBEEFF01EBEDFF02EBE9FF03EBE7
:1015A800EAFF020EEB6A030EEB6A02EBE9FF03EBBC
:1015B800EAFF040EE926000EEA22EE68ED6802EB67
:1015C800E9FF03EBEAFF060EE926000EEA22EECF5A
:1015D800EAF0EFCFEBF002EBE9FF03EBEAFF0001E3
:1015E800EA51EE24E76EEB51EE20EA6EE7CFE9FF11
:1015F800010EF36EF46A05D004D0000EF36EF46A9F
:1016080000D041E9E7CFD9FF1200D9CFE6FFE1CFFB
:10161800D9FF83E9010EF36EF46A00D041E9E7CF00
:10162800D9FF12000001D56BD66BD76BD86BD96B7D
:10163800DA6BDB6BDC6B8150100B01E0010ECD6FB8
:10164800CE6B8150200B01E0010ECF6FD06B815023
:10165800400B01E0010ED16FD26B8150800B01E08D
:10166800010ED36FD46B12008150100B01E0010EF4
:101678000001EA6FEB6BEA510001CD1904E10001AA
:10168800EB510001CE191DE08150100B01E0010E55
:10169800CD6FCE6BCF51CD1902E1D051CE1902E0FA
:1016A800010E01D0FF0E0001EA6FEB6B800B01E029
:1016B800EB69EA510001D5270001EB510001D6235F
:1016C80086D08150200B01E0010E0001EA6FEB6B20
:1016D800EA510001CF1904E10001EB510001D019D2
:1016E8001DE08150200B01E0010ECF6FD06BCF5170
:1016F800CD1902E1D051CE1902E1010E01D0FF0E41
:101708000001EA6FEB6B800B01E0EB69EA51000125
:10171800D5270001EB510001D62359D08150400B49
:1017280001E0010E0001EA6FEB6BEA510001D119EB
:1017380004E10001EB510001D2191DE08150400B7A
:1017480001E0010ED16FD26BD351D11902E1D4510E
:10175800D21902E0010E01D0FF0E0001EA6FEB6B17
:10176800800B01E0EB69EA510001D7270001EB513A
:101778000001D8232CD08150800B01E0010E00011C
:10178800EA6FEB6BEA510001D31904E10001EB5158
:101798000001D4191CE08150800B01E0010ED36FC9
:1017A800D46BD351D11902E1D451D21902E1010EFF
:1017B80001D0FF0E0001EA6FEB6B800B01E0EB69D3
:1017C800EA510001D7270001EB510001D82302D8C4
:1017D80004EF0CF00001D951D55D0001EA6F00015A
:1017E800DA51D6590001EB6FEA510001DD270001FB
:1017F800EB510001DE23D5C0D9F0D6C0DAF01200D3
:101808000001DB51D75D0001EA6F0001DC51D859B6
:101818000001EB6FEA510001DF270001EB510001E5
:10182800E023D7C0DBF0D8C0DCF01200D9CFE6FF48
:10183800E1CFD9FF81E942E80001DD51016EDE51B7
:10184800026EDD6BDE6BF30EF36EF46800D043E9D5
:10185800E7CFD9FF1200D9CFE6FFE1CFD9FF81E961
:1018680042E80001DF51016EE051026EDF6BE06B70
:10187800F40EF36EF46800D043E9E7CFD9FF120005
:10188800D08EF28EF28C1200F250800B800A01E0AA
:10189800010E0001EA6FEB6B800B01E0EB69EAC017
:1018A800F3FFEBC0F4FF00D01200F250400B400AE7
:1018B80001E0010E0001EA6FEB6B800B01E0EB69C0
:1018C800EAC0F3FFEBC0F4FF00D01200F2AC05D081
:1018D800000EF36EF46A13D012D0D6DFF3CFEAF01D
:1018E800F4CFEBF00001EA51EB1105E0000EF36EC6
:1018F800F46A05D004D0010EF36EF46A00D0120029
:10190800E5DFF3CFEAF0F4CFEBF00001EA51EB1199
:101918000EE1BADFF3CFECF0F4CFEDF00001EC51BB
:10192800ED1105E1010EF36EF46A05D004D0000E46
:10193800F36EF46A00D01200DACFE4FFE2CFDAFFE8
:10194800E9CFE4FFEACFE4FFD9CFE4FFDACFE4FF41
:10195800E6C0E4FFE7C0E4FFE8C0E4FFE9C0E4FF55
:10196800F6CFE4FFF7CFE4FFF5CFE4FFF3CFE4FFD2
:10197800F4CFE4FFFACFE4FF00EEEAF0040EE80447
:1019880003E3EECFE4FFFBD7E6529EA603D09E9674
:10199800BBEC01F0F2A403D0F294DBEC0EF002EC05
:1019A80008F0E55200EEEDF0040EE80403E3E5CF9D
:1019B800EDFFFBD7E5CFFAFFE5CFF4FFE5CFF3FF67
:1019C800E5CFF5FFE5CFF7FFE5CFF6FFE5CFE9F087
:1019D800E5CFE8F0E5CFE7F0E5CFE6F0E5CFDAFFD1
:1019E800E5CFD9FFE5CFEAFFE5CFE9FFE5CFDAFF9D
:1019F8001100D8CFE4FFE0CFE4FFE46EDACFE4FFD4
:101A0800E2CFDAFFE9CFE4FFEACFE4FFD9CFE4FF82
:101A1800DACFE4FFE6C0E4FFE7C0E4FFE8C0E4FF94
:101A2800E9C0E4FFF6CFE4FFF7CFE4FFF5CFE4FF2A
:101A3800F3CFE4FFF4CFE4FFFACFE4FF00EEEAF0DF
:101A4800040EE80403E3EECFE4FFFBD7E6529EA0C2
:101A580003D09E9010EC0FF09EAA03D09E9A12EC31
:101A68000EF0E55200EEEDF0040EE80403E3E5CFD6
:101A7800EDFFFBD7E5CFFAFFE5CFF4FFE5CFF3FFA6
:101A8800E5CFF5FFE5CFF7FFE5CFF6FFE5CFE9F0C6
:101A9800E5CFE8F0E5CFE7F0E5CFE6F0E5CFDAFF10
:101AA800E5CFD9FFE5CFEAFFE5CFE9FFE5CFDAFFDC
:101AB800E550E5CFE0FFE5CFD8FF1000D9CFE6FF2E
:101AC800E1CFD9FF8BE91E0E061801E1075001E1AD
:101AD800A1D01F0E061801E1075001E09BD002506B
:101AE8000424E96E03500520EA6EEF6A080EE66EDC
:101AF800E66A000EE66E000EE66E02EBE6FF03EB0A
:101B0800E6FFB0EC0EF046E900090AE1460EE66E83
:101B180000EBE6FF01EBE6FFCAEC09F043E971D000
:101B2800080EE66EE66A110EE66E000EE66E02EB31
:101B3800E6FF03EBE6FFB0EC0EF046E900090AE128
:101B4800380EE66E00EBE6FF01EBE6FFCAEC09F0A3
:101B580043E957D0080EE66EE66A220EE66E000EDE
:101B6800E66E02EBE6FF03EBE6FFB0EC0EF046E9AB
:101B780000090AE1340EE66E00EBE6FF01EBE6FF32
:101B8800CAEC09F043E93DD0080EE66EE66A330E6A
:101B9800E66E000EE66E02EBE6FF03EBE6FFB0EC46
:101BA8000EF046E900090AE1320EE66E00EBE6FFA8
:101BB80001EBE6FFCAEC09F043E923D0080EE66E14
:101BC800E66A440EE66E000EE66E02EBE6FF03EBF5
:101BD800E6FFB0EC0EF046E900090AE1310EE66EC8
:101BE80000EBE6FF01EBE6FFCAEC09F043E909D098
:101BF8005A0EE66E00EBE6FF01EBE6FFCAEC09F0D1
:101C080043E9000EE66EE66A460EE66EE66AF8EC12
:101C180006F044E941E9E7CFD9FF12009EAA4CD06B
:101C280010EC10F0E66EF0C0E9FFF1C0EAFFE9CF72
:101C3800EAF0EACFEBF0F0C0E9FFF1C0EAFF100EDE
:101C4800EB500001EA6AEA25E96EEB51EA22E55217
:101C5800E750EF6EF0C0E9FFF1C0EAFF100EE92689
:101C6800000EEA22EF2AF0C0E9FFF1C0EAFF100EE9
:101C7800EB50100821E1F0C0E9FFF1C0EAFFE9CF1D
:101C8800EAF0EACFEBF0EAC0E6FFEBC0E6FF1F0E92
:101C9800E66EF0C0E9FFF1C0EAFF100EEB50E66E09
:101CA800F8EC06F044E9F0C0E9FFF1C0EAFF100ED5
:101CB800E926000EEA22EF6A0001F2A70BD0AB98E2
:101CC800AB88000EE66EE66A1E0EE66EE66AF8EC73
:101CD80006F044E91200D9CFE6FFE1CFD9FF83E946
:101CE80000EBF0F001EBF1F0F0C0E9FFF1C0EAFF22
:101CF800100EE926000EEA22EF6A41E9E7CFD9FF84
:101D08001200D9CFE6FFDACFE6FFFA0EE3CFD9FF0C
:101D1800FB0EE3CFDAFFFC0EE3CFE9FFFD0EE3CFC6
:101D2800EAFFE9CFF3FFEACFF4FFF80EE35003E14F
:101D3800F90EE35008E0F80EE30602E2F90EE306B6
:101D4800DECFEEFFF2D7FF0EE3CFDAFFE552FF0E4C
:101D5800E3CFD9FFE5521200D9CFE6FFDACFE6FF8D
:101D6800FA0EE3CFD9FFFB0EE3CFDAFFFC0EE3CF89
:101D7800E9FFFD0EE3CFEAFFF80EE35003E1F90EA9
:101D8800E3500AE0F80EE30602E2F90EE306DE503D
:101D9800EF5C02E1EE66F0D7F36EFF0EE3CFDAFFF9
:101DA800E552FF0EE3CFD9FFE552F3501200D9CF29
:101DB800E6FFE1CFD9FF81E946E88A70000EE66EBA
:101DC800E66A5FEC10F042E9D950010FE66EDACF0F
:101DD800E6FFD950050FE66EDACFE6FF020EE66E93
:101DE800A6EC07F045E9036E046AE8BE0468020E33
:101DF800031801E104500CE1D950010FE66EDACF67
:101E0800E6FF0A0EE66E020EE66E2AEC07F044E9DB
:101E180047E9E7CFD9FF1200D9CFE6FFE1CFD9FFD5
:101E280081E942E88A7247EC10F0F350016EF450F1
:101E3800026E000EE66EE66A0B0EE66EE66AF8ECD7
:101E480006F044E9000EE66EE66A2FEC10F042E96F
:101E580043E9E7CFD9FF12001E0EF66E000EF76EAB
:101E6800000EF86E00010900F5505A6F0900F55090
:101E78005B6F03E15A6701D03DD00900F550556FFB
:101E88000900F550566F0900F550576F0900090011
:101E9800F550E96E0900F550EA6E090009000900DD
:101EA800F550586F0900F550596F09000900F6CF31
:101EB8005CF0F7CF5DF0F8CF5EF055C0F6FF56C086
:101EC800F7FF57C0F8FF0001585302E1595307E0E4
:101ED8000900F550EE6E5807F8E25907F9D75CC0CB
:101EE800F6FF5DC0F7FF5EC0F8FF00015A07000E5D
:101EF8005B5BBFD71200D9CFE6FFDACFE6FFE1CFB1
:101F0800D9FFE2CFDAFF85E9AC6AAB6A02B0AC88E8
:101F180002A202D0AC8CAB8C02B4AC8E02A602D06A
:101F2800AB8801D0AB8A02B8AC849E9802BAAB8663
:101F380002AC02D09D8A01D09D9A9E9A02AE02D030
:101F48009D8801D09D9800EBAFFF000101EBEAF0FE
:101F5800EB6BEAC0B0FFAC8AAB8E949C948EAC500D
:101F6800100B04E0AC50800B01E1948C41E9E5CF03
:101F7800DAFFE7CFD9FF1200D9CFE6FFE1CFD9FFCB
:101F880083E900EBE9FF01EBEAFF040EEB6A050EBB
:101F9800EB6A00EBE9FF01EBEAFF020EE926000E0F
:101FA800EA22300EEF6E00EBE9FF01EBEAFF020ECA
:101FB800E926000EEA22E92AEA22300EEF6E41E90C
:101FC800E7CFD9FF1200D9CFE6FFE1CFD9FF89E9E2
:101FD80041E9E7CFD9FF1200D9CFE6FFDACFE6FF14
:101FE800E1CFD9FFE2CFDAFF83E97E0E0014CD6E90
:101FF80000AC02D0CD8E01D0CD9ECF6ACE6A9E9025
:1020080000AE02D09D8001D09D90CD8041E9E5CF02
:10201800DAFFE7CFD9FF1200D9CFE6FFDACFE6FF24
:10202800E1CFD9FFE2CFDAFF82E941E8F20E000101
:10203800F217ABAC03D0F291ABB0F281ABB4F2853E
:10204800ABB2F287AE50026E025042E9E5CFDAFF3A
:10205800E7CFD9FF1200D9CFE6FFDACFE6FFE1CF0D
:10206800D9FFE2CFDAFF84E942E880EB04F081EBA4
:1020780005F005EBCFFF04EBCEFF43E9E5CFDAFF30
:10208800E7CFD9FF1200D9CFE6FFDACFE6FFE1CFDD
:10209800D9FFE2CFDAFF82E942E8CE50026ECF5094
:1020A800036E02EBF3FF03EBF4FF43E9E5CFDAFF3E
:1020B800E7CFD9FF1200D9CFE6FFDACFE6FFE1CFAD
:1020C800D9FFE2CFDAFF84E942E880EB04F081EB44
:1020D80005F005EBD7FF04EBD6FF43E9E5CFDAFFC0
:1020E800E7CFD9FF1200FF0EE35000015F6F480EE3
:1020F80001D04C0EE76EE72EFED7E76AE72EFED733
:102108005F2FF7D71200000EF36E00EE00F00D0EF1
:1021180001D81200EA6002D0EE6AFCD7F350E960F9
:102128001200EE6AFCD7D9CFE6FFE1CFD9FF89E9E3
:1021380042E880EB09F081EB0AF043E9E7CFD9FFE9
:1021480012001CEE00F02CEE00F0F86A30EC0FF0F4
:1021580003EC00F05FEC08F0FBD712001F0EC5146B
:10216800FDE1C750040BFAE1120002363730303770
:10217800313031344135440D0A03000236373030EE
:1021880037324245453034420D0A030002363730B3
:102198003037323831384231460D0A0300023637BB
:1021A800303037324330353138340D0A03000236C7
:0F21B80037303037324146343846320D0A030093
:020000040030CA
:0300010008191EBD
:0200050080C0B9
:00000001FF
