:1000000015EF17F012001200B4EF12F01200C250F8
:10001000020B01E0010E120011EF13F012000200BA
:100020007A2E00000000000055000000742E000031
:10003000800100000600000094869488C76AC66AA2
:10004000C56AC686C78E0A0EC86E94869488C68A0C
:100050001200D9CFE6FFE1CFD9FF84E9FBC0E9FF69
:10006000FCC0EAFF190EE926000EEA22EF6AFBC087
:10007000E9FFFCC0EAFF190EEB50D880025432E2CF
:10008000FBC0E9FFFCC0EAFF190EEB500024E96E4B
:10009000000E0120EA6EEF50E66EFBC0E9FFFCC0E7
:1000A000EAFF0F0EE926000EEA22E9CFF5F0EACFCB
:1000B000F6F0FBC0E9FFFCC0EAFF190EEB500001AF
:1000C000EA6AF525E96EF651EA22E552E750EF6E4D
:1000D000FBC0E9FFFCC0EAFF190EE926000EEA2288
:1000E000EF2AC5D7FBC0E9FFFCC0EAFF190EE926DD
:1000F000000EEA2202EBEFFFFBC0E9FFFCC0EAFFC3
:100100001A0EE926000EEA22010EEF6EFBC0E9FF8F
:10011000FCC0EAFF0C0EE926000EEA220B0EEF6E81
:10012000FBC0E9FFFCC0EAFF0F0EEB50E66EFBC020
:10013000E9FFFCC0EAFF1B0EE926000EEA22E552A9
:10014000E750EF6EC580C5B0FED7000E00D041E984
:10015000E7CFD9FF1200D9CFE6FFE1CFD9FF83E97E
:1001600042E801EBFDF00001FE6B036A046A0A0E2F
:10017000D89004BE03D0035C000E045814E2FBC008
:10018000E9FFFCC0EAFFE9CFF5F0EACFF6F00001A5
:100190000350F525E96E0450F621EA6EEF6A032A52
:1001A000000E0422E4D7FBC0E9FFFCC0EAFF1B0EEF
:1001B000E926000EEA2200EBEFFFFBC0E9FFFCC0DE
:1001C000EAFF0C0EE926000EEA220C0EEF6E2EEC72
:1001D00017F0C580000E00D043E9E7CFD9FF120029
:1001E000D9CFE6FFE1CFD9FF84E9FBC0E9FFFCC02E
:1001F000EAFF190EE926000EEA22EF6AFBC0E9FFCA
:10020000FCC0EAFF190EEB50D880025432E2FBC06A
:10021000E9FFFCC0EAFF190EEB500024E96E000E66
:100220000120EA6EEF50E66EFBC0E9FFFCC0EAFF7A
:100230000F0EE926000EEA22E9CFF5F0EACFF6F03C
:10024000FBC0E9FFFCC0EAFF190EEB500001EA6AAF
:10025000F525E96EF651EA22E552E750EF6EFBC054
:10026000E9FFFCC0EAFF190EE926000EEA22EF2A98
:10027000C5D7FBC0E9FFFCC0EAFF190EE926000E56
:10028000EA2202EBEFFFFBC0E9FFFCC0EAFF1A0E17
:10029000E926000EEA22010EEF6EFBC0E9FFFCC06A
:1002A000EAFF0F0EEB50C96EC68841E9E7CFD9FFD0
:1002B0001200D9CFE6FFE1CFD9FF82E9FBC0E9FF09
:1002C000FCC0EAFF0B0EE926000EEA22010EEF6EDB
:1002D000FBC0E9FFFCC0EAFF0A0EE926000EEA2295
:1002E000EF6A005038E0C7AA1ED0FBC0E9FFFCC08F
:1002F000EAFF0C0EE926000EEA22050EEF6EFBC0A7
:10030000E9FFFCC0EAFF0E0EE926000EEA22EF2A02
:10031000FBC0E9FFFCC0EAFF0D0EE926000EEA2251
:10032000050EEF6E17D0C7A40BD0FBC0E9FFFCC0D1
:10033000EAFF0C0EE926000EEA22080EEF6E0AD044
:10034000FBC0E9FFFCC0EAFF0C0EE926000EEA2222
:10035000070EEF6E0AD0FBC0E9FFFCC0EAFF0C0EEF
:10036000E926000EEA22060EEF6E41E9E7CFD9FF3B
:1003700012000F0EC6140E0802E131D901D001D8C7
:100380001200D9CFE6FFE1CFD9FF81E946E8036A41
:10039000046A056A066AC7A004D0C950016E010E3E
:1003A000036E065001E017D1FBC0E9FFFCC0EAFF75
:1003B0000C0EEB50040A01E100D1090A01E1B5D0AD
:1003C000070A01E186D0060A6FE0050A1DE0020A6D
:1003D00008E00E0A01E0FFD00001FE6B2EEC17F0E2
:1003E000FAD0FBC0E9FFFCC0EAFF0C0EE926000EC4
:1003F000EA22090EEF6EFBC0E9FFFCC0EAFF1B0E0C
:10040000EB50FE0BC96EE7D0FBC0E9FFFCC0EAFF72
:100410000B0EE926000EEA22EF2AFBC0E9FFFCC022
:10042000EAFF1A0EEB500001F56FFBC0E9FFFCC0BC
:10043000EAFF190EEB50F55D25E2FBC0E9FFFCC0B9
:10044000EAFF0F0EE926000EEA22E9CFF5F0EACF27
:10045000F6F0FBC0E9FFFCC0EAFF1A0EEB50EA6AB7
:10046000F525E96EF651EA22EF50C96EC5BC09D0F8
:10047000FBC0E9FFFCC0EAFF1A0EE926000EEA22E3
:10048000EF2A11D0010E046EFBC0E9FFFCC0EAFFA9
:100490000C0EE926000EEA22050EEF6E010E056E27
:1004A000C584C5B4FED797D0FBC0E9FFFCC0EAFF06
:1004B0000C0EE926000EEA220A0EEF6EC950026EFB
:1004C000FBC0E9FFFCC0EAFF1B0EEB500109C96E3F
:1004D00082D0C5BC15D0C586FBC0E9FFFCC0EAFFD1
:1004E0000C0EE926000EEA220D0EEF6EFBC0E9FFAE
:1004F000FCC0EAFF0B0EE926000EEA22EF2A14D018
:10050000FBC0E9FFFCC0EAFF0C0EE926000EEA2260
:100510000A0EEF6EC950026EFBC0E9FFFCC0EAFF95
:100520001B0EEB500109C96E56D0035045E0FBC0CD
:10053000E9FFFCC0EAFFE9CFF5F0EACFF6F00001F1
:10054000FE510001EA6AF525E96EF651EA2201EB57
:10055000EFFF0001FD05FE5D0EE2FBC0E9FFFCC000
:10056000EAFF0C0EE926000EEA220A0EEF6EFE2BC1
:10057000C59AC58821D0FBC0E9FFFCC0EAFFE9CFDE
:10058000F5F0EACFF6F0F5C0E6FFF6C0E6FF280E7C
:10059000E66EFDC0E6FFCBEC0BF044E9FBC0E9FFE3
:1005A000FCC0EAFF0C0EE926000EEA22040EEF6EF4
:1005B000C58AC5882EEC17F00ED0FBC0E9FFFCC041
:1005C000EAFF0C0EE926000EEA22050EEF6EC58446
:1005D0000001FE6B00D047E9E7CFD9FF1200D9CF69
:1005E000E6FFE1CFD9FF81E949E8026A036A046ABC
:1005F000056A066AC6AC20D0C69CFBC0E9FFFCC0F9
:10060000EAFF0C0EE926000EEA22050EEF6E010E3F
:10061000066EFBC0E9FFFCC0EAFF0E0EE926000EE5
:10062000EA22EF2AFBC0E9FFFCC0EAFF0D0EE92633
:10063000000EEA22040EEF6EC7A004D0C950016E6E
:10064000010E026E065001E091D1FBC0E9FFFCC033
:10065000EAFF0C0EEB50070A01E1D0D00F0A01E1CE
:100660008DD00E0A15E0030A01E080D1C7A60FD095
:1006700002EBE6FF1EDE41E9FBC0E9FFFCC0EAFF3A
:100680000C0EEB50080803E1026A010E056E6ED1F4
:10069000C7A82ED0FBC0E9FFFCC0EAFF0B0EE9267D
:1006A000000EEA22EF2A025018E0C7BA03D0010E6A
:1006B000046E13D0FBC0E9FFFCC0EAFF0E0EE92672
:1006C000000EEA22EF2AFBC0E9FFFCC0EAFF0D0E94
:1006D000E926000EEA22060EEF6EFBC0E9FFFCC021
:1006E000EAFF0C0EE926000EEA22050EEF6E45D059
:1006F000025043E0FBC0E9FFFCC0EAFF0B0EE92615
:10070000000EEA22EF2AC7BA1BD0C7B40BD0FBC039
:10071000E9FFFCC0EAFF0C0EE926000EEA22070EF4
:10072000EF6E0DD0FBC0E9FFFCC0EAFF0C0EE9261E
:10073000000EEA22080EEF6E010E056E026A1DD051
:10074000FBC0E9FFFCC0EAFF0E0EE926000EEA221C
:10075000EF2AFBC0E9FFFCC0EAFF0C0EE926000E01
:10076000EA22050EEF6EFBC0E9FFFCC0EAFF0D0EAA
:10077000E926000EEA22060EEF6EF8D0FBC0E9FF74
:10078000FCC0EAFF1A0EEB500001F56FFBC0E9FF59
:10079000FCC0EAFF190EEB50F55D25E2FBC0E9FF56
:1007A000FCC0EAFF0F0EE926000EEA22E9CFF5F0C1
:1007B000EACFF6F0FBC0E9FFFCC0EAFF1A0EEB50EF
:1007C000EA6AF525E96EF651EA22EF50C96EFBC0E0
:1007D000E9FFFCC0EAFF1A0EE926000EEA22EF2A22
:1007E000010E036E0AD0FBC0E9FFFCC0EAFF0C0E4D
:1007F000E926000EEA22050EEF6EB8D0C7A85AD03F
:10080000FBC0E9FFFCC0EAFF0B0EE926000EEA225E
:10081000EF2A025042E0C7AA22D0FBC0E9FFFCC089
:10082000EAFFE9CFF5F0EACFF6F0FBC0E9FFFCC044
:10083000EAFF0A0EEB500001EA6AF525E96EF6516F
:10084000EA2201EBEFFFFBC0E9FFFCC0EAFF0A0E62
:10085000E926000EEA22EF2A010E046E1DD0FBC02D
:10086000E9FFFCC0EAFF0E0EE926000EEA22EF2A9D
:10087000FBC0E9FFFCC0EAFF0D0EE926000EEA22EC
:10088000060EEF6EFBC0E9FFFCC0EAFF0C0EE92686
:10089000000EEA22050EEF6E02D0010E046EFBC0C0
:1008A000E9FFFCC0EAFF0C0EE926000EEA22050E65
:1008B000EF6E5BD0025059E0FBC0E9FFFCC0EAFFDD
:1008C0000B0EE926000EEA22EF2AC7AA20D0FBC0B1
:1008D000E9FFFCC0EAFFE9CFF5F0EACFF6F0FBC094
:1008E000E9FFFCC0EAFF0A0EEB500001EA6AF525B9
:1008F000E96EF651EA2201EBEFFFFBC0E9FFFCC015
:10090000EAFF0A0EE926000EEA22EF2A2ED0C7A43B
:100910000FD0FBC0E9FFFCC0EAFF0C0EE926000E79
:10092000EA22080EEF6E010E046E056E026A1DD0FB
:10093000FBC0E9FFFCC0EAFF0E0EE926000EEA222A
:10094000EF2AFBC0E9FFFCC0EAFF0D0EE926000E0E
:10095000EA22060EEF6EFBC0E9FFFCC0EAFF0C0EB8
:10096000E926000EEA22050EEF6E00D0025002E1E9
:10097000035002E0C6A8C688FBC0E9FFFCC0EAFF3E
:100980000A0EEB5008081FE204501DE1FBC0E9FF0E
:10099000FCC0EAFF0C0EE926000EEA22050EEF6EFF
:1009A000FBC0E9FFFCC0EAFF0E0EE926000EEA22BA
:1009B000EF2AFBC0E9FFFCC0EAFF0D0EE926000E9E
:1009C000EA22070EEF6E045041E0FBC0E9FFFCC0D5
:1009D000EAFF0B0EEB50E66EFBC0E9FFFCC0EAFF3E
:1009E000E9CFF5F0EACFF6F0FBC0E9FFFCC0EAFF83
:1009F0000A0EEB500001EA6AF525E96EF651EA228B
:100A0000E552E750EF6EFBC0E9FFFCC0EAFFE9CF1B
:100A1000F5F0EACFF6F0F5C0E6FFF6C0E6FF280EE7
:100A2000E66EFBC0E9FFFCC0EAFF0A0EEB50010FC7
:100A3000E66ECBEC0BF044E9FBC0E9FFFCC0EAFF3B
:100A40000A0EE926000EEA22EF6A35D0FBC0E9FF64
:100A5000FCC0EAFF0E0EEB500001F56F010EF55DD4
:100A60002AE3FBC0E9FFFCC0EAFF0E0EEB50076E65
:100A7000FBC0E9FFFCC0EAFF0D0EEB50086EFBC0A7
:100A8000E9FFFCC0EAFF0B0EEB50096ED950070FCF
:100A9000E66EDACFE6FF290EE66E030EE66ECBECCD
:100AA0000BF044E9FBC0E9FFFCC0EAFF0E0EE926AB
:100AB000000EEA22EF6A055013E0FBC0E9FFFCC01C
:100AC000EAFFE9CFF5F0EACFF6F0F5C0E6FFF6C0B1
:100AD000E6FF2A0EE66EE66ACBEC0BF044E9056A07
:100AE0004AE9E7CFD9FF1200D9CFE6FFE1CFD9FF1E
:100AF00083E900EBFBF001EBFCF0FBC0E9FFFCC07D
:100B0000EAFF0A0EE926000EEA22EF6AFBC0E9FFBF
:100B1000FCC0EAFF0B0EE926000EEA22EF6AFBC0DA
:100B2000E9FFFCC0EAFF0C0EE926000EEA22050EE2
:100B3000EF6EFBC0E9FFFCC0EAFF0E0EE926000ED7
:100B4000EA22EF6A0001FE6BFD6B41E9E7CFD9FFB6
:100B50001200D9CFE6FFE1CFD9FF82E994869488CD
:100B600000EBC8FFC76AC66AC56A0E0EC612C78EFA
:100B700094869488C580C68A41E9E7CFD9FF1200E0
:100B8000D9CFE6FFE1CFD9FFA9E901EBF7F0F7C034
:100B9000F8F00001F76B0250F711F56FF8C0F6F0AE
:100BA000F5C0F3FFF6C0F4FF00D041E9E7CFD9FF6D
:100BB0001200D9CFE6FFE1CFD9FF85E9000101EBB3
:100BC000F5F0F66BF551E66E02EBE9FF03EBEAFF99
:100BD000EE52E552E750EF6EFF0E0014E66E02EBA8
:100BE000E9FF03EBEAFFEE52EE52E552E750EF6EFB
:100BF00000D041E9E7CFD9FF1200D9CFE6FFE1CF1E
:100C0000D9FF83E945E8036A00EBE9FF01EBEAFF5E
:100C1000EECFE6FFEECFE6FFEECFE6FFEECFE6FF4C
:100C2000EECFE6FFEECFE6FFEECFE6FFEECFE6FF3C
:100C3000EECFE6FFEECFE6FFEECFE6FFEECFE6FF2C
:100C4000EECFE6FFEECFE6FFEECFE6FFEECFE6FF1C
:100C5000EECFE6FFEECFE6FFEECFE6FFEECFE6FF0C
:100C6000EECFE6FFEECFE6FFEECFE6FFEECFE6FFFC
:100C7000EECFE6FFEECFE6FFEECFE6FFEECFE6FFEC
:100C8000EECFE6FFEECFE6FFEECFE6FFEECFE6FFDC
:100C9000EECFE6FFEECFE6FFEECFE6FFEECFE6FFCC
:100CA000EECFE6FFEECFE6FFEECFE6FFEECFE6FFBC
:100CB00067DF68E9F350046EF450056E066A076A50
:100CC000066A076A0450065C0550075819E200EBF3
:100CD000E9FF01EBEAFF030EE926000EEA22E9CF65
:100CE000F5F0EACFF6F000010650F525E96E075061
:100CF000F621EA6EEF500326062A000E0722E2D7FD
:100D00000328E86C036E035000D046E9E7CFD9FF13
:100D10001200D9CFE6FFE1CFD9FF85E944E8056AA3
:100D2000066A02EBE9FF03EBEAFFEF50E66E00EB29
:100D3000E9FF01EBEAFFE552E750EF6E02EBE9FF56
:100D400003EBEAFFEE52EF50E66E0028E96E000E6C
:100D50000120EA6EE552E750EF6E02EBE9FF03EB8C
:100D6000EAFFEE52EE52EF50E66E020E0024E96EFC
:100D7000000E0120EA6EE552E750EF6E02EBE9FF4C
:100D800003EBEAFFEECFE6FFEECFE6FFEECFE6FFA6
:100D9000EECFE6FFEECFE6FFEECFE6FFEECFE6FFCB
:100DA000EECFE6FFEECFE6FFEECFE6FFEECFE6FFBB
:100DB000EECFE6FFEECFE6FFEECFE6FFEECFE6FFAB
:100DC000EECFE6FFEECFE6FFEECFE6FFEECFE6FF9B
:100DD000EECFE6FFEECFE6FFEECFE6FFEECFE6FF8B
:100DE000EECFE6FFEECFE6FFEECFE6FFEECFE6FF7B
:100DF000EECFE6FFEECFE6FFEECFE6FFEECFE6FF6B
:100E0000EECFE6FFEECFE6FFEECFE6FFEECFE6FF5A
:100E1000EECFE6FFEECFE6FFEECFE6FFEECFE6FF4A
:100E2000EECFE6FFADDE68E9F350076EF450086ED2
:100E3000056A066A0750055C0850065828E202EB6E
:100E4000E9FF03EBEAFF030EE926000EEA22E9CFF1
:100E5000F7F0EACFF8F000010550F725E96E0650EB
:100E6000F821EA6EEF50E66E030E0524F56F000ED2
:100E70000620F66FF5510024E96EF6510120EA6E66
:100E8000E552E750EF6E052A000E0622D3D702EB9B
:100E9000E9FF03EBEAFF270EE926000EEA22EF50F6
:100EA000E66E030E00010724F56F000E0820F66FB2
:100EB000F5510024E96EF6510120EA6EE552E75043
:100EC000EF6E00D045E9E7CFD9FF1200D9CFE6FF9A
:100ED000E1CFD9FF85E942E8056A066A02500310AE
:100EE00003E00050011002E1000E96D002EBE9FF92
:100EF00003EBEAFF030EE926000EEA22EF50810819
:100F000002E0000E89D002EBE9FF03EBEAFF030EDB
:100F1000E926000EEA22050EE926000EEA22EF502D
:100F2000E66E00EBE9FF01EBEAFFE552E750EF6EFA
:100F300002EBE9FF03EBEAFF030EE926000EEA22CB
:100F4000060EE926000EEA22EF50E66E00EBE9FFFE
:100F500001EBEAFFEE52E552E750EF6E02EBE9FFDC
:100F600003EBEAFF030EE926000EEA22070EE9264C
:100F7000000EEA22EF50E66E00EBE9FF01EBEAFF1C
:100F8000020EE926000EEA22E552E750EF6E056AEE
:100F9000066A00EBE9FF01EBEAFFEE52EF50D89052
:100FA00006BE03D0055C000E065834E202EBE9FFF2
:100FB00003EBEAFF030EE926000EEA22E9CFF7F081
:100FC000EACFF8F0080E00010524F96F000E0620A4
:100FD000FA6FF751F925E96EF851FA21EA6EEF50F0
:100FE000E66E00EBE9FF01EBEAFF030EE926000ED7
:100FF000EA22E9CFF5F0EACFF6F00550F525E96EE3
:101000000650F621EA6EE552E750EF6E052A000E13
:101010000622BFD7010E00D043E9E7CFD9FF120067
:10102000D9CFE6FFE1CFD9FF87E946E8096A0A6A26
:1010300001018151010A01E199D0010A01E0F4D0D6
:1010400000EBE6FF01EBE6FF33EC0EF042E9F3CFF5
:10105000F5F0F4CFF6F0030E0001D890F6BF03D000
:10106000F55D000EF65901E280D0076A086A030EAA
:10107000D89008BE03D0075C000E085816E20001A5
:10108000CD0E0724F56F000E0820F66FF5C0E6FFC1
:10109000F6C0E6FF00EBE6FF01EBE6FF6AEC0DF0C1
:1010A00044E9072A000E0822E2D77E0E0001CD5D3A
:1010B00001E0BAD0CDC0E6FFCEC0E6FFCFC0E6FF6C
:1010C000D0C0E6FFD1C0E6FFD2C0E6FFD3C0E6FF46
:1010D000D4C0E6FFD5C0E6FFD6C0E6FFD7C0E6FF26
:1010E000D8C0E6FFD9C0E6FFDAC0E6FFDBC0E6FF06
:1010F000DCC0E6FFDDC0E6FFDEC0E6FFDFC0E6FFE6
:10110000E0C0E6FFE1C0E6FFE2C0E6FFE3C0E6FFC5
:10111000E4C0E6FFE5C0E6FFE6C0E6FFE7C0E6FFA5
:10112000E8C0E6FFE9C0E6FFEAC0E6FFEBC0E6FF85
:10113000ECC0E6FFEDC0E6FFEEC0E6FFEFC0E6FF65
:10114000F0C0E6FFF1C0E6FFF2C0E6FFF3C0E6FF45
:10115000F4C0E6FF15DD68E9F3CF82F1F4CF83F147
:101160000101010E816F846B856B5ED000EBE6FFA1
:1011700001EBE6FF33EC0EF042E9F3500B6EF45056
:101180000C6E01018251845D8351855927E2076A03
:10119000086A0C3408500C1804E60B50075C0C501D
:1011A00008581BE2D00E84250001F56F000E0101E6
:1011B00085210001F66FF5C0E6FFF6C0E6FF00EB03
:1011C000E6FF01EBE6FF6AEC0DF044E9072A000EAA
:1011D00008220101842B8523DCD725D000EBE6FF14
:1011E00001EBE6FF33EC0EF042E9F3500B6EF450E6
:1011F0000C6E0C3404E20B500008000E0C5413E289
:10120000F40EE66E000EE66E00EBE6FF01EBE6FF85
:101210006AEC0DF044E9CD0EE66E000EE66E08D8DD
:1012200042E90101816B00D047E9E7CFD9FF120005
:10123000D9CFE6FFE1CFD9FF83E94FE800EBE9FF23
:1012400001EBEAFF270EE926000EEA22EFCFF5F0C8
:10125000F5C0E6FF00EBE6FF01EBE6FFCEDC42E97E
:10126000E552E7CFF5F00001F55D01E07BD000EB42
:10127000E6FF01EBE6FFC1DC42E9E66ED0EC16F0DA
:1012800041E900EBE9FF01EBEAFF030EE926000E5E
:10129000EA22EFCFE6FFD0EC16F041E900EBE9FFE0
:1012A00001EBEAFF030EE926000EEA22EF5059E0B7
:1012B000010A57E0800A3AE0010A37E0090A13E020
:1012C0001E0A10E0800A0DE09F0A0AE0810A07E08A
:1012D000010A04E0820A01E044D044D043D042D065
:1012E00041D040D03FD000EBE9FF01EBEAFF030E15
:1012F000E926000EEA22E9CFF5F0EACFF6F0000188
:10130000F551036EF651046E03EBE9FF04EBEAFFBF
:10131000020EE926000EEA22EF5004E00101010E60
:10132000806F02D00101806B1DD01CD0D950050FF9
:10133000E66EDACFE6FF00EBE6FF01EBE6FFC6DD87
:1013400044E90C0E055C0CE1D950080FE66EDACFCB
:10135000E6FF0D0EE66E06EBE6FFCBEC0BF044E984
:1013600001D000D050E9E7CFD9FF1200D9CFE6FF76
:10137000E1CFD9FF83E97FE855E82B6A2C6A00EBBF
:10138000E9FF01EBEAFFEE52EF50080F2D6E2E6AD7
:101390002DEBE6FF2EEBE6FFD950030FE66EDACF1A
:1013A000E6FFD9EC05F044E97E0E036E010E066EF1
:1013B000076E086A096E0A6A00EBE9FF01EBEAFFB3
:1013C000EF500B6E00EBE9FF01EBEAFFEE52EF503E
:1013D0000C6E00EBE9FF01EBEAFF020EE926000EBE
:1013E000EA22EF500D6E080E2B6E2C6A2D502B5CEE
:1013F0002E502C582FE200EBE9FF01EBEAFF030E21
:10140000E926000EEA22E9CFF5F0EACFF6F0000176
:10141000080E2B5CF76F000E2C58F86FF551F7256E
:10142000E96EF651F821EA6EEF50E66ED950060FDC
:10143000E66EDACFE6FFFE0EE3502B24E96E41E9BB
:10144000E5502C20EA6EE552E750EF6E2B2A000E95
:101450002C22CCD7D950030FE66EDACFE6FFFDEC95
:1014600005F042E92A6ED9502F0FE66EDACFE6FF7B
:10147000D950030FE66EDACFE6FF4BDC44E92B6A66
:101480002C6A2D502B5C2E502C5818E2ACA2FED7A3
:10149000D9502F0FE66EDACFE6FFFE0EE3502B2475
:1014A000E96E41E9E5502C20EA6EEFCFE6FFD0EC83
:1014B00016F041E92B2A000E2C22E3D77FE956E9EA
:1014C000E7CFD9FF1200D9CFE6FFE1CFD9FF83E9FB
:1014D00041E800EBE9FF01EBEAFF340EE926000EDC
:1014E000EA22EF6A00EBE9FF01EBEAFF350EE9269D
:1014F000000EEA22EF6A036A040E035C14E200EBBA
:10150000E9FF01EBEAFFE9CFF5F0EACFF6F003508F
:101510000D0D0001F551F324E96EF651F420EA6E49
:10152000EF6A032AE9D742E9E7CFD9FF1200D9CF02
:10153000E6FFE1CFD9FF87E945E803500A6E0B6A61
:1015400004EBE9FF05EBEAFF340EE926000EEA2280
:10155000EF50076E04EBE9FF05EBEAFFE9CFF5F08A
:10156000EACFF6F007500D0D0001F350F525086E97
:10157000F450F621096E08EBE9FF09EBEAFFEF50A2
:1015800002E0FF0E49D008EBE9FF09EBEAFFEE525B
:1015900003EBEFFF08EBE9FF09EBEAFF020EE92698
:1015A000000EEA2202EBEFFF0AEBE6FF0BEBE6FF91
:1015B00000EBE6FF01EBE6FF08EBE9FF09EBEAFFD2
:1015C000030EE926000EEA22E9CFF5F0EACFF6F0A5
:1015D000F5C0E6FFF6C0E6FF06EC16F046E904EBC0
:1015E000E9FF05EBEAFF340EE926000EEA22EF28B8
:1015F000030BE66E04EBE9FF05EBEAFF340EE92688
:10160000000EEA22E552E750EF6E08EBE9FF09EB26
:10161000EAFF010EEF6E00D046E9E7CFD9FF1200D6
:10162000D9CFE6FFE1CFD9FF88E945E805EBE9FF2F
:1016300006EBEAFF350EE926000EEA22EF50086EAF
:1016400005EBE9FF06EBEAFFE9CFF5F0EACFF6F0AC
:1016500008500D0D0001F350F525096EF450F621E8
:101660000A6E09EBE9FF0AEBEAFFEF045CE109EB24
:10167000E9FF0AEBEAFFEE52EF50045C02E2FD0ED6
:1016800054D009EBE9FF0AEBEAFFEE52EF500B6E84
:101690000C6A0BEBE6FF0CEBE6FF09EBE9FF0AEB4C
:1016A000EAFF030EE926000EEA22E9CFF5F0EACFC1
:1016B000F6F0F5C0E6FFF6C0E6FF00EBE6FF01EB53
:1016C000E6FF06EC16F046E905EBE9FF06EBEAFF5C
:1016D000350EE926000EEA22EF28030BE66E05EB35
:1016E000E9FF06EBEAFF350EE926000EEA22E55295
:1016F000E750EF6E09EBE9FF0AEBEAFF020EE9267D
:10170000000EEA22EF50E66E02EBE9FF03EBEAFF80
:10171000E552E750EF6E09EBE9FF0AEBEAFFEF6AEB
:101720000B5003D002D0FC0E00D046E9E7CFD9FF22
:101730001200D9CFE6FFE1CFD9FF85E900EBE6FF44
:1017400001EBE6FF02EBE6FF03EBE6FF360EE66E8B
:10175000010EE66EECDE46E900D041E9E7CFD9FFA5
:101760001200D9CFE6FFE1CFD9FF86E900EBE6FF13
:1017700001EBE6FF02EBE6FF03EBE6FF04EBE6FF1F
:10178000360EE66E010EE66E4BDF47E900D041E90A
:10179000E7CFD9FF1200D9CFE6FFE1CFD9FF85E926
:1017A00000EBE6FF01EBE6FF02EBE6FF03EBE6FFF3
:1017B000000EE66E010EE66EBADE46E900D041E9A3
:1017C000E7CFD9FF1200D9CFE6FFE1CFD9FF86E9F5
:1017D00000EBE6FF01EBE6FF02EBE6FF03EBE6FFC3
:1017E00004EBE6FF000EE66E010EE66E19DF47E938
:1017F00000D041E9E7CFD9FF1200D9CFE6FFE1CF12
:10180000D9FF85E900EBE6FF01EBE6FF02EBE6FF1F
:1018100003EBE6FF970EE66E000EE66E88DE46E905
:1018200000D041E9E7CFD9FF1200D9CFE6FFE1CFE1
:10183000D9FF86E900EBE6FF01EBE6FF02EBE6FFEE
:1018400003EBE6FF04EBE6FF970EE66E000EE66E96
:10185000E7DE47E900D041E9E7CFD9FF1200D9CF51
:10186000E6FFE1CFD9FF85E900EBE6FF01EBE6FFFC
:1018700002EBE6FF03EBE6FF600EE66E000EE66E9F
:1018800056DE46E900D041E9E7CFD9FF1200D9CFB3
:10189000E6FFE1CFD9FF86E900EBE6FF01EBE6FFCB
:1018A00002EBE6FF03EBE6FF04EBE6FF600EE66EFD
:1018B000000EE66EB5DE47E900D041E9E7CFD9FF7B
:1018C00012000001966B360EE66E010EE66EFBDD31
:1018D00042E9000EE66E010EE66EF5DD42E9970E76
:1018E000E66E000EE66EEFDD42E9600EE66E000E7B
:1018F000E66EE9DD42E91200D38E03001200D9CF73
:10190000E6FFE1CFD9FF83E900EBE9FF01EBEAFF56
:10191000E9CFF5F0EACFF6F000EBE9FF01EBEAFFE3
:10192000350EE926000EEA22EF500D0D0001F551AB
:10193000F324E96EF651F420EA6EEF5000D041E94D
:10194000E7CFD9FF12000001965101E129D07EECCA
:1019500012F0F3CFF5F0F4CFF6F00001F551F611E7
:1019600001E01ED05CEC12F0F3CFF5F0F4CFF6F00E
:101970000001F551F61101E113D0000EE66E010EE3
:10198000E66EBDDF42E9000901E00AD0360EE66EE0
:10199000010EE66EB4DF42E9000901E001D0ACDFE0
:1019A000120098EC12F0F3CFF5F0F4CFF6F000014E
:1019B000F551F61101E123D08A860001010E966FE0
:1019C000000EE66E010EE66E9ADF42E9000904E0C1
:1019D0000001966B8A9613D0360EE66E010EE66E07
:1019E0008EDF42E9000904E00001966B8A9607D079
:1019F0000A0EE66EE7EC16F041E98A76E1D71200AE
:101A0000D9CFE6FFE1CFD9FF84E901EBE6FF02EB96
:101A1000E6FF6FD942E9000905E0000EF36EF46AB3
:101A200055D054D001EBE9FF02EBEAFF040EE926A2
:101A3000000EEA22FF0EEE1802E1FF0EED1819E18A
:101A400001EBE9FF02EBEAFF060EE926000EEA22AF
:101A5000EE50EFCFEAFFE96E00EBEFFF01EBE9FF9D
:101A600002EBEAFF040EE926000EEA22EE2AEF223C
:101A700029D001EBE9FF02EBEAFF040EE926000E94
:101A8000EA22EE2AEF2201EBE9FF02EBEAFF060E63
:101A9000E926000EEA22EECFF5F0EFCFF6F001EBEB
:101AA000E9FF02EBEAFF040EE926000EEA2200013C
:101AB000F551EE24E76EF651EE20EA6EE7CFE9FF2E
:101AC00000EBEFFF010EF36EF46A00D041E9E7CFBF
:101AD000D9FF1200D9CFE6FFE1CFD9FF85E942E86F
:101AE0000050011002E1000E6ED002EBE6FF03EBA6
:101AF000E6FFE4D842E9000903E0000E64D063D0B9
:101B000002EBE9FF03EBEAFF060EE926000EEA22EC
:101B1000EE50EFCFEAFFE96EEF50E66E00EBE9FF23
:101B200001EBEAFFE552E750EF6E056A066A02EB49
:101B3000E9FF03EBEAFF040EE926000EEA22EC348B
:101B40000650ED1804E6EE50055CED5006582FE205
:101B500000010528F56F000E0620F66F02EBE9FF85
:101B600003EBEAFF060EE926000EEA22F551EE2409
:101B7000E76EF651EE20EA6EE7CFE9FFEF50E66E32
:101B800002EBE9FF03EBEAFF060EE926000EEA226C
:101B9000EE500524E76EED500620EA6EE7CFE9FF30
:101BA000E552E750EF6E052A000E0622C0D702EB81
:101BB000E9FF03EBEAFF040EE926000EEA22EE0637
:101BC000EF5A010E00D043E9E7CFD9FF1200D9CF79
:101BD000E6FFE1CFD9FF85E9013404E200500008B7
:101BE000000E015438E202EBE9FF03EBEAFF00EBE1
:101BF000EEFF01EBEDFF02EBE9FF03EBEAFF020E64
:101C0000EB6A030EEB6A02EBE9FF03EBEAFF040E5B
:101C1000E926000EEA22EE68ED6802EBE9FF03EB2D
:101C2000EAFF060EE926000EEA22EECFF5F0EFCF2E
:101C3000F6F002EBE9FF03EBEAFF0001F551EE24B9
:101C4000E76EF651EE20EA6EE7CFE9FF010EF36E84
:101C5000F46A05D004D0000EF36EF46A00D041E9B6
:101C6000E7CFD9FF1200D9CFE6FFE1CFD9FF83E953
:101C700000EBE9FF01EBEAFF040EE926000EEA2281
:101C8000EECFF7F0EFCFF8F00001F72BF82300EBE1
:101C9000E9FF01EBEAFF020EE926000EEA22EE5010
:101CA000F75DF56FEE50F859F66FF5C0F3FFF6C02B
:101CB000F4FF00D041E9E7CFD9FF1200D9CFE6FF0A
:101CC000E1CFD9FF83E900EBE9FF01EBEAFF040E66
:101CD000E926000EEA22FF0EEE1802E1FF0EED18D3
:101CE00002E0000E01D0010E00D041E9E7CFD9FF9C
:101CF0001200D9CFE6FFE1CFD9FF83E900EBE9FF7E
:101D000001EBEAFF040EE926000EEA22EECFF5F021
:101D1000EFCFF6F000EBE9FF01EBEAFFEECFF7F0D3
:101D2000EFCFF8F00001F707F85BF751F51902E182
:101D3000F851F61902E0000E01D0010E00D041E981
:101D4000E7CFD9FF1200D9CFE6FFE1CFD9FF81E974
:101D50007FE853E8396A3A6A3B6A3C6A3D6A3E6A00
:101D60003F6A406A416A426A436A446A456A466A0F
:101D7000FC0ED36E9B8CD950050FE66EDACFE6FFD2
:101D800052EC14F042E9D950070FE66EDACFE6FFC5
:101D900074EC05F042E914EC15F0D950310FE66E01
:101DA000DACFE6FFF6EC0FF042E961EC0CF0936A53
:101DB0008A6A850EE66E31EC16F041E958EC12F0B5
:101DC0009F909F861CEC00F09F9A0A0EE66EE66AD2
:101DD000D950470FE66EDACFE6FFE7EC0DF044E9A5
:101DE0009D86330EE66EE66A6C0EE66E93EC15F099
:101DF00043E9D1EC0CF0D950230FE66EDACFE6FFC1
:101E0000D950030FE66EDACFE6FF0A0EE66EE3EC7A
:101E10000BF045E9026E023404E3FC0E025C00E0C4
:101E200086D003500D0A6FE0270A61E0030A5CE0E8
:101E3000010A1EE0220A01E07AD0D950230FE66E93
:101E4000DACFE6FF02EBF5F00001F66BF5BFF669BD
:101E5000F5C0E6FFF6C0E6FF0350E66EE66AD9502D
:101E6000370FE66EDACFE6FF07EC17F048E95FD0F0
:101E7000A3EB04F00450F60A31E0030A2BE0010A58
:101E800026E0070A1BE0010A10E0030A01E02BD05C
:101E9000A4EB39F0A5EB3AF0A6EB3BF0A7EB3CF056
:101EA000A8EB3DF0A9EB3EF01ED02450406E416AF5
:101EB000C0EB41F0406A2550401215D02450426ECC
:101EC000436AC2EB43F0426A255042120CD0A4EBA5
:101ED0003FF009D02450446E456A05D0245002E0FA
:101EE000A4EB46F000D023D0A3EB04F020D00450A4
:101EF000D950230FE66EDACFE6FF02EBE6FFF0ECF7
:101F000000F043E914D09C0E4F6EF70E506EA3EB19
:101F100051F0A4EB52F0D9504F0FE66EDACFE6FF46
:101F2000040EE66E29EC00F043E9818A00D0D95016
:101F3000230FE66EDACFE6FFD950030FE66EDACF55
:101F4000E6FF0A0EE66EB1EC0BF045E9026E0234D4
:101F500004E3FC0E025C00E043D003501E0A20E0C4
:101F6000010A1EE0140A01E03BD0D950230FE66EAF
:101F7000DACFE6FF02EBF5F00001F66BF5BFF6698C
:101F8000F5C0E6FFF6C0E6FF0350E66EE66AD950FC
:101F9000310FE66EDACFE6FF1DEC10F048E920D0F5
:101FA000D950470FE66EDACFE6FFD950230FE66E21
:101FB000DACFE6FF02EBF5F00001F66BF5BFF6694C
:101FC000F5C0E6FFF6C0E6FF0350E66EE66AD950BC
:101FD0002F0FE66EDACFE6FF51EC15F04AE900D09C
:101FE00008D77FE954E9E7CFD9FF1200D9CFE6FF40
:101FF000E1CFD9FF83E900EBE9FF01EBEAFF040E33
:10200000EB6A050EEB6A00EBE9FF01EBEAFF020E5B
:10201000E926000EEA22300EEF6E00EBE9FF01EB3D
:10202000EAFF020EE926000EEA22E92AEA22300E31
:10203000EF6E41E9E7CFD9FF1200D9CFE6FFE1CF3C
:10204000D9FF89E906EBE9FF07EBEAFF040EE92671
:10205000000EEA22EE2AEF2206EBE9FF07EBEAFF89
:10206000040EE926000EEA22050EEE1801E1ED50FD
:1020700032E106EBE9FF07EBEAFF020EE926000E6C
:10208000EA229C0EEF6E06EBE9FF07EBEAFF020E79
:10209000E926000EEA22E92AEA22F20EEF6E06EBAA
:1020A000E9FF07EBEAFF020EE926000EEA22E9CF7C
:1020B000F5F0EACFF6F0F5C0E6FFF6C0E6FF020E57
:1020C000E66E29EC00F043E99C0EE66E030EE66E28
:1020D000ABEC00F042E906EBE9FF07EBEAFF040E88
:1020E000E926000EEA220A0EEE1801E1ED5028E181
:1020F00006EBE9FF07EBEAFF020EE926000EEA22F3
:10210000E92AEA22F30EEF6E06EBE9FF07EBEAFF9E
:10211000020EE926000EEA22E9CFF5F0EACFF6F04A
:10212000F5C0E6FFF6C0E6FF020EE66E29EC00F011
:1021300043E99C0EE66E030EE66EABEC00F042E95E
:1021400006EBE9FF07EBEAFF040EE926000EEA22A0
:102150000F0EEE1801E1ED5032E106EBE9FF07EB5F
:10216000EAFF020EE926000EEA229C0EEF6E06EB55
:10217000E9FF07EBEAFF020EE926000EEA22E92A50
:10218000EA22F60EEF6E06EBE9FF07EBEAFF020E1E
:10219000E926000EEA22E9CFF5F0EACFF6F0F5C025
:1021A000E6FFF6C0E6FF020EE66E29EC00F043E91A
:1021B0009C0EE66E020EE66EABEC00F042E906EB1A
:1021C000E9FF07EBEAFF040EE926000EEA22140EEF
:1021D000EE1801E1ED503AE106EBE9FF07EBEAFF0B
:1021E000020EE926000EEA229C0EEF6E06EBE9FFD6
:1021F00007EBEAFF020EE926000EEA22E92AEA22AC
:10220000F40EEF6E06EBE9FF07EBEAFF020EE9269C
:10221000000EEA22E9CFF5F0EACFF6F0F5C0E6FFCE
:10222000F6C0E6FF020EE66E29EC00F043E99C0ED4
:10223000E66E020EE66EABEC00F042E906EBE9FF5B
:1022400007EBEAFF040EEB6A050EEB6A41E9E7CF04
:10225000D9FF12000101746B756B766B776B786B2D
:10226000796B7A6B7B6B8150100B01E0010E6C6F08
:102270006D6B8150200B01E0010E6E6F6F6B815012
:10228000400B01E0010E706F716B8150800B01E01B
:10229000010E726F736B12008150100B01E0010E82
:1022A0000001F56FF66BF55101016C1904E10001B5
:1022B000F65101016D191DE08150100B01E0010E76
:1022C0006C6F6D6B6E516C1902E16F516D1902E00C
:1022D000010E01D0FF0E0001F56FF66B800B01E0DF
:1022E000F669F551010174270001F65101017523CA
:1022F00086D08150200B01E0010E0001F56FF66BD6
:10230000F55101016E1904E10001F65101016F1947
:102310001DE08150200B01E0010E6E6F6F6B6E515E
:102320006C1902E16F516D1902E1010E01D0FF0E2F
:102330000001F56FF66B800B01E0F669F5510101C4
:1023400074270001F6510101752359D08150400BCB
:1023500001E0010E0001F56FF66BF55101017019F6
:1023600004E10001F651010171191DE08150400B9B
:1023700001E0010E706F716B7251701902E17351BF
:10238000711902E0010E01D0FF0E0001F56FF66B2E
:10239000800B01E0F669F551010176270001F65145
:1023A000010177232CD08150800B01E0010E000148
:1023B000F56FF66BF5510101721904E10001F65158
:1023C000010173191CE08150800B01E0010E726F56
:1023D000736B7251701902E17351711902E1010EB0
:1023E00001D0FF0E0001F56FF66B800B01E0F6697E
:1023F000F551010176270001F6510101772302D83A
:1024000018EF12F001017851745D0001F56F0101C0
:10241000795175590001F66FF55101017C270001D2
:10242000F65101017D2374C178F175C179F1120073
:1024300001017A51765D0001F56F01017B517759F9
:102440000001F66FF55101017E270001F6510101EF
:102450007F2376C17AF177C17BF11200D9CFE6FFF5
:10246000E1CFD9FF81E942E801017C51016E7D5144
:10247000026E7C6B7D6BF30EF36EF46800D043E963
:10248000E7CFD9FF1200D9CFE6FFE1CFD9FF81E92D
:1024900042E801017E51016E7F51026E7E6B7F6BBF
:1024A000F40EF36EF46800D043E9E7CFD9FF1200D1
:1024B000D08EF28EF28C1200F250800B800A01E076
:1024C000010E0001F56FF66B800B01E0F669F5C0B7
:1024D000F3FFF6C0F4FF00D01200F250400B400AA8
:1024E00001E0010E0001F56FF66B800B01E0F6696B
:1024F000F5C0F3FFF6C0F4FF00D01200F2AC05D037
:10250000000EF36EF46A13D012D0D6DFF3CFF5F0DD
:10251000F4CFF6F00001F551F61105E0000EF36E70
:10252000F46A05D004D0010EF36EF46A00D01200F4
:10253000E5DFF3CFF5F0F4CFF6F00001F551F61139
:102540000EE1BADFF3CFF7F0F4CFF8F00001F75166
:10255000F81105E1010EF36EF46A05D004D0000E07
:10256000F36EF46A00D01200DACFE4FFE2CFDAFFB4
:10257000E9CFE4FFEACFE4FFD9CFE4FFDACFE4FF0D
:1025800086C1E4FF87C1E4FF88C1E4FF89C1E4FF9D
:10259000F6CFE4FFF7CFE4FFF5CFE4FFF3CFE4FF9E
:1025A000F4CFE4FFFACFE4FF00EEF5F0060EE80406
:1025B00003E3EECFE4FFFBD7E6529EA603D09E9640
:1025C000B9EC01F0F2A403D0F29465EC14F0A3ECA2
:1025D0000CF0E55200EEFAF0060EE80403E3E5CF56
:1025E000EDFFFBD7E5CFFAFFE5CFF4FFE5CFF3FF33
:1025F000E5CFF5FFE5CFF7FFE5CFF6FFE5CF89F1B2
:10260000E5CF88F1E5CF87F1E5CF86F1E5CFDAFFB9
:10261000E5CFD9FFE5CFEAFFE5CFE9FFE5CFDAFF68
:102620001100D8CFE4FFE0CFE4FFE46EDACFE4FF9F
:10263000E2CFDAFFE9CFE4FFEACFE4FFD9CFE4FF4E
:10264000DACFE4FF86C1E4FF87C1E4FF88C1E4FF7D
:1026500089C1E4FFF6CFE4FFF7CFE4FFF5CFE4FF55
:10266000F3CFE4FFF4CFE4FFFACFE4FF00EEF5F0A0
:10267000060EE80403E3EECFE4FFFBD7E6529EA08C
:1026800003D09E909AEC14F09EAA03D09E9AFCEC84
:1026900013F0E55200EEFAF0060EE80403E3E5CF8E
:1026A000EDFFFBD7E5CFFAFFE5CFF4FFE5CFF3FF72
:1026B000E5CFF5FFE5CFF7FFE5CFF6FFE5CF89F1F1
:1026C000E5CF88F1E5CF87F1E5CF86F1E5CFDAFFF9
:1026D000E5CFD9FFE5CFEAFFE5CFE9FFE5CFDAFFA8
:1026E000E550E5CFE0FFE5CFD8FF1000D9CFE6FFFA
:1026F000E1CFD9FF82E900EBE6FFD0EC16F041E92B
:1027000000D041E9E7CFD9FF1200D9CFE6FFE1CFF2
:10271000D9FF83E9870EE66E00EBE6FF01EBE6FFEB
:102720001FEC15F043E98F0EE66E00010028F56FEF
:10273000000E0120F66FF5C0E6FFF6C0E6FF1FECC5
:1027400015F043E9970EE66E020E00010024F56FC6
:10275000000E0120F66FF5C0E6FFF6C0E6FF1FECA5
:1027600015F043E99F0EE66E030E00010024F56F9D
:10277000000E0120F66FF5C0E6FFF6C0E6FF1FEC85
:1027800015F043E900D041E9E7CFD9FF1200D9CFD6
:10279000E6FFE1CFD9FF83E9A70EE66E00EBE6FF87
:1027A00001EBE6FF1FEC15F043E9AF0EE66E00010A
:1027B0000028F56F000E0120F66FF5C0E6FFF6C0A9
:1027C000E6FF1FEC15F043E900D041E9E7CFD9FF60
:1027D0001200D9CFE6FFE1CFD9FF83E9B70EE66E4D
:1027E00000EBE6FF01EBE6FF1FEC15F043E900D03C
:1027F00041E9E7CFD9FF12009EAA45D051EC16F06F
:10280000E66E8CC1E9FF8DC1EAFFE9CFF5F0EACFB2
:10281000F6F08CC1E9FF8DC1EAFFEE52EF500001E6
:10282000EA6AF525E96EF651EA22E552E750EF6EC5
:102830008CC1E9FF8DC1EAFFEE52EF2A8CC1E9FF9E
:102840008DC1EAFFEE52EF041EE18CC1E9FF8DC19C
:10285000EAFFE9CFF5F0EACFF6F0F5C0E6FFF6C003
:10286000E6FF1F0EE66E8CC1E9FF8DC1EAFFEE5256
:10287000EFCFE6FF99EC0BF044E98CC1E9FF8DC185
:10288000EAFFEE52EF6A01018EA70BD0AB98AB883E
:10289000000EE66EE66A1E0EE66EE66A99EC0BF036
:1028A00044E91200D9CFE6FFE1CFD9FF83E900EB7D
:1028B0008CF101EB8DF18CC1E9FF8DC1EAFFEE5285
:1028C000EF6A41E9E7CFD9FF1200D9CFE6FFE1CFA8
:1028D000D9FF81E946E88A70000EE66EE66AA0EC50
:1028E00016F042E9D950010FE66EDACFE6FFD95073
:1028F000050FE66EDACFE6FF020EE66E47EC0CF04F
:1029000045E9036E046AE8BE0468020E031801E19B
:1029100004500CE1D950010FE66EDACFE6FF0A0E43
:10292000E66E020EE66ECBEC0BF044E947E9E7CF2A
:10293000D9FF1200D9CFE6FFE1CFD9FF81E942E804
:102940008A7288EC16F0F350016EF450026E000E9D
:10295000E66EE66A0B0EE66EE66A99EC0BF044E969
:10296000000EE66EE66A70EC16F042E943E9E7CF46
:10297000D9FF12001E0EF66E000EF76E000EF86EF6
:1029800000010900F5505A6F0900F5505B6F03E133
:102990005A6701D03DD00900F550556F0900F55038
:1029A000566F0900F550576F09000900F550E96EA0
:1029B0000900F550EA6E090009000900F550586F4A
:1029C0000900F550596F09000900F6CF5CF0F7CF08
:1029D0005DF0F8CF5EF055C0F6FF56C0F7FF57C068
:1029E000F8FF0001585302E1595307E00900F55080
:1029F000EE6E5807F8E25907F9D75CC0F6FF5DC0E4
:102A0000F7FF5EC0F8FF00015A07000E5B5BBFD7FF
:102A10001200000EE66EE66A320EE66EE66A99EC89
:102A20000BF044E900D012000B0EE66E840EE66E49
:102A3000D30EE66ED4EC15F043E900D01200D9CFE6
:102A4000E6FFE1CFD9FF84E942E8046A056A00EBBA
:102A5000E6FFB8EC16F041E938EC17F007EC00F0AF
:102A6000000901E0FBD722EC17F0F350046EF4509C
:102A7000056E0001D8900530F66F0430F56FD890E0
:102A8000F633F53301EBE9FF02EBEAFFF5C0EFFFA8
:102A900000D043E9E7CFD9FF120035EC17F000D0A2
:102AA0001200D9CFE6FFE1CFD9FF8BE943E81E0E34
:102AB000061801E1075001E132D01F0E061801E1AE
:102AC00007502DE10B6A0C6A05340C50051804E61A
:102AD00004500B5C05500C5813E202500B24E96EB5
:102AE00003500C20EA6EEFCFE6FF00EBE6FF01EBB0
:102AF000E6FF00EC0DF043E90B2A000E0C22E4D7B0
:102B000000EBE6FF01EBE6FF02EBE6FF03EBE6FF7F
:102B100004EBE6FF05EBE6FF10EC08F046E944E9BC
:102B2000E7CFD9FF1200D9CFE6FFDACFE6FFE1CF3A
:102B3000D9FFE2CFDAFF85E9AC6AAB6A02B0AC88B4
:102B400002A202D0AC8CAB8C02B4AC8E02A602D036
:102B5000AB8801D0AB8A02B8AC849E9802BAAB862F
:102B600002AC02D09D8A01D09D9A9E9A02AE02D0FC
:102B70009D8801D09D9800EBAFFF000101EBF5F0BF
:102B8000F66BF5C0B0FFAC8AAB8E949C948EAC50C3
:102B9000100B04E0AC50800B01E1948C41E9E5CFCF
:102BA000DAFFE7CFD9FF1200D9CFE6FFDACFE6FF91
:102BB000E1CFD9FFE2CFDAFF85E9C26AC06A0140FE
:102BC0007F0B3C0BC26E0138F00B300B0001F56F30
:102BD0000F0E0014F511C16E0250040DF350380BA6
:102BE000F66F02380F0B070BF56F800E0214F5110C
:102BF000F611C06E01AE03D09E9C9D8CF28CC280FB
:102C000041E9E5CFDAFFE7CFD9FF1200D9CFE6FFE0
:102C1000DACFE6FFFA0EE3CFD9FFFB0EE3CFDAFF00
:102C2000FC0EE3CFE9FFFD0EE3CFEAFFE9CFF3FFB0
:102C3000EACFF4FFF80EE35003E1F90EE35008E0A9
:102C4000F80EE30602E2F90EE306DECFEEFFF2D75E
:102C5000FF0EE3CFDAFFE552FF0EE3CFD9FFE552D7
:102C60001200D9CFE6FFDACFE6FFE1CFD9FFE2CFFE
:102C7000DAFF83E97E0E0014CD6E00AC02D0CD8E5B
:102C800001D0CD9ECF6ACE6A9E9000AE02D09D80CC
:102C900001D09D90CD8041E9E5CFDAFFE7CFD9FFA4
:102CA0001200D9CFE6FFDACFE6FFE1CFD9FFE2CFBE
:102CB000DAFF82E941E8F20E01018E17ABAC03D0D6
:102CC0008E91ABB08E81ABB48E85ABB28E87AE5099
:102CD000026E025042E9E5CFDAFFE7CFD9FF1200DA
:102CE000D9CFE6FFDACFE6FFE1CFD9FFE2CFDAFFB7
:102CF00084E942E880EB04F081EB05F005EBCFFFBF
:102D000004EBCEFF43E9E5CFDAFFE7CFD9FF1200AE
:102D1000D9CFE6FFDACFE6FFE1CFD9FFE2CFDAFF86
:102D200082E942E8CE50026ECF50036E02EBF3FF11
:102D300003EBF4FF43E9E5CFDAFFE7CFD9FF120059
:102D4000D9CFE6FFDACFE6FFE1CFD9FFE2CFDAFF56
:102D500084E942E880EB04F081EB05F005EBD7FF56
:102D600004EBD6FF43E9E5CFDAFFE7CFD9FF120046
:102D7000D9CFE6FFDACFE6FFE1CFD9FFE2CFDAFF26
:102D800083E9C30EC2140001F56F00407F0B3C0BBA
:102D9000F511C26E41E9E5CFDAFFE7CFD9FF1200A6
:102DA000D9CFE6FFDACFE6FFE1CFD9FFE2CFDAFFF6
:102DB00083E9ACAC04D0AC9001018EB3AC8000EBE5
:102DC000ADFF41E9E5CFDAFFE7CFD9FF1200FF0EF3
:102DD000E35000015F6F480E01D04C0EE76EE72E06
:102DE000FED7E76AE72EFED75F2FF7D71200000E57
:102DF000F36E00EE00F00D0E01D81200EA6002D072
:102E0000EE6AFCD7F350E9601200EE6AFCD7D9CF26
:102E1000E6FFE1CFD9FF89E942E880EB09F081EBD9
:102E20000AF043E9E7CFD9FF12001CEE00F02CEEC8
:102E300000F0F86ABAEC14F003EC00F0A3EC0EF02A
:102E4000FBD71200C4CFF7F0F7C0F8F00001F76B22
:102E5000C350F711F36EF8C0F4FF12001F0EC51433
:102E6000FDE1C750040BFAE11200C2909D9C1200D4
:102E7000C2821200000000000000023637303037F6
:102E8000313031344135440D0A03000236373030D9
:102E900037324245453034420D0A0300023637309E
:102EA0003037323831384231460D0A0300023637A6
:102EB000303037324330353138340D0A03000236B2
:0F2EC00037303037324146343846320D0A03007E
:020000040030CA
:0300010008191EBD
:0200050080C0B9
:00000001FF
